:200000000C9489080C94A6080C94A6080C94A6080C94A6080C948F280C94A6080C946C10B6
:200020000C94A6080C94A6080C94841F0C9473280C9481280C945E1F0C94A6080C94A608A4
:200040000C944D280C94A6080C94A6080C94A6080C94A6080C946D100C94A6080C94A6089A
:200060000C94A6080C94A608B200AB00A4001008407E01013E01013E01013E01017E40404D
:2000800018000820060606FEFE0000002060E0FFFFE06020060606FFFF0606066060607F93
:2000A0007F000000050842818989760508C2A19189860508000402FF000E100610FCF878A7
:2000C000F8D8889594840001030908031080C0E0070F1F0E080610FFFF86F6E6C6FFFF61ED
:2000E0006F67630E080210FFFFFFFF11080310F6E6C66F67630C000A204122000010B0F053
:20010000F0F0F8FEFE8C060301000001037F7F3163C6CCD8C0C040949400000F0703070C61
:20012000180C000220A192FFFFFFFF85010F0007200010B0F0F0F0F8060301000001036395
:20014000C6CCD8C0C040000F0703070C185245465F523D005245465F433D00203E313030BB
:200160006E4600706E056D006B4D01041001020400111111131D101000000E11110A1B00CF
:20018000041F111111111F04001E0203021E0000000F0818080F00001113171F17131100B7
:2001A00011191D1F1D1911001B1B1B1B1B1B1B005244533D005B435D00310803083320001D
:2001C0003108070608090A08332000432B455352405450313A330066405450320020353088
:2001E000487A004330200052695F4C6F3D0052695F48693D0052303D00494345733D004907
:200200004345303D0056657273696F6E20312E31326B0008090A080008070608002A01202B
:20022000200008020800080108004E6F742063616C696272617465642120466F72FF6361F4
:200240006C6962726174696F6E20636C616D70207468652033FF70696E7320746F676574FD
:2002600068657220616E64207374617274207769746820746865FF6B65792E2041636B6E4E
:200280006F776C65646765207468652073656C662D74657374207769746820746865206B97
:2002A00065792077697468696EFF32732E20446973636F6E6E6563742070696E73206166F0
:2002C00074657220746865FF6D657373616765202269736F6C617465FF50726F6265212221
:2002E0002069732073686F776E2E20536F66747761726520616E6420646F63756D656E7448
:200300006174696F6E2069732061742073766E3A2F2F206D696B726F636F6E74726F6C6C13
:2003200065722E206E65742F7472616E736973746F72207465737465722000566578743D0E
:200340000049723D004C3D0020566C6F73733D00204553523D005643433D0043656C6C21A7
:2003600000080308004056673D002056743D0055663D005562653D00203132333D0050690C
:200380006E2000424A542D504E5000424A542D4E504E00433D0043673D006846453D002D17
:2003A00049474254004A464554002D4D4F5300444320507772204D6F6465004F4B00426110
:2003C000742E2000444854313100536372617463687061643A0036342D62697420524F4DFE
:2003E0003A0054454D50203D2000313D474E4420323D445120333D56444400656D69743A4E
:200400000070726F746F636F6C3A0054433930313220007550443631323100416C6C20336E
:20042000326269743D00646174613D007573657220636F6465007374616E64696E672062E3
:20044000792E2E2E0020313D444F555420323D474E4420333D5643430049525F456E636F7C
:200460006465720049525F4465636F646572004261636B436F6C6F720046726F6E74436F66
:200480006C6F720073686F72742050726F626573210053656C6674657374007475726E21FF
:2004A0000043280546292D636F7272656374696F6E00445331384232300031302D62697487
:2004C0002050574D00662D47656E657261746F7200537769746368206F66660053686F7760
:2004E000206461746100566F6C74616765004672657175656E6379005472616E7369737466
:200500006F720053656C656374696F6E3A005465737420456E640069736F6C6174652050E2
:20052000726F626573210053656C6674657374206D6F64652E2E0054696D656F757421000C
:200540006F722064616D6167656420004E6F2C20756E6B6E6F776E2C206F720020756E6B03
:200560006E6F776E00546879726973742E00547269616300706172740064616D6167656427
:200580002000656D70747921007765616B0054657374696E672E2E2E00B903870358032E0C
:2005A000030703E402C302A40288020000140029003E005300690080009700AE00C600DFB2
:2005C00000F80012012D01490165018201A001BE01DE01FF012102440268028E02B502DE78
:2005E000020903350364039403C803FE0337047304B404F90443059305EA054906B3062984
:2006000007AE074808FF08DE09AF57B950C24A97451141133D87395A367E33E8308E2E6909
:200620002C712AA128F5266925F923A222622137201E1F161E1E1D341C571B851ABF1903DF
:20064000195018A61704176A16D6154915C2144114C5134E13DC126E1205129F113D11DFB2
:200660001084100000000000000000000000001E2121211200000080C0FF7F007E4A4A4A29
:200680003400000000FCFC80C0E070381C0E0703010000000303030303030303037F7F0711
:2006A0000F1CB8F0E0F0F800000000000000000000000000000000FC949595850101030754
:2006C0000EFCF80000000000000000003E4141412200E0C080C0E070180F07003C42525275
:2006E00034000000F8F800DEDE8C070707070604000000000C0C0C0C0C0C0C0C0F0F007B6F
:200700007B3163C68C98C0E0000000000000000000000000FC949494940004060707070FC6
:2007200018F0E00000000000000000000000003F21A1920C0000000000FFFF003C42525212
:20074000340000000000F8F800EFEF86C6E6F686868707000C0C0C0C0C0C0C0C0C0C0F0F3F
:2007600000F7F76163676F617FFFE0000000000000000000000000489495956400000000C8
:2007800000FFFF0000000000000000000000003F2121120C0000000000FFFF003C4252529C
:2007A00034000000E0C0800000FFFF0C0C0C0C0C0C0F0F0003030303030303031F0F070331
:2007C00003FFFF606060606060E0E0000000000000000000000000489495956400000000AE
:2007E00000FFFF000000000000000000000000FFFF007824227E006452524C003C4252524B
:20080000340086C6E6F6FEF7EFDEBEFEBE9E8E86000000000C0C0C0C0C0C0D0D0D0703FF16
:20082000FF01010101010101000000000000000000000000000000FFFF00F04844FC0088B4
:20084000FC8000000000000000000000000000FFFF0000007C1211127C0000003C425252CF
:20086000340002868E9EBEFFFFBE9E8E86820000000000000C0C0C0C0C0C0C0D0D0703FF6B
:20088000FF01010101010000000000000000000000000000000000FFFF0000007884848452
:2008A00048000000F0F8FC1E4E27171717171717170F1EFEFCF8F000E000000001070F0FC3
:2008C0002F26100C00000080C0E0F0FF7F3F8F601F0000000000000000000038BCBEBF8FCC
:2008E000E71309040201000000000000000000000000001E3E5E5E4478000000000000001A
:20090000000000C0F818181818F8C00007060606060700C0FCF8F0E0DCFCC0000F070301AB
:200920000E0F00C0FCDCE0F0F8FCC0000F0E0103070F00C0FCFC0000FCFCC0000F0F0000B9
:200940000F0F00F0F80C0C0CF8F0000C0D0F000F0D0C0000FCFC0000F8F800381F0F0306DE
:200960000307060C0C0C0C0CFCFCC00C0C0C0C0C0F0F00C0FCFC0C0C0C0C0C000F0F0C0CEF
:200980000C0C0CC0C0C0C0C0C0C0C00000000000000000C000008000008000070C0C070C41
:2009A0000C070C00800000800000C00C070C0C070C0C070000000000000000000000000007
:2009C000000000000000000C12120C000000000000000000000000000000000000000000DB
:2009E0000000000000000000000000000000000000000000000000000000000000000000F7
:200A000000000000F8FC0602FEFE00381F0F08080F1F38FEFE0000FEFE00000F0F08080FCD
:200A20003F1800FEFE00F800FEFE000F0F080F080F3F180080E03010F0F000381F0F0808D6
:200A40000F1F38C0E028F828E0C000070F283F280F0700F0F00000F0F000000F0F08080FF0
:200A60003F1800F0F000F000F0F0000F0F080F080F3F1800000000000000000000000000CC
:200A8000000000000000000000000000000000000000000000000000000000000000000056
:200AA000000000000000000000000000000000000000000000000000000000000000000036
:200AC000000000000000000000000000000000000000000000000000000000000000000016
:200AE0000000000000000000000000000000000000000000000000000000000000000000F6
:200B00000000000000000000000000000000000000000000007CFEFE7C00000000001B1BAB
:200B2000000000000E1E00001E0E00000000000000000020F8F820F8F82000020F0F020FEC
:200B40000F0200387C444747CC9800060C0838380F0700081494C860301800060301040AC2
:200B60000A040080D87CE4BCD84000070F0808070F080000080F0700000000000000000079
:200B80000000000000F0F80C0400000000070F181000000000040CF8F00000000010180FF0
:200BA0000700004050F0E0F05040000001010001010000004040F0F0404000000000010168
:200BC000000000000000000000000000002C3C1C000000C0C0C0C0C0C0C000000000000051
:200BE000000000000000000000000000000C0C00000000000080C0603018000603010000EB
:200C0000000000F8FC060206FCF80003070C080C07030000181CFEFE0000000008080F0F4C
:200C20000808000C0E82C2623E1C000E0F0908080C0C000406424242FEBC00040C0808088A
:200C40000F0700C0E0B098FCFE8000000000080F0F08003E3E222222E2C200060C0808083E
:200C60000F0700F8FC262266C4800003070C080C070300060682C2623E1E0000000F0F0018
:200C8000000000BCFE424242FEBC00070F0808080F0700387CC68286FCF80000040C080C3C
:200CA0000703000000303030000000000006060600000000003030300000000020361E0E76
:200CC0000000000040E0B0180C06000000000103060C000020202020202000000101010140
:200CE00001010000060C18B0E04000000C060301000000181C86C2663C180000001919007A
:200D0000000000F8FC04E4E4FCF800070F080B0B0B0100F0F88C868CF8F0000F0F00000053
:200D20000F0F0002FEFE4242FEBC00080F0F08080F0700F8FC060202060C0003070C0808D7
:200D40000C060002FEFE0206FCF800080F0F080C07030002FEFE42E2060E00080F0F0808D7
:200D60000C0E0002FEFE42E2060E00080F0F0800000000F8FC068282868C0003070C0808BF
:200D8000070F00FEFE404040FEFE000F0F0000000F0F00000002FEFE0200000000080F0F23
:200DA00008000000000002FEFE0200070F08080F07000002FEFE60F09E0E00080F0F0000CF
:200DC0000F0F0002FEFE0200000000080F0F08080C0E00FEFE38E038FEFE000F0F0000003F
:200DE0000F0F00FEFE38E080FEFE000F0F0000030F0F00F8FC060206FCF80003070C080CE6
:200E000007030002FEFE42427E3C00080F0F0800000000FCFE020202FEFC00070F080E3CFC
:200E20003F270002FEFE42C6FC3800080F0F00000F0F001C3E6242C28E0C00060E08080848
:200E40000F07000E0602FEFE02060E0000080F0F080000FEFE000000FEFE00070F08080800
:200E60000F0700FEFE000000FEFE000103060C06030100FEFE00F800FEFE00030F0E030E23
:200E80000F0300069EF8F0F89E06000E0F0100010F0E00003E7EC0C07E3E000000080F0FBE
:200EA0000800000682C262321E0E000E0F090808080C000000FEFE0202000000000F0F08B0
:200EC0000800001C3870E0C0800000000000000103070000000202FEFE0000000008080FFC
:200EE0000F0000080C0603060C0800000000000000000000000000000000003030303030BC
:200F00003030000000030704000000000000000000000020B09090F0E00000070F08080776
:200F20000F080002FEFE1030E0C000000F0F080C070300C0E030101030200003070C08081A
:200F40000C0400C0E03012FEFE0000070F0808070F0800C0E0B090B0E0C00003070C080809
:200F60000C04000020FCFE220E0C0000080F0F08000000E0F01010E0F01000133724243F3C
:200F80001F000002FEFE2010F0E000080F0F00000F0F00000010F6F60000000000080F0FCE
:200FA00008000000000010F6F60000183820203F1F000002FEFEC0E0301000080F0F00013A
:200FC0000F0E00000002FEFE0000000000080F0F080000F0E030E030F0E0000F0F000700C3
:200FE0000F0F0010F0E01030E0C000000F0F00000F0F00C0E0301030E0C00003070C080CFD
:2010000007030010F0E01010F0E000203F3F28080F0700E0F01010E0F01000070F08283FBD
:201020003F200010F0E03010706000080F0F08000000002070D09090302000040C0808093A
:201040000F06001010FCFE101000000000070F080C0400F0F00000F0F00000070F08080726
:201060000F080000F0F00000F0F0000003070C0C070300F0F000C000F0F000070F0C070CB8
:201080000F07003070C080C07030000C0F0301030F0C00F0F0000000F0F000133724242447
:2010A0003F1F0030301090D07030000C0E0B09080C0C000040E0BE1F0100000000000F1FE8
:2010C000100000000000FFFF0000000000003F3F0000000000011FBEE040000000101F0F48
:2010E000000000080C040C080C0400000000000000000080C0603060C0800007070404042A
:20110000070700202020202020202020205B524C5D0011241FBECFEFD8E0DEBFCDBF12E088
:20112000A0E0B1E0EAECFCE702C005900D92AE30B107D9F722E0AEE0B2E001C01D92A63D14
:20114000B207E1F70E9487360C94633E0C9400005D98559A80FD599A80FF5998519A539A22
:201160005A9867FD5B9A67FF5B985A9A5A9866FD5B9A66FF5B985A9A5A9865FD5B9A65FF94
:201180005B985A9A5A9864FD5B9A64FF5B985A9A5A9863FD5B9A63FF5B985A9A5A9862FDF5
:2011A0005B9A62FF5B985A9A5A9861FD5B9A61FF5B985A9A5A9860FD5B9A60FF5B985A9ADC
:2011C0005D9A5A985B980895609362028093140286958093C902660F660F660F60932102A8
:2011E00008951092C90260E080E0EECF089560E082E0EACF089560E084E0E6CF089560E0BD
:2012000086E0E2CF08958091620280930F028091C9028093110208958091110260910F02BC
:20122000880FD2CF0895682F80E092CF0895CF93DF938AE2F8DF60E081E08ADF60E081E022
:2012400087DF60E081E084DF60EA81E081DF8BE2EADF60E081E07CDF60E081E079DF60E0AE
:2012600081E076DF60E881E073DF8CE2DCDFD0E0C0EA60911C0281E06BDF60911B0281E011
:2012800067DFC150B1F7DF5FD03891F7AADFDF91CF91089558985A985B985D98509A529AEB
:2012A000539A559A2ED55D9A559A5998519A84E12FD5589A84E12CD58AE02AD581E1B3DF6F
:2012C00084E026D586E2AFDF64E081E041DF81EBAADF6EE081E03CDF64E181E039DF80EC0B
:2012E000A2DF6EE081E034DF60E081E031DF81EC9ADF65E081E02CDF85EC95DF68E381E0D2
:2013000027DF60E481E024DF8AE38DDF65E081E01FDF86E388DF6CE681E01ADF84EB83DF55
:2013200060E081E015DF82E090E00E942D3E90931C0280931B0280E090E00E942D3E9093C8
:2013400013028093120273DF89E26DDF8AE0E0C408950895582F28E030E090E841E080E068
:20136000642F652309F0892B440F96952150310921153105A9F70895A3E0B0E0E2ECF9E019
:201380000C94A23D9B838A83F62E142FA02EB12CC501860F911D813A91050CF097C08E2D29
:2013A00090E0AC01410F511D413851050CF08EC0EA94E10E322F3270532E21FF13C00197BD
:2013C00033E0959587953A95E1F78A9DA0018B9D500D9A9D500D11248A819B81840F951F89
:2013E0009B838A83E7FE02C09FE7E92E2170222E350191E0691A7108E11608F467C0C12CF3
:20140000D12C8A809B80860C971C37E0310F39834C2CC01608F049C0222021F0F401EC19B6
:20142000FD0904C0EA81FB81EC0DFD1D3490511003C0832D8FDF382E8BE2F5DE60E081E09B
:2014400087DE612F81E084DE60E081E081DE698181E07EDE8AE2E7DE60E081E079DE4F0CA9
:20146000642D81E075DE60E081E072DE642D81E06FDE8CE2D8DE88E0482E37FE07C0609108
:20148000130281E065DE6091120206C060911C0281E05EDE60911B0281E05ADE330C4A9458
:2014A00061F7EFEFCE1ADE0AB3CF552039F08A819B818A199B099B838A8306C0EA81FB81C0
:2014C000EA0DFB1DFB83EA83185F96CF2396E2E10C94BE3DEF920F93282F8F7030E6839F6E
:2014E000C00111248D59994F322F307324FF02C028E001C028E520932202303218F0109286
:201500000E0208C020E220930E02209122022D5D2093220240E2E42E08E120E040910E02FA
:201520006091220229DF0F91EF900895EF920F93262FFC01649131964491319604913196A9
:20154000E49050910E02450F50912202650F049613DF0F91EF90089560E0E8CF0895EF92FC
:201560000F93909162029F5F9093620240911402440F440F440F20E1829FC001112450E196
:20158000E52E08E020E0609121028D5F964FF4DE80912102885F809321020F91EF9008958C
:2015A0008F5CDDCF089580E2DACF0895A1E0B0E0ECEDFAE00C94B23D18162CF48983F3DFD0
:2015C00089818150F9CF2196E2E00C94CE3D9091620284E1891BEACF0895A1E0B0E0E3EF7D
:2015E000FAE00C94B23D8983F2DF9091C9029F5F9093C9026981983038F087E08093C902AE
:2016000081E08093650202C0109265028091C902880FDADD2196E2E00C94CE3DDEDFBCC499
:201620000895DFDDD4DFDDCD0895E1DDD0DFDFCD08958DE394CF0895CF93DF93EC01899156
:20164000882311F08CDFFBCFDF91CF910895CF93DF93EC01FE018491982F9F7719F07FDF23
:201660002196F8CFDF91CF910895EF920F93FC0104913196E49002967FDE0F91EF900895DE
:201680000F9386E993E0E3DF4091AD024D3F64F460919B0270919C0280919D0290919E0202
:2016A00003E026E4E6D002C08FE359DF0F91089597FF09C08F939F938DE251DF9F918F913C
:2016C000909581959F4F6EE372E04AE050E00E94023EB2CFEDDF01C0EBDF65CFEF92FF92E4
:2016E0000F931F93182F062FF42E88E793E0AFDFEE24E0916302F09164028685E81611F4AB
:20170000812F09C08485E81611F4802F04C08585E81611F48F2D23DFE3948E2D833049F7E1
:201720001F910F91FF90EF900895EF92FF920F931F93182F062FF42E80E070DF8EE793E013
:2017400086DFEE248E2D2CDF74DFE0916302F09164028685E81611F4812F09C08485E816AE
:2017600011F4802F04C08585E81611F48F2DF7DE1ADFE3948E2D833029F71F910F91FF9076
:20178000EF900895682F80E092E0662309F491E0623009F481E008950F93082FEAECF2E0BF
:2017A000880F880FE80FF11D6081718182819381643671058105910570F42091100227FD95
:2017C0000AC0802FDFDF692F0E9438246EEF23E044E01AD104C04FEF04E024E04AD0E3DE08
:2017E0000F910895863058F4EDEBF2E0E80FF11DE80FF11D8081918163E011D1D4CE08957F
:201800001F93182F80919602882319F0CCDE80E0A6DEEDDC8FE693E01ADF812F82958F7074
:20182000E1DF812F8F70DEDF1F910895CF93DF938091230282958F70C1EBD2E0C80FD11DEC
:201840008881AEDE86E292E002DF8E81A9DE86E292E0FDDEC1EBD2E0809123028370C80F8F
:20186000D11D8E819DDE80912302CADFDF91CF910895A0E0B0E0EFE3FCE00C94A43DD42F62
:20188000C22F6B017C01F7FE0AC08DE268DEF094E094D094C094C11CD11CE11CF11C033043
:2018A00009F49FC0043009F4A3C0053051F0063081F00730B1F074E6872E912CA12CB12CCD
:2018C00017C060EA862E66E8962EAA24A394B12C0FC050E4852E52E4952E5FE0A52EB12CA1
:2018E00007C040E8842E46E9942E48E9A42EB12C3AE0432E512C612C712CC814D904EA049D
:20190000FB0470F0C701B6016B5F7F4F8F4F9F4FA30192010E94BA3C69017A01DF5FEDCFD7
:201920000EE00D0F1BEA019F012D1124069586E08D1B819F112D11241695912F990F910FA6
:20194000182F191B2AE043E552E0C701B6010E94E13DA3E5B2E00D900020E9F71197A35512
:20196000B240BA2E9D013327812F90E004968217930714F40F5F1D5FE02FF0E0ED59FE4F44
:20198000A490DA2FD11B1D1634F08EE2E8DDDD2311F080E3E4DD111101C0DFEF23E5E22EA4
:2019A00022E0F22E8701CD2EDD24C7FCD094802F8E198B1568F4F80181918F01D0DD980127
:2019C000235532402C153D0591F78EE2C8DDEFCFAA2011F08A2DC3DDCC2389F08C2FBFDD5E
:2019E0000EC098EE892E93E0992EA12CB12C80CF80E1882E87E2982EA12CB12C79CFCDB7ED
:201A0000DEB7E0E10C94C03D0F93362FBC0180E090E0022F242F432F2CDF0F9108950F935F
:201A2000062FBC0180E090E026E54DEF22DF0F910895CF93C82F82958F708A3010F4805D55
:201A400001C0895C8CDD8C2F8F708A3010F4805D01C0895C84DDCF910895E82FF0E0EE0F3A
:201A6000FF1FE859FF4F8591949120910E02420F20912202620F20E0F8CD0895CF93DF93F0
:201A8000C82FD62FE0916302F091640248E16EE18685E3DFE0916302F09164024D2F6C2F74
:201AA0008485DBDFE0916302F091640240E06EE18585D3DFDF91CF9108951F93CF93DF9388
:201AC000B6DB80E307DD62E080E890E02FDD80E201DD89EB90E040DD60E085E075DB8BE85F
:201AE00093E0B5DD6AE085E06FDB83E893E0AFDD88E99AE3EBD19BDB83E1ECDC83E0EADC09
:201B000089EC90E029DD61E082E05EDB8EE427DD8DE225DD85EA93E09ADD6BE082E054DBE2
:201B200080E51DDD8DE21BDD85EA93E090DD88E99AE3CCD17CDB81E3CDDC81E2CBDC8DE228
:201B400091E00ADD60E085E03FDB8EE408DD8DE206DD85E404DD8FE993E079DD6AE086E08A
:201B600033DB80E5FCDC8DE2FADC85E4F8DC8FE993E06DDD88E99AE3A9D159DB81E1AADCDF
:201B800081E291E0E9DC81E0A5DC85EF90E0E4DC60E081E019DB8EE4E2DC8DE2E0DC84E4CE
:201BA000DEDC8FE993E053DD6AE082E00DDB80E5D6DC8DE2D4DC84E4D2DC8FE993E047DD61
:201BC00088E99AE383D133DB82E384DC82E282DC8BEE90E0C1DC60E085E0F6DA8EE4BFDC26
:201BE0008DE2BDDC85E4BBDC8AEA93E030DD6AE086E0EADA80E5B3DC8DE2B1DC85E4AFDC91
:201C00008AEA93E024DD88E99AE360D110DB82E161DC83EE90E0A0DC82E05CDC83ED90E05B
:201C20009BDC61E081E0D0DA8EE499DC8DE297DC84E495DC8AEA93E00ADD6BE082E0C4DA26
:201C400080E58DDC8DE28BDC84E489DC8AEA93E0FEDC88E99AE33AD1EADAC3DA88E192E01D
:201C6000F6DCC5DA83E192E0F2DCC5DA81E693E0EEDCC5DA86E292E0EADC95DC82E292E086
:201C8000E6DCC0E014E18C2F612F0E94873CD82F91110AC0811104C088E99AE317D1C7DAFD
:201CA00060E08D2F880F90DA80E28C0F58DCCF5FCF3549F788E99AE309D1B9DADF91CF9159
:201CC0001F910895089503D002D001D000D000D003D002D001D000D000D003D002D001D078
:201CE00000D000D0A89503D002D001D000D000D003D002D001D000D000D003D002D001D065
:201D000000D000D003D002D001D000D00000089590E0893C28F0885C48EC849FC0011124C2
:201D2000009709F4089520918100277019F0DADF0197F6CF8130910519F002973EE303C0BD
:201D400037E180E090E02091B200230F2093B30042E04093700027E023BF889526E023BF4D
:201D600010927000A895DCCF8F9384E0D1DF07C08F9382E0CDDF03C08F9381E0C9DF8F912E
:201D80001F93182F106410937C00E12FE07880914902E81759F0E0934902AEDF8EE98093D6
:201DA0007A0083E083BF889582E083BF20E030E0A901E0E01FC08EE980937A0083E083BF41
:201DC000889582E083BF6091780070917900260F371F411D511DE43061F480914B02803091
:201DE00041F084E02030380720F417FD02C01068CACFEF5F80914802E817E8F260914C0203
:201E000070914D0217FF04C060914A0270914B0280E090E00E94783C2FEF33E040E050E066
:201E20000E94BA3CB901CA012091480230E040E050E00E94BA3CC9011F91089589B183FBC3
:201E4000882780F94999826090912E02943050F09EE090932A0280932B0210922F0291E0F0
:201E600090932E02E0912E02AE2FB0E0A65DBD4F9C91981721F181111AC0A3E0AE0FA37045
:201E800020912F02923041F4B0E0A65DBD4F9C91933069F42F5F09C0913049F4B0E0A65D95
:201EA000BD4F9C91933019F4215020932F02EF5FE370E0932E02F0E0E65DFD4F808380910D
:201EC0002F0287FD8195809330020895A0E0B0E0ECE6FFE00C94AB3DD82EC92E539851983B
:201EE00006DF10922F02E0912E02F0E03196E370FF27E65DFD4F80EF8083C5E6D9E19EDF96
:201F00004F9905C0F8DED150D1F7C150B9F7CD2DDC2DF12C05E510E0BB24B394D7FD36C0AA
:201F200082E3E82E8BDFE7DEEA94E1F7000F4F9B0F5F0F730F3349F4111103C0CD2DDC2D51
:201F400014E01F5F163928F021C0011102C011111DC0A8951C161D062CF42A97209711F4C5
:201F6000CFEFDFEF80913002882339F0F39480919702811102C0B092970284E18F1570F6EF
:201F800080912F02811102C0F12CC8CF812FCDB7DEB7E9E00C94C73DCF9335D9C82F809149
:201FA0006502882301F1813051F4C73041F463E18EE00AD98BE2D3DA63E18EE005D980E458
:201FC0009FE184DF811104C0809130028111F7CFC73041F480916502813021F460E08EE015
:201FE000F3D8F5DA19D9CF91089580E190E00E94253E382F81E190E00E94253E2091500241
:20200000230F30915102381F209333023093340283E0283E380720F0C901885E934002C0E5
:2020200080E090E062E370E00E94933C683008F067E0E9E9F5E0E60FF11DE60FF11D459170
:2020400055912591359162E3681B421B530B649FC001659F900D1124499662E370E00E94EB
:20206000933C620F731F70939A026093990282E190E00E94253E992787FD909560915002DD
:2020800070915102860F971F90934B0280934A0290939502809394020895CF93DF9324E1F9
:2020A00030E0B9010E94933CDC01EBEAF5E0E60FF71FE60FF71FC591D591459155914C1B69
:2020C0004A9FC0011124B9010E94933C6C0F7D1FCB01DF91CF910895189518951092370271
:2020E0001092350210928F021092750210923602109261021092960210927A0210927B0265
:2021000010927C021092AB0282E08093AC02109210021092AA021092A90210929F021092F9
:20212000A0021092A1021092A20281EF8093AE020895A1E0B0E0EFE9F0E10C94B03D17B88C
:2021400018B8E82FF0E0E659FE4F949195B9262F281BE20FF11D27FDFA95E491E92BE4B959
:2021600069830EDE8C016981862F0ADE20914C0230914D0236952795A90143505109B8018D
:20218000625E7F4F4617570778F4255E3F4F0217130750F4BC01625E7F4F4617570720F4E8
:2021A00041E08217930708F040E014B8842F2196E4E00C94CC3DCF9361E080E0BADFC82F7D
:2021C00062E080E0B6DFC80F62E081E0B2DF8C0FCF910895AFE0B0E0E0EFF0E10C94A73DE2
:2021E000782E10923702807F01F5E5DF833009F051C210921C0210921B028FEF9FEF909338
:2022000013028093120213D887E295E020DA0E94F7088FE3A4D980ED97E058DE8B30C8F49E
:2022200006D885E092E013DA35C206E910E00E94170984E894E00BDABEDF833021F41F5FBC
:20224000143010F006C010E088E262DD015079F762C00E94F70885EF91E0F9D960E086E0FA
:2022600090E00E94323E60E087E090E00E94323E60E085E090E00E94323E60E082E00E9448
:2022800038246C019A83898361E082E00E9438247C019C838B8360E081E00E9438248C01D5
:2022A0009E838D8323E040E26EEFC601ADDB23E040E26EEFC701A8DB23E044E06EEFC80102
:2022C000A3DB2AE5C216D10424F084E190E09A838983698186E090E00E94323E8AE5E81673
:2022E000F10424F084E190E09C838B836B8187E090E00E94323E0A35110524F084E190E0C0
:202300009E838D836D8185E090E00E94323E82E08093650241DE18E74EDF81116FC00E942D
:2023200017098EEE91E093D923E044E06FEF80914E0290914F0268DB0E94F70887EE91E002
:2023400086D923E044E06FEF80915F02909160025BDB82E0809365021FDE109237020E9418
:20236000170983EE91E073D960E082E00E94A01C8090A3029090A402A090A502B090A602D5
:202380009C868B8661E082E00E94A01CC090A302D090A402E090A502F090A602DE86CD8618
:2023A00060E081E00E94A01C0091A3021091A4021E830D8362E080E00E94A01C8091A302BA
:2023C0009091A4029C838B8362E081E00E94A01C8091A3029091A4029A87898761E080E0B9
:2023E0000E94A01C8091A3029091A4029A838983E72DEF70EF87E13059F40EC016D987E16D
:2024000095E025D984E684DC115009F085CF87CF20915E02223021F4029698878F8304C076
:2024200098878F8310925E02C40156D9C60154D9B801882777FD8095982F03E026E444EFA9
:2024400018DA6E01FFE0CF0ED11CFE013196819191910A97853B9105E8F4EC15FD05B9F7F2
:20246000F9E0EF2EF0E0FF2E8E010F5F1F4FF80160810E5F1F4F6E5EC7010E94323EFFEFB5
:20248000EF1AFF0A0C151D0591F70E94F7088BEB93E0DDD882E0809365027EDD2F852130E4
:2024A00029F080915E02823009F0DFC070E4B72E10E0EAE0CE2ED12CE12CF12C0FDE0E94A3
:2024C000170980E06DD881E693E0C1D882E068D88BE591E0BCD81092370260E082E00E948E
:2024E000A01C0091AD0260919B0270919C0280919D0290919E02073F44F4A70196010E94E3
:20250000BA3C0F5FB901CA01F6CF0093AD0260939B0270939C0280939D0290939E02073FDF
:2025200009F08EC0DC01CB0180569109A109B10980399545A105B10508F082C06091AF020C
:202540007091B002CB018B569F4F8B32914008F077C01F5F153008F474C080E190E00E940A
:20256000403E0E94170984E591E071D88091AF029091B0029DD839DD18B881E087B980E205
:2025800084B982E0FDDB853D9340DCF714B810924B0210924A0282E0F3DB8C01809194024F
:2025A0009091950290934B0280934A0282E0E8DB7C01EE0CFF1C10924B0210924A0282E09E
:2025C000DFDBC0909402D0909502D0924B02C0924A02080F191F0E191F090E94F7088DE467
:2025E00091E035D882E190E00E94253E63E0B62EB80E9601D8010E94073D9701442737FD0B
:202600004095542F0E94DC3CB20E6B2D82E190E00E94323E8B2D992787FD909549D8E5DC68
:2026200082E080936502B8DC10925E0289E090E00E94253E682F8CE090E00E94323E15C0F0
:2026400010E00E94F70860919B0270919C0280919D0290919E0204E026E44091AD0209D9FB
:2026600088E256DBBA9409F029CF89E1809348020E94170985E092E00E94270B0E94F708AB
:202680008EE095E00E94270B1092370282E08093650282DC2F96EDE00C94C33D80915E02CB
:2026A00081110DC089E090E00E94253E61E0680F8CE090E00E94323E81E080935E020895C6
:2026C000CF92DF92FF920F931F93CF93DF931F92CDB7DEB7E82FF0E0E359FE4FE491E8B91F
:2026E000E7B915B8E62FF0E0E659FE4FE491E4B908E813E1FE2EFF0C862F698335DB6C01B1
:20270000F4B869818017910710F48C01F5CF0097E1F00E94FF0881E493E00E94270BD6010B
:2027200020EA36E841E050E00E940D3D28E937EB40E050E00E94BA3CDA01C90122E041E44D
:2027400067EF62D917B818B814B80F90DF91CF911F910F91FF90DF90CF9008950F931F9370
:20276000CF93DF9385E00CDB85E006DBEC018C01000F111F000F111F0A561F4F1092520237
:20278000043883E0180750F48FEA93E00E94270B0E94E70A81E08093520225C08EEB93E04B
:2027A0000E94270B62E0C8013AD90E94D30AC23086E0D80790F4CB33D54060F482E895E0A7
:2027C0000E94270B0E94E70A8DECA2DA5E988AEC9FDA09C089E895E002C08BEB93E00E94BC
:2027E000270B0E94E70ADF91CF911F910F910895A4E1B0E0EEEFF3E10C94A23D982E862E98
:20280000442EA895E62FF0E0E659FE4F54903396E490E42FF0E0E659FE4F6490E82FF0E02D
:20282000E659FE4FF4903396749065B8262D25292C8B24B977B878B8862F9EDA9E838D83AC
:2028400054B8882D99DA1C0114B84CDA15B83C8934B9882D91DA4D815E818417950720F59D
:20286000805E9E4F4817590708F4BDC4E7B818B8F5B88F2D862984B960914C0270914D02FE
:202880007E836D83892D78DAAD81BE81A81BB90BBE83AD83F4B820904C0230904D02892D6B
:2028A0006BDA281A390A08C02D813E81205E3E4F8217930708F497C42091750280918F02BA
:2028C00090E0820F911D02974CF0213009F08BC49091720280918C02981385C4162D110F50
:2028E000ED81FE81E437F10508F49CC0CF01880F991F44962816390608F094C077B878B861
:20290000812F852984B9882D33DA6C01842D38DA5C0115B9882D2CDA9601295A3D4F1F2956
:2029200018B8E7B814B915B928173907A8F5842D1FDA88349F4028F084E08093370282E200
:2029400004C084E08093370284E280933602D0926B02C0926A02AC14BD0440F4C6018A19A6
:202960009B09909371028093700204C010927102109270029601A0E1B7E20E94F83C209173
:2029800031023091320240E050E00E94BA3C30936D0220936C021FC4892DEAD98C01842D3A
:2029A000EFD96C01F5B8892DE3D9895A9D4F8017910708F018C478B877B8842DD9D9813D71
:2029C000934028F484E08093370282E304C084E08093370284E3809336020C151D0538F45E
:2029E000C01AD10AD0928B02C0928A0204C010928B0210928A0220914C0230914D02201BEA
:202A0000310BA0E1B7E20E94F83C209138023091390240E050E00E94BA3C309387022093BC
:202A20008602A9C118B8E7B8F5B80F2D062904B9892DA2D998878F83C0904C02D0904D02B1
:202A4000842D9ED99A8389830A9798F514B881E05FD9812F8F2984B9892D8ED998878F839F
:202A600040914C0250914D02481B590B5C834B83842D86D99A8389838091380290913902B3
:202A80009C0140E050E060E677EB87E490E00E94BA3CAB81BC810E940D3DA981BA819D01D6
:202AA00040E050E00E94BA3C29873A874B875C8716C0F6012F813885E21BF30BFC83EB83E6
:202AC000CF0149815A81841B950BBA010E94933CCB01A0E0B0E089879A87AB87BC8714B8C8
:202AE00015B878B877B881E013D999EB291697E0390608F078C3AC89A4B9882D3DD98F3590
:202B00009D4008F43EC114B881E002D9EC89E4B981E0FED8F12FF529FB8BF4B9882D2CD961
:202B20006C01842D2DD99E878D87892D29D95C012D853E85213D374008F4AEC083E08093F9
:202B400037028DE08093360236012C143D0410F462187308E0903102F090320200E010E0AC
:202B600060E677EB87E490E0A80197010E94BA3CD3010E940D3DAD85BE859D0140E050E0D6
:202B80000E94BA3C80918F02882369F08091800290918102A0918202B09183028217930712
:202BA000A407B50700F5209380023093810240938202509383029601A0E1B7E20E94F83CF8
:202BC000A80197010E94BA3C3093870220938602C501ED85FE858E1B9F0B909385028093CA
:202BE000840221E001C020E08091800290918102A0918202B091830249855A856B857C853D
:202C000084179507A607B70738F5409380025093810260938202709383028F819885698114
:202C20007A81861B970B90938502809384022B813C81A0E1B7E20E94F83C2091380230910E
:202C4000390240E050E00E94BA3C205F384D309387022093860203C0222309F488C39101E4
:202C6000A0E1B7E20E94F83CA80197010E94BA3C30938902209388022D813E81A0E1B7E279
:202C80000E94F83CA80197010E94BA3C30938B0220938A0221E06BC371E62716310408F006
:202CA00070C081EDC81687E0D80608F46AC084E08093370282E180933602C60186509F4F44
:202CC0008A159B0520F483E1809336021AC0CA14DB0498F4A0913102B091320295012C191B
:202CE0003D090E94F83C960140E050E00E94BA3C309385022093840204C010928502109227
:202D000084029E2D9770E92E842D806480937C007BE0F72E01E010E0CC24CA94E3E0DE2EB2
:202D2000A89561E0862D29D5AB89A4B986B18E21E9F354B880917A00806480937A008091F8
:202D40007A0086FDFCCF8091780090917900F601E81BF90B0E0F1F1FFA9411F7C801880F39
:202D6000991F880F991F69E070E00E94933C70938B0260938A0280918F028F5F80938F02FF
:202D800089CFFC89F4B965B8882D0E94BC0E5C01842D0E94C00E9C838B8360914C02709180
:202DA0004D02681B790B6A30710590F514B881E00E94880E812F852984B915B9882D0E9403
:202DC000BC0E5C01842D0E94C00E9C838B8380913102909132029C0140E050E060E677EB50
:202DE00087E490E00E94BA3CD5010E940D3D20914C0230914D024B815C81241B350B40E047
:202E000050E00E94BA3C29873A874B875C870CC0C501861B970B0E94933CCB01A0E0B0E0A2
:202E200089879A87AB87BC87E7B818B804B905B9892D0E94BC0E98878F83842D0E94C00E8E
:202E40009A838983882D0E94C00E6C012F8138852034364008F0C5C1F5B8892D0E94BC0E33
:202E6000AC01F4B8892D498B5A8B0E94BC0E9C0115B881E02F87388B0E94880EF5B8892D3F
:202E80000E94BC0E2F85388949895A892034364008F059C08133914108F455C08F819885FD
:202EA0008A569F4F4817590708F04DC085E080933702809175028F5F8093750289819A81AA
:202EC0008C199D0990936B0280936A022F8038842C183D08309271022092700214B815B8B2
:202EE000E8B881E00E94880EF4B8892D0E94BC0E853F910508F049C204B9842D0E94BC0E94
:202F0000813D934008F441C2892D0E94C00E8D3D924008F43AC2F4B8892D0E94BC0E8D3DCF
:202F2000924008F432C2F5B881E00E94880E15B8892D0E94BC0E853F910508F026C286E0FA
:202F40008093370222C204B905B981E00E94880ED12EDF28D4B8D5B8892D0E94BC0EAC013F
:202F600000914C0210914D02081B190B842D498B5A8B0E94C00E9E878D8720914C02309168
:202F80004D02281B390B3A832983882D0E94C00E98878F8349895A8969817A816E3F79409C
:202FA00008F4B0C083E0809337028CE08093360238012016310610F4621873088091380255
:202FC000909139026C01E12CF12C60E677EB87E490E0A70196010E94BA3CD3010E940D3DE4
:202FE000A981BA819D0140E050E00E94BA3C80917502882369F08091660290916702A09126
:203000006802B091690282179307A407B50708F52093660230936702409368025093690231
:203020008D859E85EF81F8858E1B9F0B90936B0280936A029801A0E1B7E20E94F83CA701DB
:2030400096010E94BA3C30936D0220936C0221E001C020E08091660290916702A09168028E
:20306000B091690249855A856B857C8584179507A607B70720F540936602509367026093D5
:203080006802709369028B819C818A199B0990936B0280936A029501A0E1B7E20E94F83C53
:2030A000209131023091320240E050E00E94BA3C205F384D30936D0220936C0203C02223F0
:2030C00009F464C19101A0E1B7E20E94F83C209131023091320240E050E00E94BA3C3093C8
:2030E0006F0220936E022D813E81A0E1B7E20E94F83CA70196010E94BA3C3093710220931F
:20310000700243C161E62616310408F06AC009347DE0170708F465C084E08093370282E074
:20312000809336028F81988586509F4F8417950720F483E0809336021CC08F8198858417B6
:20314000950798F4A0913802B09139029A01281B390B0E94F83C980140E050E00E94BA3CE7
:2031600030936B0220936A0204C010926B0210926A02072D0770842D806480937C001BE055
:20318000AA24A394B12CA89560E0862DF6D2D4B8D5B886B18023E9F7F4B880917A00806467
:2031A00080937A0080917A0086FDFCCF8091780090917900A80EB91E115029F7C501880F1B
:2031C000991F880F991F69E070E00E94933C7093710260937002809175028F5F8093750203
:2031E000D4C017B818B814B815B817B897EC291691E0390608F4B0C018B818EC072D0E2917
:2032000007B981E00E94880EE7B8892D0E94C00E429710F01150A1F7452C440C3F2C330C53
:2032200034B835B861E0862DA8D2892D0E94BC0E8C0144B815B877B878B860E0862D9DD20E
:20324000A0904C02B0904D02882D0E94BC0E6C0154B8892D0E94BC0E9A838983882D0E9425
:20326000C00E29813A81281B390B3A83298318B8E7B8F4B8F5B861E0862D7FD2892D0E94C6
:20328000BC0E7C01882D0E94C00EE81AF90A49815A814E155F0540F434B835B8892D0E94EC
:2032A000BC0EFA82E98215C085010C191D0944B815B877B878B860E0862D5FD2E0904C02AD
:2032C000F0904D02882D0E94BC0EB701681B790BCB0129813A812759310929383141E0F5AC
:2032E00029813A8182179307B8F5C80133E0969587953A95E1F7893C910510F088EC90E080
:20330000800F911F49815A818417950728F5CA0124E0969587952A95E1F780179107E0F4C5
:2033200080913702823018F482E08093370280913502E82FF0E0DF01AF54BD4F9C921696DF
:203340008C92EE0FFF1FE354FD4F29813A81318320838F5F80933502682D892D25D017B8AE
:2033600018B814B815B86496E2E10C94BE3D80918F028F5F80938F02222389F340928C0237
:2033800080928D0290928E02EACF21E0809175028F5F80937502222311F34092720290926F
:2033A000730280927402DBCFA0E0B0E0EAEDF9E10C94A43D982E862EA895E62FF0E0E65949
:2033C000FE4F549033962491E82FF0E0E659FE4FE4903396F49030918F028091750290E0C0
:2033E000830F911D892B09F0C3C1A89580913B0290913C02880F991F880F991F90934D0262
:2034000080934C028091940290919502880F991F880F991F90934B0280934A028EEB8093F3
:20342000480218B827B9E4B8E5B858E1D52EC0E0D0E0882D0E94BC0E782E692E892D0E9417
:20344000C00E8C018C1B9D0B97FF03C091958195910903972CF0A895DA94D1F1E801E9CFCF
:20346000EE0C15B8E4B8892D0E94BC0E8135910578F5E5B8892D0E94BC0EEC01F7B8F8B803
:2034800015B854B888E1482EC12CD12C892D0E94BC0EB82EA92E882D0E94C00E7C019C016C
:2034A0002C193D0937FF03C03195219531092330310514F5550C54B8882D0E94BC0E6C0145
:2034C000003C94E41907E8F4C53881E0D807E8F080913B0290913C0290934D0280934C02A7
:2034E000809194029091950290934B0280934A0289E1809348023CC1A8954A9449F367011B
:20350000C5CFC03B9DE4D90718F784EAE81682E0F80608F063C098E9C916D104C8F2009145
:203520004C0210914D029E01A8E9B7EB0E94F83C98012C1B3D0B40E050E00E94BA3C29016B
:203540003A0198012C193D09A8E9B7EB0E94F83C860120E030E0A90198010E94BA3CC83792
:20356000DF4070F4C301B201B2E0660F771F881F991FBA95D1F7620F731F841F951F12C012
:2035800098E7C9169FE0D906A0F4CA01B901A2E0660F771F881F991FAA95D1F7640D751D60
:2035A000861D971D25E030E040E050E00E94BA3C08C0240D351D461D571D56954795379502
:2035C0002795A4E6B0E00E940D3D6B017C018CEAC80E8DE0D81EE11CF11C73C0272D362D9D
:2035E0000217130708F49801CB2DDA2DCE15DF0508F4E70159012017310708F45801A0910A
:203600003802B0913902C501821B930B9C010E94F83C20914C0230914D022A193B0940E0CA
:2036200050E00E94BA3C29013A018E01EC16FD0608F48701A0913102B09132029E01201B92
:20364000310B0E94F83C6801E12CF12CA70196010E94BA3C98E7A9169FE0B90670F4C3014A
:20366000B201E2E0660F771F881F991FEA95D1F7620F731F841F951F11C008378FE018072C
:20368000B0F4CA01B90152E0660F771F881F991F5A95D1F7640D751D861D971D25E030E03F
:2036A00040E050E00E94BA3C69017A010AC069017A01C40CD51CE61CF71CF694E794D79448
:2036C000C79410913702133008F002CF9A94980C892D90E0EC01C658DD4F2881880F991F82
:2036E000880F991FFC01E653FD4F2223D1F14080518062807380A701960124193509460983
:20370000570957FF07C050954095309521953F4F4F4F5F4FAAE0B0E00E940D3DA3019201E0
:203720002C593F4F4F4F5F4F2C0D3D1D4E1D5F1D0E94BA3C232B242B252B09F0C9CE123059
:2037400019F081E08093370282E0888380919602E82FF0E0E358FD4F90828F5F8093960284
:20376000B7CEC082D182E282F38281E08883B0CECDB7DEB7E0E10C94C03DCF93C82FC09547
:2037800095B160FF02C0982B01C09C2395B994B1982B94B982E00E94880E84B18C2384B921
:2037A00085B18C2385B9CF910895A0E0B0E0EBEDFBE10C94AB3D8AE0D82E9FE3B92E28E0BC
:2037C000C22E17B818B815B8B4B880E00E94BC0E8C0181E00E94C00EEC0182E00E94C00E38
:2037E00020913702283079F417B814B81093160200931502D0931802C093170290931A02F2
:203800008093190258C031E0C430D10508F030E021E00430110508F020E0232319F0843039
:20382000910510F321E0083E134008F020E0C83ED34008F42260883E934008F4246027B9CD
:20384000C0E0D0E0A89580E00E94B40E7C0181E00E94C00E8C0182E00E94C00E24E1E2166D
:2038600025E0F20608F4389A043135E0130708F4399A843125E0920708F43A9A36E0E31618
:20388000F10428F40630110510F4069738F02196C43F81E0D807B1F6C092370200E010E006
:2038A0000C171D0729F00E94770E0F5F1F4FF8CFDA9409F086CFCDB7DEB7E9E00C94C73D9C
:2038C000CF92DF92EF92FF92CF9320919B0230919C0240919D0250919E02C091AD028AE09A
:2038E000C82ED12CE12CF12C8C2FCF5F213A96E8390791E04907510538F0CA01B901A7013D
:2039000096010E94BA3CF0CF8093AD02A0914C02B0914D020E940D3D28E833E140E050E088
:203920000E94BA3C20939B0230939C0240939D0250939E02CF91FF90EF90DF90CF90089570
:20394000A4E0B0E0E6EAFCE10C94A83D982E862E8FEF860F992D990F990D890F809377025C
:20396000E92DF0E0E659FE4F1491E62FF0E0E659FE4FF490E62FF0E0E359FE4F0491809127
:203980003702813009F496C24091350287EB92E06DEB72E0DC012A2F281B2417A0F42D914C
:2039A00028110EC09D0127503109F9012081291107C0FB01208131812C3D354008F47AC2B0
:2039C0006E5F7F4FE8CF1092A8021092A70281EF8093AD0210929B0210929C0210929D020C
:2039E00010929E02E2DE18B807B9F4B8F5B8892D0E94C00E7C01882D0E94C00EE81AF90A0F
:203A000014B81092790210927802C12CD12C8091780290917902843F914050F515B914B91C
:203A20000E94710E14B815B80E94780EA895892D0E94C00E6C01CE18DF088091780290915B
:203A400079028E37910528F02BE4C216D1040CF42DC25DE2C51651E0D50684F480917802A4
:203A60009091790201969093790280937802CFCFFDE2CF16F1E0DF060CF418C2809178026B
:203A800090917902892B21F0C60100E010E006C025E1C21625E0D206BCF385C0209178028E
:203AA000309179022017310758F00E94720E892D0E94C00E8E199F09A8950F5F1F4FEECFA6
:203AC0008601081B190B1016110694F4093C11050CF0ECC128EE33E0D8010E94073D9601D0
:203AE000442737FD4095542F0E94BA3C790102C0E12CF12CA0907802B09079025FEFA51A5F
:203B0000B50AC501A0E0B0E08093A3029093A402A093A502B093A602C601800F911F16D2DC
:203B20009C01D5010E94F83C6093A3027093A4028093A5029093A60260939B0270939C0245
:203B400080939D0290939E0287EF8093AD02B8DE20919B0230919C0240919D0250919E0284
:203B600088E090E029833A834B835C830E94253EA8EEB3E0A81BB10987FDB39529813A817B
:203B80004B815C810E94173D24E630E040E050E00E94BA3C20939B0230939C0240939D0261
:203BA00050939E0241C101DE15B887E087B918B8F12EFF0CF4B880E480937B0084E580BFED
:203BC000892D806480937C0086E180937A000E947B0E1092790210927802109280001092A0
:203BE00085001092840087E286BB81E280936F0081E080939802F5B89091370280938100E2
:203C0000943059F481E090E0092C01C0880F0A94EAF78095877087B901C007B9F89483B723
:203C2000817F83BF80919802882389F083B7816083BF7894889583B78E7F83BFF894A8959B
:203C400080917802909179028034964059F7789410928100E0908600F090870010926F0026
:203C600086E980937A0014B815B8892D0E94C00E2091500230915102821B930B0C96909372
:203C8000B0028093AF0280917802909179028032934008F00BC180917802909179029093F4
:203CA000A6028093A502F092A402E092A30284EF8093AD02809178029091790282349105BB
:203CC000C8F06091A3027091A4028091A5029091A60224E630E040E050E00E94BA3C2093B9
:203CE000A3023093A4024093A5025093A60286EF8093AD02A0919902B0919A022091A3027B
:203D00003091A4024091A5025091A6020E940D3D20E233E040E050E00E94BA3C2093A302FA
:203D20003093A4024093A5025093A60220939B0230939C0240939D0250939E02C1DD8091C0
:203D4000AD02843F09F060C0C0909B02D0909C02E0909D02F0909E0220EAC2162FE0D206F5
:203D6000E104F104C0F4A70196012C543F4F4F4F5F4F60EA7FE080E090E00E94BA3C2C0DD2
:203D80003D1D4E1D5F1D20939B0230939C0240939D0250939E028091770290E0875F9F4F6E
:203DA0000E94253EC0909B02D0909C02E0909D02F0909E02482F50E060E070E04C155D05EA
:203DC0006E057F0568F4C41AD50AE60AF70AC0929B02D0929C02E0929D02F0929E0214C0EC
:203DE00084E1C80ED11CE11CF11CC416D506E606F70610F40E944E1310929B0210929C026D
:203E000010929D0210929E0214B980919B0290919C02A0919D02B0919E024997A105B105F8
:203E200008F444C0E12CF12C80913502882321F0809137028430D1F587E08093370220912C
:203E4000AD028091AE028217BCF028132FC040919B0250919C0260919D0270919E02809154
:203E60009F029091A002A091A102B091A20284179507A607B707D0F480919B0290919C0252
:203E8000A0919D02B0919E0280939F029093A002A093A102B093A2022093AE02F092AA02AA
:203EA000E092A9028092AB029092AC0217B818B814B815B82496ECE00C94C43D1F920F92A5
:203EC0000FB60F9211248F939F93B59904C080919802811109C0B59B10C080918600909103
:203EE00087008A3F910548F48091780290917902019690937902809378029F918F910F90C8
:203F00000FBE0F901F9018951F920F920FB60F9211248F939F9310929802B09B10C0809130
:203F20008600909187008A3F910548F48091780290917902019690937902809378029F919F
:203F40008F910F900FBE0F901F9018950F9221E08C32920710F48CE291E08C52914069E105
:203F600070E00E94933C99E16B3210F0982F6BE2981BE9E0F6E0E60FF11DE60FF11D459127
:203F8000559125913591692F421B530B649FC001659F900D11240C9669E170E00E94933C25
:203FA000620F731FCB010F900895A0E0B0E0EBEDFFE10C94A83D88E893E190933C02809351
:203FC0003B0290934D0280934C028EEB8093480218B880E187B90E94800E17B884E00E9485
:203FE000BC0EAC018B5C9840833F9140A0F481E08093610220914C0230914D02AFEBB9E04B
:204000000E94F83C9A0140E050E00E94BA3C30933C0220933B0280913B0290913C02909386
:204020004D0280934C028EE00E94C00E8EE00E94BC0E90935102809350020E94F50FB5DB07
:2040400018B8C1E0C7B985E185B9C4B980E00E94BC0E7C0112E017B984E0982E94B881E06C
:204060000E94BC0EE80EF91E97B890E1892E84B882E00E94BC0EE80EF91E15B8C8B9C7B96B
:20408000C4B9C0914C02D0914D0280E00E94BC0E5C0118B917B994B800914C0210914D026F
:2040A00081E00E94BC0E6C0198B897B884B880904C0290904D0282E00E94BC0EC00FD11F91
:2040C000C80DD91DCA19DB09CC19DD09C81BD90B17B818B814B880914C0290914D024C0135
:2040E000880C991C880E991E8E189F088C1A9D0AA12CB12C9701A0E9BAE10E94F83CA501AE
:2041000094010E94BA3C69017A013093600220935F029E01A0E9BAE10E94F83CA501940180
:204120000E94BA3C30934F0220934E022057354E309339022093380280E7C81A85EED80A4D
:20414000D0923202C092310289E180934802CDB7DEB7ECE00C94C43D0F93CF93DF93D62F7C
:20416000C42F0E94D00A88E192E00E94270B55D18091100287FF04C084E192E00E94270BE3
:204180008D2F0E94D00ACC2349F080916202813128F490E083509F4E0E94270B0E94F708D7
:2041A00080917D020E94CC0B809110028E3F94F485E493E00E94270B60911D0270911E029D
:2041C00080911F029091200203E028E4409110020E94390CDF91CF910F9108950F931F9350
:2041E000CF93DF93082F0E94F1088091AB020E94D00A81E693E00E94270BF0D46091AB02CF
:204200008091AC0235D39093A8028093A70211E08A3F9F4F08F010E0C091A902D091AA02B5
:20422000112321F089E192E00E94270B8091AC020E94D00A002359F09091620281E1891B57
:204240000E94D60A85EB91E00E94270B02C00E94E70A0E94F70860919F027091A0028091EB
:20426000A1029091A20204E026E44091AE020E94390C112369F080E593E00E94270B22E045
:2042800044E06EEF8091A7029091A8020E94040D0E94E70A0E94FB08CD2B69F089E493E0FC
:2042A0000E94270B22E045E26FEF8091A9029091AA020E94040D0E94E70ADF91CF911F9154
:2042C0000F9108958F7021F40E94FF080C94AE1308958F3021F490915202913011F08F5FED
:2042E000089580E00895CF9380EC91E00E949832C0E00E946E1060E082E056D862E080E047
:2043000053D80E94F10880919602882329F041E062E080E021DF12C080EC91E00E94270B24
:2043200087E091E10E94270B0E94F7088FE30E94AF0A80E00E94ED0A0E94E70A8C2FC2DF7A
:2043400088EE93E00E94660F811109C080913002843028F48C2FBDDFC82F8A3F50F20E94F4
:204360001709CF9108951F93CF93DF93C0E0D7E011E10E946E1060E082E0E2DAD093370237
:204380008091AD02823FACF08093AE0240919B0250919C0260919D0270919E0240939F02AB
:2043A0005093A0026093A1027093A20281E016DF1CC00E94F10889EB91E00E94270B8091A4
:2043C0006202912F981B892F0E94D60A85EB91E00E94270B0E94F7088FE30E94AF0A0E9407
:2043E000E70A0E94FB080E94E70A8C2F6BDF88EE93E00E94660F81110AC08091300284303C
:2044000030F48C2F66DFC82F8A3F08F4B2CF0E941709DF91CF911F910895A3E1B0E0E3E184
:20442000F2E20C94A23D82E08093100280913702813009F019C280919602813009F014C2AA
:2044400020907D0224E0229EF0011124E653FD4F80819181A281B381893032E59307A10544
:20446000B10508F001C29B8B8A8B312C61E0822D631528F00E94C20BB82EA92E03C00E9422
:20448000C20B5C01EA2DF0E0E359FE4F7490EB2DF0E0E659FE4FE49115B818B88A899B89C1
:2044A000803F910590F430FC10C0009131021091320200591A4181E090E00B2C01C0880F7A
:2044C0000A94EAF7872987B906C0E4B977B8009131021091320244E1642E8B2D0E94B80E6B
:2044E0004C018A2D0E94C00E24E08216910410F4049710F06A9489F730E430937B0064E55F
:2045000060BF8B2D806480937C0086E180937A00E12CF12C109280001092850010928400C4
:2045200087E286BB0E947B0E932D9170998B30FC05C081E88093810078B808C078B80E9409
:20454000840E80E286BB81E88093810046B345FF12C018B81092810080E286BB80918600ED
:20456000909187006C0120918400309185008217930768F013C040FFE9CF21E026BBA89537
:20458000C70101967C018035910501F7E2CF40FF05C031E036BB6FEFE61AF60A86E9809365
:2045A0007A0034E1732E8B2D0E94B80E4C018A2D0E94C00E24E08216910410F4049710F067
:2045C0007A9489F780905F02909060028A899B89880E991E800E911E2091330230913402BC
:2045E00000399AE11907B0F461EEC616D104E104F10438F4C60165E070E00E94933C6451BB
:2046000001C069E128523109261B310967FD339586E009C0C40160EB76E30E94933C87E0C4
:20462000860F285D3F4F90E0A0E0B0E08C159D05AE05BF0528F4C81AD90AEA0AFB0A03C0FB
:20464000C12CD12C76018989882329F092E2C90ED11CE11CF11C60E5E616F10418F0C12CB6
:20466000D12C76018BE0C816D104E104F10428F091E0C91AD108E108F10840914C025091A7
:204680004D02A12CB12CA8EEB3E00E94F83C2B013C019801DA010E94F83CA50194010E9492
:2046A000BA3C44275527C301B2010E94BA3CC9010E944D10FC01A5019401C701B6010E94EC
:2046C000783C4B015C01BF0180E090E023E0660F771F881F991F2A95D1F76B5F7F4F8F4F83
:2046E0009F4F2AE030E040E050E00E94BA3CC501B4010E94BA3C832D90E0E1E0F0E0EC0F0B
:20470000FD1F64E0369EE00DF11D112420833183428353836989611117C06CE0C616D1040B
:20472000E104F10488F0FC013196EE0FFF1FEE0FFF1F81E090E08C0F9D1FE80FF91F208353
:204740003183428353833394A895339493E0931508F08CCE18B884E00E94880E21E04D8197
:204760005E816F81788589819A81AB81BC8184179507A607B70708F020E04D855E856F859C
:20478000788989859A85AB85BC8584179507A607B70710F032E001C033E0E22FF0E0EE0F14
:2047A000FF1FEE0FFF1F81E090E08C0F9D1FE80FF91FDC0194E0399FA00DB11D11244D91D2
:2047C0005D916D917C9180819181A281B381481759076A077B0708F0322FE1E0F0E0EC0FDF
:2047E000FD1F24E0329FE00DF11D112480819181A281B38180931D0290931E02A0931F0265
:20480000B093200230FD09C02A893B89203F310520F48BEF8093100217C02CEF20931002C7
:20482000BC01CD016B5F7F4F8F4F9F4F2AE030E040E050E00E94BA3C20931D0230931E02D2
:2048400040931F025093200280911D0290911E02A0911F02B0912002892B8A2B8B2B11F415
:204860001092100217B814B86396E2E10C94BE3DAEE1B0E0EEE3F4E20C94A23D662EB82ED3
:20488000860F898320913702273059F520919F023091A0024091A1025091A20257FD15C011
:2048A0001091AE0209C0CA01B9012AE0312D412D512D0E94BA3C1F5F173FACF391F42A3516
:2048C00060E036074105510518F48FEF9FEF82C1173F39F480E028178DE738074105410503
:2048E00010F020E03DE72C8B3D8B26EDA22E02C094EDA92EEDE6F1E0E60DF11D859180607D
:204900008E87EDE6F1E0EB0DF11D859180608F87EAE6F1E0E60DF11D7590EAE6F1E0EB0D8C
:20492000F11DC59090EC692AB92A81E0E82EF12C012D112D8E831F82188619861A861B86F2
:204940001C861D86188E198E1B8E1A8E0E94D51B80E088B960927C000E947C0E3F8537B9F3
:2049600075B874B80E94830E14B815B8DD24B4ED9B2EA6ED8A2E3E8537B975B874B860925E
:204980007C00A895A0927A0080917A0086FDFCCFA0927A0080917A0086FDFCCF209078002C
:2049A00030907900B0927C00A0927A0080917A0086FDFCCF80927A000E94810E0E94830E8B
:2049C000C5B8C4B80E94820E0E94840EA895A895A895A89514B815B880917A0086FDFCCF12
:2049E0002091780030917900288B398B3F8537B9C5B8C4B8A895B0927C00A0927A00809178
:204A00007A0086FDFCCFA0927A0080917A0086FDFCCF609178007091790060927C00A092C6
:204A20007A0080917A0086FDFCCF80927A000E94810E0E94830E75B874B80E94820E0E9406
:204A4000840EA895A895A895A89514B815B880917A0086FDFCCF409178005091790014B8EF
:204A6000CB01820D931DE80EF91E011D111DEA82FB820C831D8388899989840F951F2E8191
:204A80003F8168857985280F391F611D711D2E833F836887798722E32417150650F075B8A6
:204AA00074B80E94860E14B815B8888D8395888F07C0483E73E0570718F08A8D83958A8F69
:204AC000888999892817190660F03E8537B9C5B8C4B80E94860E14B815B8898D8395898F34
:204AE00007C0883E73E0970718F08B8D83958B8FD3945D2D5F3F09F03ECF40905F02509040
:204B00006002440C551C9201E4E0240D351DEA95E1F72901570168016E807F808884998440
:204B2000209137022730C1F46C897D89812D912D6C537040804090409B01AC010E94783C7A
:204B40009B01AC016FEF71EC8EE390E00E94BA3C621A730A840A950AA614B704C804D90494
:204B600028F46A187B088C089D0803C0662477244301B20180E090E09301A4010E94783C9D
:204B80009501A6010E94BA3C84E090E07981870F911D0E94253E90E0682EC90160E170E0C8
:204BA0000E94933C260F371FC9016816190618F4861991090FC08C5E9F4F8615910540F441
:204BC0008C899D89843981E1980710F00E944E13812D912D6E96E2E10C94BE3DA4E0B0E0F7
:204BE000E4EFF5E20C94AA3D8091A9029091AA02892B09F0B2C0E091AB02F0E0E359FE4F65
:204C00000491E091AC02F0E0E659FE4F14910E94D51B18B815B807B914B98091AC020E94C2
:204C2000C00E5C010091AE028CE0800F843008F094C0015F80919F029091A002A091A10264
:204C4000B091A2022AE0C22ED12CE12CF12CBC01CD016B5F7F4F8F4F9F4FA70196010E947E
:204C6000BA3C0F5F073019F0DA01C901F0CF293883E138074105510508F06FC025303105DA
:204C800008F46BC015B914B900E010E00217130768F429833A834B835C830E94820E0E5F3E
:204CA0001F4F5C814B813A812981F0CF14B815B8A89585E0809348028091AC0229833A83F9
:204CC0004B835C830E94C00E29813A814B815C81A816B90620F47C01EA18FB0802C0E12CC7
:204CE000F12C00E010E00217130768F429833A834B835C830E94820E0F5F1F4F5C814B816B
:204D00003A812981F0CF8091AC020E94C00E29E120934802A895A816B90618F48A199B092C
:204D200002C080E090E08E159F0588F49701281B390B69F0A4EFB1E00E94F83C970140E0F4
:204D400050E00E94BA3C3093AA022093A9020E94D51B17B818B814B815B82496EAE00C94D0
:204D6000C63DA5E0B0E0E7EBF6E20C94A23D8EEE94E00E94983220EF2B8354980E94770EC6
:204D800014BC16BC1092240210922502109226021092270231E035BB30936E0010928000F7
:204DA00083E19AE790938B0080938A00E1E0F0E0F0938900E09388001092850010928400DE
:204DC00083B5816083BDF6E0F6BBF0936F00789424E02093810012E31A820E94700EA895CF
:204DE0004F9902C031E03A8385B581112CC015BC86B5809324020E94FB080E94E70A0E9464
:204E0000FF080E94E70A0E94150B86E60E94AF0A0E94190B60912402709125028091260231
:204E20009091270207E028E440E00E94390C8AE70E94AF0A549880918100882339F08FE39E
:204E40000E94AF0A03C0115041F6D1CF1092810010926F0020912402309125024091260210
:204E600050912702DA01C9010197A109B109893D9146A105B10508F0FAC0AAE0B0E00E9420
:204E80000D3D685F7F4F8F4F9F4F23E096958795779567952A95D1F7660F771F70939102ED
:204EA0006093900254980E94770E16BC1092240210922502109226021092270281E085BBC1
:204EC00080936E00109293021092920294E09BBB80916800846080936800789480916D00B8
:204EE000806180936D0019820E94700EA8954F9902C0E1E0EA8380916D0084FF05C0F98141
:204F0000FF5FF983FA3F81F715BC80916D008F7E80936D00809168008B7F8093680086B5F1
:204F2000809324020E94FB0884E50E94AF0A0E94190B609124027091250280912602909170
:204F4000270220919002309191023D832C8328EA31E640E050E00E941D3DEC81FD815F0162
:204F6000C12CD12CE12CF12C00E010E00E94463D39014A011B012C012C813D812038310561
:204F800030F007E023E745EFB301C40116C084E6A82EB12CC12CD12CE12CF12C00E010E07C
:204FA0009301C2010E94463DE22FF42F07E023E747EF6E2F732F8F2F952F0E94390C3981B8
:204FC0003A3F21F48FE30E94AF0A51C09301A401B101C2012C393E4C434051056105710513
:204FE0008105910509F008F442C00E94FF0886E60E94AF0A0E94190B9301A401B101C201BA
:20500000530164017101820121153A4C4A495B43610571058105910589F080F020E030E004
:205020004AE85DE568E775E483E691E00E94463DE22FF42F07E028E44AEF0FC020E030E80E
:2050400046EC54EA6EE77DE883E090E00E94463DE22FF42F07E028E44CEF6E2F732F8F2FCF
:20506000952F0E94390C8AE70E94AF0A549810926E0080ED97E00E94660F2A81820F49F449
:2050800080913002833028F43B8131503B83311174CE2596E2E10C94BE3D1F920F920FB64F
:2050A0000F9211248F939F93AF93BF9378948091240290912502A0912602B09127029F5FE6
:2050C000AF4FBF4F8093240290932502A0932602B0932702BF91AF919F918F910F900FBE2E
:2050E0000F901F9018951F920F920FB60F9211248F9386E085BD8F910F900FBE0F901F9024
:2051000018951F920F920FB60F921124A8951092810015BC0F900FBE0F901F9018951F92AC
:205120000F920FB60F9211242F933F938F939F938091920290919302892B11F481E085BD94
:20514000209192023091930280919002909191022817390730F015BC80916D008F7E80934F
:205160006D008091920290919302019690939302809392029F918F913F912F910F900FBE25
:205180000F901F901895A1E0B0E0E9ECF8E20C94AC3D6B017C0167E08AE049830E94E408D7
:2051A00080E092E00E941C0B84E084B90E94740E0E94780E4981411104C00E94740E0E94C1
:2051C000780E14B80E94740E0E94780E10E204E004B90E94780E0E947D0E0E94810E14B84C
:2051E000C0FE0DC00E94770E0E94780E0E947C0E0E947D0E0E94800E0E94800E06C00E94B4
:20520000780E0E947D0E0E94810EF694E794D794C7941150E9F684E084B90E94780E0E9434
:205220007D0E0E94810E14B867E08AE00E94E40883E092E00E941C0B2196E8E00C94C83DE5
:20524000823108F08251811103C088EF94E054C0813019F48EEE94E04FC0823019F485EC8F
:2052600094E04AC0833019F48AEB94E045C0843019F48BEC91E040C0853019F480EC91E0BA
:205280003BC0863019F489EB91E036C0873019F482EB94E031C0883019F481EA94E02CC04F
:2052A000893019F484E694E027C08A3019F489E594E022C08B3019F484EC93E01DC08C3094
:2052C00019F482E994E018C08D3019F486EE94E013C08E3019F489E794E00EC08F3019F43C
:2052E0008FE694E009C0803119F48CED94E004C0813121F481ED94E00E94270B809162029B
:20530000843118F40E94D30AF9CF08950F93CF938BEC91E00E949832C0E01092370260E0D5
:2053200082E00E94B432809137028730C1F50E94F70883E40E94AF0A0E94190B60919F0211
:205340007091A0028091A1029091A20203E026E44091AE020E94390C0E94E70A6091AB02AB
:205360008091AC0285DA9093A8028093A7020E94FB0881E593E00E94270B8091A702909159
:20538000A8028A3F2FEF920730F422E044E06EEF0E94040D08C08FE30E94AF0A04C00E948E
:2053A000150B0E94FB080E94E70A8C2F0E94622188EE93E00E94660F81110BC08091300215
:2053C000843038F48C2F0E946921C82F8A3F08F4A4CFCF910F9108951F93CF93DF9386EE40
:2053E00094E00E949832C0E0D0E01AE00E94150B8BE393E00E94270B83E00E94BC0E63E0FA
:205400009C01129FC001139F900D11240E940F0D8C2F0E94622188EE93E00E94660F90913A
:205420003002811102C0992361F0C0E0963080F48F3510F0DF5F02C0882319F0D53010F082
:2054400007C0D0E08C2F0E946921C82F803F70F2DF91CF911F9108950F93843108F0845195
:20546000833189F489E08093810081E090E0909389008093880007E028E44DEF60E074E91A
:2054800085E397E74BC1823189F489E08093810083E090E0909389008093880007E028E4E0
:2054A0004DEF60E07AEC8AE99BE338C1813169F489E08093810087E090E09093890080937E
:2054C000880007E028E44DEF6CC0803169F489E0809381008FE090E09093890080938800B8
:2054E00007E028E44DEF6FC08F3089F489E08093810089E190E0909389008093880007E00D
:2055000028E44DEF6AE871E88BE299E007C18E3069F489E08093810087E290E0909389004D
:205520008093880007E028E44DEF60C08D3069F489E0809381008FE490E0909389008093C8
:20554000880007E028E44CEF2CC08C3069F489E0809381008FE990E0909389008093880064
:2055600007E028E44CEF2FC08B3069F489E0809381008FE891E0909389008093880007E0E3
:2055800028E44CEF33C08A3089F489E0809381008FE193E0909389008093880007E028E480
:2055A0004BEF60E075E68DEC9DE1B8C0893081F4809381008FE396E09093890080938800B6
:2055C00007E028E44BEF60E872EB86EE9EE0A6C0883089F489E0809381008FE99FE0909355
:2055E00089008093880007E028E44BEF60E071EE85EF95E093C0873089F489E0809381004E
:2056000084E493E2909389008093880007E028E44BEF6FE77DEF83EA92E080C0863089F425
:2056200089E08093810089E593E2909389008093880007E028E44BEF6FEE7BE682EA92E07A
:205640006DC0853089F489E08093810082E893E2909389008093880007E028E44BEF68E44F
:2056600071E68FE992E05AC0843089F489E0809381008FE79EE3909389008093880007E07C
:2056800028E44BEF60E478E78DE791E047C0833069F48BE08093810080E792E090938900A1
:2056A0008093880007E028E44AEFA0CF823089F48BE08093810081EE94E0909389008093E4
:2056C000880007E028E44AEF60E870EF8AEF92E025C0813089F48BE08093810089E698E18A
:2056E000909389008093880007E028E44AEF60E876E988E990E012C0811112C08CE08093FA
:20570000810088E09DE3909389008093880007E028E44AEF60E472E48FE090E00E94390C4D
:205720008AE70E94AF0A0F910895A0E0B0E0EBE9FBE20C94AB3D85EC94E0FAD680E18093EE
:20574000800010926F0081E090E0909389008093880010928B0010928A0083E086BB109201
:20576000820088E08093810015B881E184B918B881E087B9229A89E08093810000E0D12C38
:20578000E12C12E1CEE1D0E0802F90E00A96BE010E94A73CC62EB62E6D1589F00E94F10839
:2057A00085EC94E00E94270BF12CFB1428F48EE20E94AF0AF394F9CF0E94E70ADC2CE1163C
:2057C00069F1143108F01451F12E92E0E92E8F2D811B823081F060E08E2D0E94E4080E947F
:2057E000D30A83E18F1518F48CEE8F0D01C08F2D33DE0E94E70AF394E394E3948EE0E812A4
:20580000E6CF60E086E00E94E4088EE30E94AF0A82E0810F21DE0E94E70AE12E88EE93E057
:205820000E94660F90913002811102C0992379F000E09B3060F0109281001092800017B876
:2058400014B82298CDB7DEB7E9E00C94C73D90912F0297FD9C5E190F853118F01F5F803543
:2058600050F7802F0E946921082F803F08F48CCFE2CFA4E0B0E0EFE3FCE20C94A63D8AEB4C
:2058800094E056D683E28093800010926F008FEF90E090938B0080938A0083E086BB1092E0
:2058A000820015B881E184B918B881E087B9229A81E090E0909389008093880089E0809339
:2058C000810010E000E022E3722E612C34E6C32ED12CE12CF12C88248A9443E0942EA12C97
:2058E000B12C7016E9F183E6871510F4ECE97E0E272D30E0AFEFB3E00E94F83C6E5C7F4FFE
:205900008F4F9F4FA70196010E94BA3C30938B0020938A0029833A834B835C830E94F708A2
:20592000A8EEB3E029813A814B815C810E940D3D61507E4F8F4F9F4FA50194010E94BA3C27
:20594000DA01C90125E045E26FEF0E94040D0E94E70AF8E2F61518F48CE30E94880E072D06
:2059600080E496E00E94660F682E82E8861558F417B8109281001092800014B822982496FB
:20598000EEE00C94C23D909130029B3088F780912F0287FD8C59780EE2E3E61518F4FAE026
:2059A0007F0E03C0662051F0739410E0812F0E946921182F803F08F494CFDACF9111F5CF89
:2059C000F5CF0F931F93CF93DF9381EA94E0B0D588E090E00E94253E182F00E00E94F708D2
:2059E000C12FDD27C7FDD09517FF0BC08DE20E94AF0A23E045E26FEF882799278C1B9D0B99
:205A000004C023E045E26FEFCE010E94040D0E94E70A80E496E00E94660F811105C09091BC
:205A20003002911103C003C0823800F500E0909130029B30D8F490912F02910F811102C04D
:205A4000192F06C0893210F011E001C01FEF190F113514F0155603C01C3E0CF41B59802FA0
:205A60000E946921082F803F08F4B8CF612F88E090E00E94323EDF91CF911F910F9108954A
:205A8000A3E0B0E0E6E4FDE20C94AF3D8091120290911302282F2F7129839C01207E3770DE
:205AA00065E0369527956A95E1F72A83892F8695869586958B8389E794E03AD5F12C10E07F
:205AC0000E94F708111104C08EE30E94AF0A02C00E94D30A82E50E94AF0A0E94190B6981C0
:205AE00070E080E090E004E020E240E00E94390C0E94E70A0E94FB08113021F48EE30E94F8
:205B0000AF0A02C00E94D30A87E40E94AF0A0E94190B6A8170E080E090E004E020E240E0EE
:205B20000E94390C0E94E70A0E94FF08123021F48EE30E94AF0A02C00E94D30A82E40E94D6
:205B4000AF0A0E94190B6B8170E080E090E004E020E240E00E94390C0E94E70A80E496E060
:205B60000E94660F811105C09091300291110FC00FC0823860F0609112027091130280E09F
:205B800090E00E94403E2396E5E00C94CB3DF12CE1E0F0E0EC0FFD1FE10FF11D90812091CA
:205BA0002F02920F9083882359F0893228F01150143030F012E004C01F5F133009F410E010
:205BC00049814F7149832A812F732A838B818F718B8390E0982F8827990F990F990F50E24B
:205BE000259F90011124822B932B842B909313028093120280915202813009F4F12CF394EB
:205C00008FEE8F1508F05CCFB6CFA3E0B0E0EBE0FEE20C94AF3D80911B0290911C02282FAD
:205C20002F7129839C01207E3770E5E036952795EA95E1F72A83892F8695869586958B83CF
:205C40008FE694E075D4F12C10E00E94F708111104C08EE30E94AF0A02C00E94D30A82E50A
:205C60000E94AF0A0E94190B698170E080E090E004E020E240E00E94390C0E94E70A0E94D7
:205C8000FB08113021F48EE30E94AF0A02C00E94D30A87E40E94AF0A0E94190B6A8170E0D7
:205CA00080E090E004E020E240E00E94390C0E94E70A0E94FF08123021F48EE30E94AF0AC8
:205CC00002C00E94D30A82E40E94AF0A0E94190B6B8170E080E090E004E020E240E00E9448
:205CE000390C0E94E70A80E496E00E94660F811105C09091300291110FC00FC0823860F0E7
:205D000060911B0270911C0282E090E00E94403E2396E5E00C94CB3DF12CE1E0F0E0EC0F95
:205D2000FD1FE10FF11D908120912F02920F9083882359F0893228F01150143030F012E024
:205D400004C01F5F133009F410E049814F7149832A812F732A838B818F718B8390E0982F30
:205D60008827990F990F990F50E2259F90011124822B932B842B90931C0280931B02809124
:205D80005202813009F4F12CF3948FEE8F1508F05CCFB6CFA4E0B0E0E0EDFEE20C94A23D54
:205DA00084E694E0C5D30E94F70885E494E00E94270B82E184B985B982E087B981E088B9F9
:205DC00010E00E94FB0886E394E00E94270B4F9B05C0309B03C0A8950000F9CF4F9916C07D
:205DE00080E496E00E94660F811105C08091300281110BC00BC0823840F017B815B88FEFEC
:205E000084B92496E2E10C94BE3D10E03099B4C090E8292E9BE1392E309B03C081E890E1E6
:205E20000CC021143104D1F321E0221A31080000F3CF0197009719F000003099FACF00E284
:205E4000C12CD12C7601F694E794D794C7940E947A0E81E091E0309905C00197009711F05C
:205E60000000F9CF80E895E0309B05C0009731F001970000F9CF8115924010F46894F7F87E
:205E8000015009F781E893E0309905C00197009711F00000F9CF4701AA24BB244F2C552466
:205EA00066247724842D8095881166C00E94FB080EE08EE30E94AF0A0150D9F780E00E94B6
:205EC000ED0AB0E82B16B5E03B0618F483E194E002C08BE094E00E94270B80E00E94ED0ACA
:205EE0008CE294E00E94270B81E30E94AF0A0E94190B8C2D0E94190D80E00E94ED0A8CE27F
:205F000094E00E94270B82E30E94AF0A0E94190BBB27AF2D9E2D8D2D89839A83AB83BC83DA
:205F200089810E94190D80E00E94ED0A86E294E00E94270B882D0E94190D0E94D30A8EE775
:205F40000E94AF0A86E294E00E94270B842D0E94190D80E00E94ED0A8BE194E00E94270B10
:205F6000842D0E94190D882D0E94190D89810E94190D8C2D0E94190D80915202813009F4C5
:205F800010E01F5F103F08F41CCF37CFA6E0B0E0ECECFFE20C94AF3D89E594E0C9D283E21A
:205FA0008093800010926F0082ED90E0909389008093880086E490E090938B0080938A00F2
:205FC00083E086BB1092820015B814B889E180938100198200E010E00E94F708111102C072
:205FE0008EE301C080E20E94AF0A81E094E00E94270B8981811103C083E194E004C081305D
:2060000021F48BE094E00E94270B0E94FB08113021F48EE30E94AF0A02C00E94D30A8CE242
:2060200094E00E94270B81E30E94AF0A0E94190B8A810E94190D80E00E94ED0A123021F470
:206040008EE30E94AF0A02C00E94D30A8CE294E00E94270B82E30E94AF0A0E94190B8B81EB
:206060000E94190D80E00E94ED0A133021F48EE30E94AF0A02C00E94D30A86E294E00E947C
:20608000270BFC808F2D0E94190D0E94D30A8EE70E94AF0A86E294E00E94270B8F2D8095FE
:2060A0000E94190D80E00E94ED0A143021F48EE30E94AF0A02C00E94D30A8BEF93E00E942A
:2060C000270B80E496E00E94660F811105C09091300291111DC01DC0823858F01092800073
:2060E0001092810015B88FEF84B92696E5E00C94CB3D893268F09FEF910F933048F4E1E0CB
:20610000F0E0EC0FFD1FE10FF11D9081905F908300E08150883220F41F5F153008F010E05D
:2061200080912F022FEF210F87FD1CC0233050F4E1E0F0E0EC0FFD1FE10FF11D9081980F7A
:2061400090832DC0111103C0811126C028C0143031F5882321F16A817B818C819D814981F7
:2061600012D81DC0143041F46A817B818C819D8149812E8308D82E81233060F4E1E0F0E08B
:20618000EC0FFD1FE10FF11D808190912F02890F808305C0111103C089818F5F8983898144
:2061A000817089838C8180958D8380915202813009F400E00F5F003F08F40ECF8FCFCF9377
:2061C0000E94FB08C5E080E00E94ED0A0E94E70AC150C9F7CF910895399A0E94700E399857
:2061E00000000E947D0E86B18695817091E089270895A5E0B0E0EFEFF0E30C94AE3D84ECB0
:2062000093E096D10E94F7088AEE93E00E94270B84B1846184B985B1846185B981E087B9F3
:2062200018B810E001E0EE24E394F12CD5DF813009F06CC085E6319904C0815011F00000C2
:20624000FACF85E6319902C080E01CC08150E1F30000F8CF915019F00000319BFBCF94E6DC
:20626000319913C09734B0F0982F969596959695E1E0F0E0EC0FFD1FE90FF11DF0828F5FC0
:20628000883261F0FF0C95E6E8CF992319F000009150E6CF9F2D9160F92EE6CF013019F484
:2062A0008EDFEE24E3948C819A81890F9B81890F9981890F9D81891341C00E94FB0882EEF2
:2062C00093E00E94270B6B8170E080E090E004E02CE040E00E94390C83E40E94AF0A0E9410
:2062E000D30A0E94FF0886E092E00E941C0B698170E080E090E025E240E00E94390C0E94BD
:20630000D30A80E00E94ED0A10E018C081E0E81202C055DF01E00E94FF088CE495E00E947D
:20632000270B80E00E94ED0A89E795E00E94270B84E795E00E94270BE12C01C000E088E4AB
:2063400093E00E94660F811105C080913002811103C003C08C3350F410E0809152028130F8
:2063600009F410E01F5F103F08F460CF17B815B88FEF84B92596E6E00C94CA3DEF92FF92A7
:206380000F931F93CF93DF9310922F0283E095E0CFD0D0E011E1C0E0812F90E020E0823176
:2063A00018F03EEE380F01C0382FC31301C021E09F5F8F5F963099F721110BC080912F0221
:2063C00087FD03C010E11C0F01C01C2F123108F01251012F32E0F32E023120F02EEEE22EDE
:2063E000E00E01C0E02E60E08F2D0E94E408CE1104C08EE30E94AF0A02C00E94D30A8E2DEB
:206400000E9420290F5FF394F3948EE0F812E4CF80E49FE10E94660F8111D0E09091520238
:20642000913009F4D0E0823340F490919702992309F45FC0882309F45CC0CC2309F473C090
:20644000C13021F480E00E94B1264BC0C23011F46CD947C0C33011F40CDA43C0C43019F42D
:206460000E9486293EC0C53019F40E94732139C0C63029F40E9417090E94B32132C0C73068
:2064800011F4F7D12EC0C83011F49BDA2AC0C93011F480DC26C0CA3011F478DD22C0CB3074
:2064A00011F4A7DE1EC0CC3021F481E10E94EA1018C0CD3019F40E94EC2913C0CE3011F4F6
:2064C000DFDA0FC0CF3011F4A0DB0BC0C03111F4F0D207C0C13129F45E9880E090E00E94F4
:2064E000660F1092300210922F0283E095E020D080E0909130029A30B0F490912F02992389
:2065000019F097FD03C0D0E0C90F03C09E5EC90FD0E08111CF5FDF5FD43B28F4C23108F434
:206520003BCFC25139CFCDB7DEB7E6E00C94CA3DA2E0B0E0EEE9F2E30C94B13D89839A833B
:206540000E94170989819A810E94270B14E682E00E94880E4F9902C01150C9F70E94F70880
:206560002296E3E00C94CD3DA4E0B0E0EAEBF2E30C94A73D882E762EE62FF0E0E359FE4FEC
:206580000491E82FF0E0E659FE4FB490E62FF0E0E659FE4F14911092A8021092A702109260
:2065A0009B0210929C0210929D0210929E0287EF8093AD020E94D51B18B807B914B915B986
:2065C000882D0E94C00E8C01872D0E94C00E081B190B14B8109279021092780220E030E089
:2065E0009CE2E92EFF24F3944AE0A42E54E6952E8091780290917902843D904308F069C087
:20660000B5B88091780290917902892B89F06701C21AD30A6091780270917902A29EC001B0
:20662000A39E900D11240E94933CC616D70650F4B4B80E947B0E14B880917802909179024F
:20664000019628C080917802909179020B97C8F06091780270917902929EC001939E900D94
:2066600011240E94933C6C157D0558F4B4B80E94700E14B880917802909179028C599F4FD3
:2066800009C0B4B80E94760E14B880917802909179020A96909379028093780215B80E9472
:2066A0007D0EA895882D0E94C00E9C01201B310B80917802909179028B31964020F02532B9
:2066C00031050CF488C02D3281E038070CF490CF05C02D32F1E03F070CF47DC080917802DB
:2066E00090917902019729F4253145E034070CF072C00091780210917902000F111FA80156
:2067000060E070E04093A3025093A4026093A5027093A602C90168E270E00E94A73CC901F0
:20672000860F971F0E94A61F9C01D8010E94F83C6093A3027093A4028093A5029093A60295
:2067400060939B0270939C0280939D0290939E020E94601C20919B0230919C0240919D0258
:2067600050919E0288E090E029833A834B835C830E94253EA8EEB3E0A81BB10987FDB39533
:2067800029813A814B815C810E94173D20E137E240E050E00E94BA3C20939B0230939C0242
:2067A00040939D0250939E0287E08093370220939F023093A0024093A1025093A20280916A
:2067C000AD028093AE021092AA021092A9027092AB028092AC0217B818B814B815B824964B
:2067E000EDE00C94C33D282FFC0180E09E2F921B961738F4A191A827B0E0A050BF4F8C9179
:20680000F5CF0895CF93399A0E94780E39980E947D0EC6B10E947A0EC695C17081E08C277B
:20682000CF910895CF93DF93D82FC8E0399AD0FD39980E947C0E3998D6950E94820EC150BC
:20684000A9F73998DF91CF910895CF93DF93D8E0C0E0399AC69539980E94860E3199C06807
:206860000E947C0ED150A9F739988C2FDF91CF910895A0E2B0E0EFE3F4E30C94A23D82EB8B
:2068800094E056DE0E94F7088AEE93E00E94270B84B1846184B985B1846185B981E087B99F
:2068A00018B8712C662463948C8F8E010C5E1F4F5E019CE1A90EB11C90E1C92E97E2D92E20
:2068C000E12CF12C24E6222E312C3AE0832E912C99DF813009F0B3C08CECA4DF84E4A2DFD6
:2068E00091DF8CEC9FDF8EEB9DDFFE013B962F01ACDFF20181932F01E017F107C9F782DF6B
:2069000083E390DF2801A1DFF20181932F01EA15FB05C9F7F1E06F1203C051DC81E08C8F45
:206920000E94FB0868E0CE010B965DDF9B8989136CC05C84652C712C762C66248B85682AF6
