:100000000C94B1090C94CE090C94CE090C94CE0931
:100010000C94CE090C94CE090C94CE090C94FC16C9
:100020000C94CE090C94CE090C94CE090C94FD3896
:100030000C94CE090C94CE090C94CE090C94CE09E4
:100040000C94EB380C94CE090C94CE090C94CE0988
:100050000C94CE090C94CE090C94CE090C94CE09C4
:100060000C94CE090C94CE09050A0605060A050A69
:100070000609060A050A0609060A050A0609060A05
:10008000050A0609060A050A06050A06090A0609F6
:100090000A06000002000002007C02008303C00088
:1000A0000620000920860810461010261008162089
:1000B000080E20FF0720080E2008162010A610109A
:1000C000C61020E608200009C00006008303007C5B
:1000D0000200000200000200000000000200000216
:1000E000007C02008303C0000620000920A608103F
:1000F000661010E610081620080E20FF0720080ED4
:10010000200816201026101046102086082000090E
:10011000C00006008303007C020000020000020011
:100120000000000002000002007C02008303C00007
:100130000620040A20FD0B100510100110084120B4
:1001400008652008FD2308652208412210011210CD
:100150000512FFFD0B20040AC00006008307007C87
:100160000200000200000200000000000200000285
:10017000007C02008303C0000620040AFFFD0B1070
:10018000051010011008212008652008FD230865CE
:100190002208212210011210051220FD0B20040A52
:1001A000C00006008303007C020000020000020081
:1001B0000000000002000002007C02008303C00077
:1001C0000620040A20FD0B1005101005100845201C
:1001D00008652008FD230865220845221005121035
:1001E0000512FFFD0B20040AC00006008307007CF7
:1001F00002000002000002000000000002000002F5
:10020000007C02008303C0000620040AFFFD0B10DF
:10021000051010051008252008652008FD23086535
:100220002208252210051210051220FD0B20040AB9
:10023000C00006008303007C0200000200000200F0
:100240000000000002000002007C02008303C000E6
:100250000620080A20080A10F813100810080820C1
:10026000080820080820080820080920100B10FFA3
:10027000FF13200B0A20090AC00006008303007C3C
:100280000200000200000200000000000200000264
:10029000007C02008303C00006200A0A200B0AFF2C
:1002A000FF13100B10080A2008082008082008086F
:1002B0002008082010081010F81320080A20080A47
:1002C000C00006008303007C020000020000020060
:1002D0000000000002000002007C02008303C00056
:1002E000062000092084081045101025100815204C
:1002F000080D20FF0520080D2008152010A510105E
:10030000C51020E408200009C00006008303007C1B
:1003100002000002000002000000000002000002D3
:10032000007C02008303C0000620000920A40810FE
:10033000651010E510081520080D20FF0520080D98
:1003400020081520102510104510208408200009D1
:10035000C00006008303007C0200000200000200CF
:10036000000000000000100000100000100000104D
:100370000080FF0300FF0100FF0100FE0000FE00FF
:10038000007C00007C000038000038000010008075
:10039000FF03001800001400001200FE11000010FE
:1003A000000010000010000000000000000010001D
:1003B000001000001000001000001000001000F8F5
:1003C000FF3F80E03FC0C11FC0C11FE0830FE0833B
:1003D0000FF00707F00707F80F02F8FF3F80100043
:1003E0004010002010001F1000001000001000003E
:1003F0001000000000001000001000001000FE11AE
:100400000000120000140000180080FF0300FF012C
:1004100000FF0100FE0000FE00007C00007C0000E8
:10042000380000380000100080FF030010000010AA
:100430000000100000100000000000000200000298
:10044000007C02008303C0000620080A3F080A500F
:10045000F813900A10080B20880B20080C200808BD
:100460002008082010081010F81320080A20080A95
:10047000C00006008303007C0200000200000200AE
:100480000000FF01020304050607FFFFFFFFFFFF57
:10049000FFFFFFFFFFFFFFFFFFFFFFFFFFFFFFFF6C
:1004A000FFFF101112131415161718191A1B1C1D13
:1004B0001E1F202122232425262728292A2B2C2DE4
:1004C0002E2F303132333435363738393A3B3C3DD4
:1004D0003E3F404142434445464748494A4B4C4DC4
:1004E0004E4F505152535455565758595A5B5C5DB4
:1004F0005E5F606162636465666768696A6B6C6DA4
:100500006EFFFFFFFFFFFFFFFFFFFFFFFFFFFFFF8C
:10051000FFFFFFFFFFFFFFFFFFFFFFFFFFFFFFFFEB
:10052000FFFFFFFFFFFFFFFFFFFFFFFFFFFFFFFFDB
:10053000FFFF0FFFFFFFFF05FFFFFFFFFFFFFFFFB5
:10054000FFFFFFFFFFFF08FFFFFFFFFFFFFFFFFFB2
:10055000FFFFFFFFFFFFFFFF09FFFFFFFFFF0AFF96
:10056000FF0BFFFFFFFF0CFFFFFFFFFFFFFFFFFF82
:10057000FFFFFFFFFFFFFFFF0DFFFFFFFFFF0EFF6E
:10058000FFFF00000000000000000000000000006D
:10059000000000000000000000000000000000005B
:1005A000000000000000820086008E009E00BE0059
:1005B000FF03BE009E008E00860082000000000047
:1005C0000000000000008200C200E200F200FA0019
:1005D000FF03FA00F200E200C20082000000000007
:1005E0000000000000008601860186018601860168
:1005F00087038601860186018601860100000000CE
:1006000000000000780084000201020102010201E2
:1006100002018400480048004800860100000000F4
:1006200000000000000000000000000082008200C6
:100630008200820082008200C600BA00020002002E
:10064000020000000000FE0302000200020002009F
:1006500003000200020002000200FE03000000008E
:10066000000000000000FF01000100010001000186
:1006700000030001000100010001FF010000000073
:10068000000044000000000010003800280048006E
:1006900044008400FE00020102010102000000008B
:1006A0000000440000000000780084000201020104
:1006B0000201020102010201840078000000000032
:1006C00000004400000000008200820082008200DE
:1006D000820082008200820044003C000000000092
:1006E000000000001C002200220022001200120064
:1006F000120022004200820082007200000000000E
:100700000000000000002400000000003C00400049
:1007100040007800440042006200DC00000000005D
:100720000000000000002400000000003800440029
:100730008200820082008200440038000000000035
:100740000000000000002400000000004200420001
:10075000420042004200420062005C0000000000D3
:100760000000000010002800100000000000000041
:100770000000000000000000000000000000000079
:100780000000000000000000000000000000000069
:100790000000000000000000000000000000000059
:1007A00000000000100010001000100010001000E9
:1007B00010001000100000001000100000000000E9
:1007C0000000000044004400440044000000000019
:1007D0000000000000000000000000000000000019
:1007E000000000009000900048004800FE01480012
:1007F0002400FF0124002400120012000000000069
:1008000000002000F8002C00240024002800300004
:100810006000E000A000A000A4007C002000000018
:10082000000000000E021101910051004E00200056
:100830001000C801280224022202C10100000000A9
:1008400000000000380044004400640038000C0040
:100850001202310221014101C200FC01000000002E
:100860000000000010001000100010000000000048
:100870000000000000000000000000000000000078
:100880000000000080016000300010000800080037
:100890000800080008000800100030006000800117
:1008A000000000000600180030002000400040005A
:1008B00040004000400040002000300018000600CA
:1008C0000000000010001000D6006C002800380066
:1008D00028000000000000000000000000000000F0
:1008E00000000000000000000000000010001000E8
:1008F00010001000FF0110001000100000000000A8
:1009000000000000000000000000000000000000E7
:100910000000000000000000180018001000100087
:1009200008000000000000000000000000000000BF
:100930000000FC00000000000000000000000000BB
:1009400000000000000000000000000000000000A7
:100950000000000000000000180018000000000067
:1009600000000000000180008000400040002000E6
:10097000200010001000080008000400040002001D
:100980000000000038004400440082008200820021
:100990008200820082004400440038000000000011
:1009A0000000000010001E001000100010001000D9
:1009B00010001000100010001000FE0000000000E9
:1009C000000000003E0042004000400040002000C7
:1009D000200010000800040002007E00000000005B
:1009E000000000003C004000400040004000380093
:1009F000400040004000400040003C00000000007B
:100A00000000000020003000280028002400220000
:100A100022002100FF002000200020000000000034
:100A2000000000007C000400040004001C00200002
:100A3000400040004000400020001C00000000007A
:100A40000000000078000400040002003A004600A4
:100A50008200820082008200440038000000000012
:100A600000000000FE008000400020002000100078
:100A70001000080008000800040004000000000046
:100A8000000000007C0082008200820064001800E8
:100A9000640042008200820042003C00000000002E
:100AA00000000000380044008200820082008200C2
:100AB000C400B8008000400040003C00000000007E
:100AC00000000000000000000000000018001800F6
:100AD00000000000000000001800180000000000E6
:100AE00000000000000000000000000018001800D6
:100AF00000000000000000001800180010001000A6
:100B00000800000000000000000000000001C0001C
:100B100030000C000C003000C0000001000000009C
:100B200000000000000000000000000000000000C5
:100B3000FE0100000000FE010000000000000000B7
:100B400000000000000000000000000002000C0097
:100B50003000C000C00030000C00020000000000A7
:100B6000000000007E00C2008200800040002000E3
:100B70001000080008000000080008000000000045
:100B80000000000078008400E200930089008900E2
:100B9000C900C900E900B20346007C000000000063
:100BA000000000000000000010003800280048008D
:100BB00044008400FE000201020101020000000066
:100BC00000000000000000007E0082008200420061
:100BD0003E0042008200820082007E000000000091
:100BE0000000000000000000F80086000200010084
:100BF00001000100010002000600F80000000000F2
:100C000000000000000000003E0042008200820060
:100C1000820082008200820042003E00000000004C
:100C20000000000000000000FE00020002000200C0
:100C300002007E00020002000200FE000000000030
:100C40000000000000000000FE00020002000200A0
:100C500002007E000200020002000200000000000C
:100C60000000000000000000F0010C010400020080
:100C70000200C201020104010C01F00100000000A9
:100C8000000000000000000082008200820082005C
:100C90008200FE00820082008200820000000000CC
:100CA0000000000000000000FE0010001000100016
:100CB00010001000100010001000FE0000000000E6
:100CC00000000000000000007800400040004000EC
:100CD000400040004000400040003C000000000098
:100CE000000000000000000082004200220012000C
:100CF0000E000A00120062008200020100000000E3
:100D000000000000000000000200020002000200DB
:100D100002000200020002000200FE0000000000CB
:100D20000000000000000000C300C300C700A500D1
:100D3000A500AD009900990081008100000000002D
:100D40000000000000000000820086008A008A0087
:100D500092009200A200A200C200820000000000E7
:100D60000000000000000000780084000201020181
:100D7000020102010201020184007800000000006B
:100D800000000000000000007E008200820082005F
:100D900042003E00020002000200020000000000CB
:100DA0000000000000000000780084000201020141
:100DB000020102010201020184007800400080016A
:100DC00000000000000000003E004200420042001F
:100DD00022001E00120022004200820000000000DB
:100DE0000000000000000000FC008200020006007D
:100DF0001800600080008000C2003E00000000007B
:100E00000000000000000000FF01100010001000B2
:100E10001000100010001000100010000000000072
:100E200000000000000000008200820082008200BA
:100E3000820082008200820044003C00000000002A
:100E40000000000000000000010202010201840015
:100E500084004400480048003000300000000000DA
:100E60000000000000000000010201021201320136
:100E700032012A014A01CC00CC00840000000000AD
:100E80000000000000000000010202018400480090
:100E90003000300048008400020101020000000020
:100EA0000000000000000000010202018400440074
:100EB00028001000100010001000100000000000BA
:100EC0000000000000000000FE0100018000400062
:100ED00020001000080004000200FE0100000000D5
:100EE00000000000F80008000800080008000800E2
:100EF0000800080008000800080008000800F800C2
:100F000000000000020004000400080008001000B7
:100F10001000200020004000400080008000000100
:100F2000000000003E0020002000200020002000E3
:100F300020002000200020002000200020003E0093
:100F40000000000020002000300050005800480041
:100F500088008400840002010000000000000000FE
:100F60000000000000000000000000000000000081
:100F7000000000000000000000000000FF0300006F
:100F80000000100020000000000000000000000031
:100F90000000000000000000000000000000000051
:100FA0000000000000000000000000003C004000C5
:100FB00040007800440042006200DC0000000000B5
:100FC0000000000002000200020002007A00460059
:100FD000820082008200820046003A000000000089
:100FE000000000000000000000000000F800040005
:100FF00002000200020002000400F80000000000ED
:10100000000000008000800080008000B800C40064
:101010008200820082008200C400BC000000000048
:1010200000000000000000000000000078008400C4
:101030008200FE00020002000400F8000000000030
:1010400000000000E001180008000800FE01080090
:101050000800080008000800080008000000000060
:10106000000000000000000000000000B800C40004
:101070008200820082008200C400BC008000400028
:101080003C000000020002000200020072008A0020
:101090008600820082008200820082000000000040
:1010A0000000000018001800000000001E001000E2
:1010B00010001000100010001000100000000000D0
:1010C0000000000030003000000000003C00200064
:1010D0002000200020002000200020002000200010
:1010E0001E000000020002000200020082006200F6
:1010F00012000E000A0032004200820000000000D0
:10110000000000003C002000200020002000200003
:10111000200020002000200020002000000000000F
:10112000000000000000000000000000CD003301BE
:101130001101110111011101110111010000000043
:1011400000000000000000000000000072008E009F
:10115000860082008200820082008200000000007F
:101160000000000000000000000000003800440003
:1011700082008200820082004400380000000000EB
:101180000000000000000000000000007A0046009F
:10119000820082008200820046003A0002000200C3
:1011A000020000000000000000000000B800C400C1
:1011B0008200820082008200C400BC0080008000A7
:1011C000800000000000000000000000E400940027
:1011D0008C0004000400040004000400000000006F
:1011E0000000000000000000000000007C00020081
:1011F00002000C003000400042003E0000000000F1
:10120000000000000000000008000800FE000800C8
:1012100008000800080008000800F00000000000B6
:10122000000000000000000000000000420042003A
:10123000420042004200420062005C0000000000E8
:10124000000000000000000000000000010182001A
:101250008200420044002400280018000000000022
:101260000000000000000000000000000102110268
:10127000320132014A014A01CC0084000000000022
:1012800000000000000000000000000002018400D7
:1012900048003000300048008400020100000000D7
:1012A0000000000000000000000000000102020138
:1012B000020184004C00480030003000100008009B
:1012C000070000000000000000000000FE01800098
:1012D00040002000100008000400FE010000000093
:1012E00000000000E00010001000100010001000CE
:1012F00010000C0010001000100010001000E000A2
:10130000000000001000100010001000100010007D
:10131000100010001000100010001000100010004D
:10132000000000001C002000200020002000200001
:101330002000C000200020002000200020001C0011
:10134000000000000000000000000000000000009D
:101350000E023102C1010000000000000000000088
:10136000000011241FBECFEFD8E0DEBFCDBF11E0DB
:10137000A0E0B1E0EEE0FFE702C005900D92A630DC
:10138000B107D9F721E0A6E0B1E001C01D92A33F6B
:10139000B207E1F70E94483C0C94563F0C940000C1
:1013A000B0E0A0E0E6EDF9E00C94B13ED82F162FA6
:1013B000042FC0902C01D0902D0180E00E94251FA9
:1013C00081E00E94251F82E00E94251F8DE30E947C
:1013D000453B80E0E82E81E0F82EC0E0F7018191E6
:1013E00091917F0190932D0180932C018091AD010B
:1013F0008C1799F08091AE018C1789F0802F0E9494
:10140000453BCF5FC33051F7D0922D01C0922C01E4
:10141000CDB7DEB7E8E00C94CD3E8D2FF0CF812F15
:10142000EECFA3E0B0E0E7E1FAE00C94B03EC0906C
:101430002C01D0902D0189836A834B83CE010196C4
:101440007C0110E000E0F701B1907F01BB20D1F0FA
:10145000802F0E94251F8AE30E94453BF801EE0F72
:10146000FF1FE050FF4F8081918190932D01809369
:101470002C018B2D0E94453BD0922D01C0922C0156
:101480000E94411F0F5F1F4F03301105E1F62396A5
:10149000E9E00C94CC3E85E992E00E94161F8EE8AC
:1014A00092E00E944A1F8091AB018F5F8093AB0155
:1014B0000895A4E0B0E0EFE5FAE00C94B73E809127
:1014C0000701813031F585E392E00E94161F0E94EA
:1014D000F41E80910C010E94251F8AE30E94453B67
:1014E0000E94411F80910D0190910E019C0150E0DE
:1014F00040E029833A834B835C8326E54DEF698185
:101500007A818B819C810E94BF1F2496E2E00C941B
:10151000D33E8230D1F70E944B0AF7CFA4E0B0E06F
:10152000E4E9FAE00C94B73E69830E94453B81EE02
:1015300090E00E94161F89810E94453B0E94411F36
:10154000E1E1F1E083819481A581B68124E04281CB
:10155000BC01CD010E94BF1F2496E2E00C94D33E53
:10156000A6E0B0E0E6EBFAE00C94B13E80910A010F
:10157000813009F057C0F090110110E000E081E1E6
:1015800091E09E838D83ED81FE8180818F1509F42A
:10159000A8C00E94251F81EE90E00E94161F8F2D8B
:1015A0000E94251F0115110559F081EE90E00E945F
:1015B000161FF80180818F1509F498C00E94251F1D
:1015C0000E94F41EAD81BE8113968D919D910D9068
:1015D000BC91A02D89839A83AB83BC8324E0ED81E9
:1015E000FE814281BC01CD010E94BF1F0115110582
:1015F00009F47EC00E94411FD80113968D919D91E0
:101600000D90BC91A02D89839A83AB83BC8324E089
:10161000F8014281BC01CD010E94BF1F2696E8E07F
:101620000C94CD3E833009F055C081E1C82E81E095
:10163000D82EA8E1B1E0BE83AD83F6010381148109
:1016400025813681AD81BE8113968D919D910D903E
:10165000BC91A02D89839A83AB83BC83E280ED810A
:10166000FE814281BC01CD010E945A12813011F4E9
:10167000CD80DE808D819E8107969E838D838652EC
:101680009140D9F6B1E1CB16B1E0DB06F1F4E8E127
:10169000F1E0FE83ED830D811E81095F1F4FC016AF
:1016A000D10621F40D811E81025F1F4FED81FE8165
:1016B0008081D801FC908F1509F465CF1196FC90BC
:1016C0008F1509F460CFF1805ECF81E191E09E83B8
:1016D0008D83E1CF08E111E0A1E1B1E0BE83AD83EC
:1016E000E5CFAD81BE8111968C9153CF818166CFBC
:1016F0008D819E810E94B532813009F08FCF0E948A
:10170000411F8091E3019091E401A091E501B09126
:10171000E60128E44091E2017DCFCF92DF92EF9283
:101720000F931F93CF93DF9300D000D000D0CDB79D
:10173000DEB78DE4C82E81E0D82EDE82CD829FE018
:10174000C90ED11CAD81BE8113960D911D912D91B5
:101750003C911697D60113968D919D910D90BC9159
:10176000A02D89839A83AB83BC83ED81FE81E280C7
:10177000D60112964C9169817A818B819C810E945D
:101780005A12813011F4DE82CD82BBE6CB16B1E075
:10179000DB06A9F6ED81FE8180810E94251F8EEE79
:1017A00090E00E94161FAD81BE8111968C910E941F
:1017B000251F0E94F41EAD81BE8113968D919D91CF
:1017C0000D90BC91A02D89839A83AB83BC8326E4C2
:1017D000ED81FE814281BC01CD010E94BF1F8D8140
:1017E0009E810E94AC246C01019679F00E94411FF9
:1017F000C601B0E0A0E089839A83AB83BC8324E078
:101800004EEFB601CD010E94BF1FED81FE818385A1
:101810009485A585B685892B8A2B8B2B91F083E146
:1018200091E00E94571FAD81BE811B968D919D91C5
:101830000D90BC91A02D21E448EFBC01CD010E9488
:10184000BF1F26960FB6F894DEBF0FBECDBFDF9147
:10185000CF911F910F91EF90DF90CF900895EF926D
:101860000F931F93CF93DF9300D000D000D0CDB75C
:10187000DEB78E839D838091BB019091BC01A091C6
:10188000BD01B091BE0127EFE22E02E310E020E09F
:1018900030E04091BF01BC01CD010E945A1287FD8A
:1018A00013C08E819D810E94571F8091BB01909132
:1018B000BC01A091BD01B091BE0121E44091BF01E6
:1018C000BC01CD010E94BF1F26960FB6F894DEBF63
:1018D0000FBECDBFDF91CF911F910F91EF90089573
:1018E000A4E0B0E0E6E7FCE00C94B73EFC0140E089
:1018F000608181810E94CC28EDE4F1E083819481B4
:10190000A581B68126E44281BC01CD010E94BF1FA2
:101910002496E2E00C94D33EA6E0B0E0E2E9FCE0DD
:101920000C94AF3EC0900B0121E0C2120DC0F090AC
:101930007B0195E0D92E25E0B22E35E0E32E1E8204
:101940001D820AE711E06FC032E0C31222C0E090AE
:101950007A01D090800180917B01F0908101ED149B
:1019600009F492C08F1509F43BC1EF103BC1D816A2
:1019700009F42FC115E0D12E05E0B02E85E0F82E38
:1019800055E0E52ECC24C39440E851E05E834D83BE
:10199000D8CF53E0C51269C000E046E0202F30E008
:1019A000802F1982409FF0011124E558FE4F998144
:1019B000692F70E0891709F451C0469FD001479FF5
:1019C000B00D1124A658BE4F50819C91591348C0A8
:1019D00095E085E09F5F933008F43EC08F5F8330D1
:1019E000C8F1853008F43EC0E98146E0E49FF0018B
:1019F0001124E658FE4FFE83ED8386E0089F8001A8
:101A0000112406581E4F829FF001839FF00D112470
:101A1000E658FE4FF180F3E0EF2EA5E0DA2EB5E0B8
:101A2000BB2ECC24C394F80180810E94251F8AEE2E
:101A300090E00E94161F8F2D0E94251F2D813E8150
:101A4000232B09F447C033E0E312E2C0AF2C83E05C
:101A5000F82E34C0082FA2CF9983A9CF982FBACFE0
:101A60009981B8CF1E821D82C8CF8AEE90E00E9475
:101A7000161F0E94411F80910B01805D0E94453B13
:101A80002696EAE00C94CB3EB82EE5E0AE2ECC24B0
:101A9000C394F2E0FE1508F4B4C00E94251F86EE40
:101AA00090E00E94161F8E2D0E94251FDF2CFE2C19
:101AB00020E831E03E832D830AE711E08AEE90E0D2
:101AC0000E94161FAF10B0C0ED81FE8180810E9480
:101AD000251FEF2CF4E0FB15F0F049E16D2D8B2D67
:101AE0000E945C248130B9F40E94411F22E08CE7FF
:101AF00091E02E1510F480E891E00E94161F8FE30C
:101B00000E94453B0E94F41E61E36D0D81E38B0D45
:101B10000E948E0AC12C87E691E00E94571FF801AF
:101B2000828193819C0150E040E029833A834B837A
:101B30005C8326E54DEF69817A818B819C810E94CF
:101B4000BF1F0E94411F4D815E81452B09F070C06F
:101B5000F801848195818A3F9105C0F488E20E9452
:101B6000453BF801848195819C0150E040E0298348
:101B70003A834B835C8320E040E069817A818B81EA
:101B80009C810E94BF1F89E20E94453B40E0F80112
:101B9000608181810E94191C81E00E9485298DE568
:101BA00091E00E942F0C31E0C3126ACF85E691E0EC
:101BB0000E94571FC8010E94700C4D815E81452B09
:101BC00009F45ECF0E94411F8D819E810E94700C9E
:101BD00057CFAE2C65E0F62E75E0B72EC12C59CF4D
:101BE000BE2CCECE95E0D92E25E0B22E35E0F32ED8
:101BF00045E0E42ECC24C39480E891E09E838D835D
:101C0000A0CEDF2CFA2CE0E8F1E0FE83ED8399CE44
:101C100086EE90E00E94161FEF1409F455CFED8177
:101C2000FE818081FE2C53CFED81FE8181814FCFDB
:101C3000ED81FE81828193819C0150E040E0298307
:101C40003A834B835C8326E54DEF69817A818B81F2
:101C50009C810E94BF1FA7CF8F929F92AF92BF928D
:101C6000EF92FF920F931F93CF93DF93CDB7DEB721
:101C70002B970FB6F894DEBF0FBECDBF8091070142
:101C80002091AF0129873091AD013B871091AE01C2
:101C9000482F4170498380FFF2C0E12EF32EB12E10
:101CA000122F39872B8702E090E8892E91E0992E38
:101CB0008CE192E00E94451FC4010E94161F809192
:101CC000070182FF03C08BE20E94453B0E94F41E85
:101CD00045E463E482E40E94D0096B2D812F0E94C9
:101CE000F929892B59F00E94411F83E40E94453B4A
:101CF000802F0E94453B85E40E94453B49E1698570
:101D00008B850E945C24813049F40E94F41E65E4B6
:101D100082E40E948E0A84E080932E0188E791E09D
:101D20000E94571F8091B7019091B801A091B9010D
:101D3000B091BA018D839E83AF83B88720E040E0E5
:101D4000BC01CD010E94BF1F0E94411F8091B001C4
:101D500080FFA0C085E60E94453B6B8589850E9477
:101D6000F9298C01892B09F49FC084E791E00E9436
:101D7000571FD80112960D90BC91A02DBA87A98744
:101D8000F801248135818090B7019090B801A0902E
:101D9000B901B090BA01F4E68F169104A104B10420
:101DA000A0F0CD01821B930B63E070E00E942B3EFC
:101DB0004AEF84169104A104B10408F06FC089852C
:101DC0009A85861B970B9A878987E985FA85CF01C3
:101DD000B0E0A0E026E54DEF8D839E83AF83B8870A
:101DE000BF01CD010E94BF1F8AE691E00E942F0C27
:101DF00029853A85253F314088F16E2D8F2D0E942F
:101E0000F9298D839E838D819E81009739F1DC01B4
:101E100012968D919C91823C914000F50E94F41E97
:101E200082E40E94453B89810E94453B83E40E94F5
:101E3000453B0E94411FED81FE81828193819C017F
:101E400050E040E029833A834B835C8326E54DEFE5
:101E500069817A818B819C810E94BF1F2B960FB66E
:101E6000F894DEBF0FBECDBFDF91CF911F910F91D0
:101E7000FF90EF90BF90AF909F908F900895EB846C
:101E8000F12EB98452E0598301E08CE7882E81E07D
:101E9000982E0ECF81FF61CF83E65DCFD901A60FCB
:101EA000B71FBA87A98791CF1A8619869DCFA6E05A
:101EB000B0E0EDE5FFE00C94B53E8091AE0160919D
:101EC000AF019091070101E090FF04C0982F862F89
:101ED000692F02E0909106019F3109F48CC015E44E
:101EE00023E429830E94F9298D839E834D815E819D
:101EF000452B59F00E94411F89810E94453B802F4C
:101F00000E94453B812F0E94453B8091070183FD44
:101F10006EC08091B3019091B401892BC1F081E62C
:101F200091E00E94571F8091B3019091B4019C01F0
:101F3000990F440B550B29833A834B835C8326E529
:101F40004DEF69817A818B819C810E945D2084E8BC
:101F500091E00E94571F8091C0019091C101A09112
:101F6000C201B091C30189839A83AB83BC8326E409
:101F70004091C401BC01CD010E94BF1F8091B101FD
:101F80009091B201892BB9F08FE091E00E94571F28
:101F90008091B1019091B2019C0150E040E0298311
:101FA0003A834B835C8324E04EEF69817A818B8195
:101FB0009C810E94BF1F4D815E81452BC1F087E649
:101FC00091E00E94571FAD81BE8112968D919C9128
:101FD0009C0150E040E029833A834B835C8326E5F3
:101FE0004DEF69817A818B819C810E94BF1F26966B
:101FF000E4E00C94D13E13E534E4398373CF0E94BE
:10200000411F8091070180FF08C08EE40E94453B7C
:1020100087E991E00E94161F089580E5F7CF0E949E
:10202000411F8091070182FF05C082E991E00E9473
:10203000161F08958DE891E0FACFA4E0B0E0E3E246
:10204000F0E10C94B73E8091070184FF4FC08FE907
:1020500091E00E94161F8BE991E00E94161F0E94DA
:10206000FF0F8091070184FD0E940F100E94F41E53
:102070008091070148E768E786FD02C043E564E414
:1020800087E40E94D0098091070184FD0E94570FC8
:102090008091070183FF26C087E191E00E942F0C09
:1020A0008091B5019091B601892BE1F085E091E036
:1020B0000E94571F0E94F41E0E94411F8091B5018B
:1020C0009091B6019C01990F440B550B29833A83DB
:1020D0004B835C8326E54DEF69817A818B819C81FE
:1020E0000E945D202496E2E00C94D33E8AE40E9494
:1020F000453BB1CF88E891E00E94161F0E94FF0F78
:102100000E940F100E94F41E45E463E487E40E94DD
:10211000D0090E94570F0895A4E0B0E0E2E9F0E191
:102120000C94B73E80910601823261F588E192E01D
:102130000E94161F0E94F41E43E461E487E40E949B
:10214000D0098091B1019091B201892BB9F08FE64D
:1021500091E00E94571F8091B1019091B2019C01C2
:1021600050E040E029833A834B835C8326E54DEFC2
:1021700069817A818B819C810E94BF1F2496E2E055
:102180000C94D33E82E192E00E94161F0E94F41E3E
:1021900041E362E3D3CFA4E0B0E0E1EDF0E10C94E1
:1021A000B73E8EE092E00E94161F0E94F41E43E4A8
:1021B00061E487E40E94D0098AE591E00E94571FFC
:1021C00080913F01909140019C0150E040E02983C3
:1021D0003A834B835C8326E54DEF69817A818B815D
:1021E0009C810E94BF1F87E691E00E94571F80914B
:1021F0003D0190913E019C0150E040E029833A83EB
:102200004B835C8326E54DEF69817A818B819C81CC
:102210000E94BF1F2496E2E00C94D33EA4E0B0E0FD
:10222000E4E1F1E10C94B73E8EEA91E00E94161FC2
:102230000E94F41E41E362E385E40E94D00982EF2C
:1022400090E00E94571FE1E1F1E083819481A58134
:10225000B68124E04281BC01CD010E94BF1F2496BB
:10226000E2E00C94D33EA5E0B0E0E9E3F1E10C94A8
:10227000B73E88EC8093A10184E00E94941BAC01DE
:102280008B5C984020919E012D83833F914098F56F
:102290002091A6013091A701AFEBB9E00E94863EE4
:1022A0009A0150E040E00E943F3E3093A701209306
:1022B000A6018D81846080939E018EE00E94941B14
:1022C0009093A5018093A40188EC8093A1018EE0F6
:1022D0000E94941B2091DE01820F911D27FD9A958B
:1022E0009093A5018093A40189E18093A101259693
:1022F000E2E00C94D33E2D812B7F20939E01DDCF15
:102300000E94EC3A8FEF97E090932D0180932C017F
:1023100089E092E00E94161FF8940FB6F894A895F1
:1023200080916000886180936000109260000FBE11
:102330005E9883B7817F846083BF83B7816083BFEA
:10234000889583B78E7F83BF0895A4E0B0E0EBEA61
:10235000F1E10C94B73E82E092E00E94451F80912B
:10236000A8019091A9016AE070E00E94173EB0E0D8
:10237000A0E026E54EEFCD010E94BF1F0E94411F45
:102380008091A8019091A9018115A9E19A07A0F473
:1023900080E098EF90932D0180932C0186EF91E0DF
:1023A0000E94161F80EE97E090932D0180932C01E0
:1023B0002496E2E00C94D33E883E9C4148F480EEA3
:1023C0009FEF90932D0180932C018AEF91E0E8CF4D
:1023D00080EE97E090932D0180932C018FEF91E098
:1023E000DFCFA4E0B0E0E7EFF1E10C94B73E85E089
:1023F0000E94941B9C01AEEBBFE00E94863E28EE3B
:1024000033E040E050E00E943F3E2E5D3E4F30936F
:10241000A9012093A80184E68093AA0121153941DE
:1024200050F40E94EC3A0E94A51188EB9BE00E94B8
:1024300095160E9480112496E2E00C94D33ECF9230
:10244000DF92EF92FF92CF93DF9300D000D00F92F4
:10245000CDB7DEB769837A838B839C8381E08D83DC
:102460008AE0C82ED12CE12CF12C89819A81AB8194
:10247000BC810A97A105B10568F48D810F900F907A
:102480000F900F900F90DF91CF91FF90EF90DF9022
:10249000CF90089569817A818B819C81A7019601F3
:1024A0000E943F3E29833A834B835C839D819F5FDB
:1024B0009D83DBCFA6E0B0E0E0E6F2E10C94A83E1D
:1024C0004B015C01342E280139011E2D89829A822C
:1024D000AB82BC8281E08D839AE0C92ED12CE12CA5
:1024E000F12C89819A81AB81BC810A97A105B10544
:1024F00060F549825A826B827C8291E09E838AE0F9
:10250000C82ED12CE12CF12C89819A81AB81BC8120
:102510000A97A105B10548F581149104A104B104FD
:1025200009F450C0411451046104710409F445C018
:102530004D81430DEE80E10EE4160CF45BC0ED819D
:10254000FE814E1559F18FEF45C069817A818B81EB
:102550009C81A70196010E943F3E29833A834B83C9
:102560005C839D819F5F9D83BCCF69817A818B81D4
:102570009C81A70196010E943F3E29833A834B83A9
:102580005C83AE81AF5FAE83BFCFAAE0B0E0A301B2
:1025900092010E949C3E2B013C01FF5F9D81F91737
:1025A000A4F3AE819A17D4F09A1B9983B9818E81D6
:1025B000B80FB9839981E9179CF0481459046A044B
:1025C0007B04C0F081E084149504A604B70408F0ED
:1025D00080E081952696E1E10C94C43E1982E6CF15
:1025E000AAE0B0E0A50194010E949C3E4B015C0171
:1025F000EF5FE0CF81E0EECFCF92DF92EF92FF92DC
:10260000CF93DF93C42FD22F2AE0C22ED12CE12CFE
:10261000F12CCD1307C0DF91CF91FF90EF90DF90A9
:10262000CF900895CD1744F4A70196010E943F3E34
:10263000B901CA01CF5FEDCFAAE0B0E09B01AC01C8
:102640000E949C3EC150E5CFCF93CAB18AB1857F2D
:102650008AB90E94383C99B1892F887093FD82E035
:1026600091FD8160CAB990913701913031F4809326
:1026700036011092370110923901909139012FEFF4
:10268000290F293F18F49F5F9093390190913601EB
:1026900080933601891302C080E028C0282F2927A3
:1026A00020FF2695213031F5990F22E730E002C056
:1026B000359527959A95E2F723708217C9F085E042
:1026C000909138019F5F909338019091370198174E
:1026D00029F091E09093380190933901809337016C
:1026E000909138019430C0F210923801CF91089542
:1026F00084E0E6CF81E080933701CECFB0E0A0E068
:10270000E4E8F3E10C94AA3E7C01062F81E080937B
:102710003701109238018093340180919F0168E75E
:10272000C62ED12C85FD02C0D12CC12C02FF05C0C4
:1027300080919E0180FD4DC00C7F802F8370882E7C
:1027400019F081E00E94B23B32E0932EB12C42E3BB
:10275000A42ED0E0C1E010E0902F9270792E802F4F
:102760008071682E54E1552EE114F10439F093E0A4
:10277000E916F10488F182E0E81AF1084F9939C0AE
:102780008EE190E00E949516D0E0C11127C0C02FC5
:10279000C87011E003FFA5C082E390E00E94951687
:1027A000C4E111E04F990CC08EE190E00E949516B3
:1027B0004F9906C088EC90E00E949516C1E013E0A6
:1027C000C1508AE090E00E949516C111EBCFD0E095
:1027D00088C0F12CE12CB1CFC0E0D0CF4F99D7CF3A
:1027E000DF5FDB3109F47BC08AE090E00E94951640
:1027F000CCCF0E9424138823D1F1BB2099F08117FC
:1028000091F0882019F080E00E94B23B10933301D0
:10281000173611F40E948011812FCDB7DEB7EFE09B
:102820000C94C63E182FB394809139016B2D0E94F1
:10283000FD3D9CE0A90EA80E859DC001112424E059
:10284000969587952A95E1F7282F893270F4869519
:1028500086958695283110F493E0992E9B1007C039
:1028600097E0981B90933401CCCF85E0F7CFBB2045
:1028700021F0809139018A1520F682E090E00E94D3
:102880009516DF5F8D2F68E20E94FD3D911107C014
:102890008091AA018230C8F081508093AA01D83C6F
:1028A00001F5772031F0C130A9F480E00E94B23BFD
:1028B000C2E0C114D10409F48ACF81E0C816D10462
:1028C000D1F091E0C91AD10882CF662041F30E946D
:1028D000F111E5CF81E00E94B23BC1E0EACFC0E058
:1028E00012E080919F0180FF0AC080919F018E7F3E
:1028F00080939F0186CFD0E0C0E017E6F2CFC111F0
:1029000033CF7FCF65E188EB9BE00E947E13089573
:102910000F931F93CF93DF93C82F0DE412E0D3E002
:10292000811103C0D0E004E512E00E94C01CD8175A
:1029300099F00E94EC3AC8010E94161F0E94F41EF2
:102940008EE392E00E94161F0E94C01CD8130AC09A
:1029500088EC90E00E94951681E0DF91CF911F9165
:102960000F91089560E184E690E00E947E13C130EB
:1029700059F7882349F380E0F0CF681310C080EE48
:102980009FEF90932D0180932C018AE20E94453B9A
:1029900080EE97E090932D0180932C0108950E9482
:1029A000411F0895A6E0B0E0E8EDF4E10C94A93EE3
:1029B000782E662E5A0169010FEF080FF0902A0158
:1029C00099249A949F0C8AE30E94453B22E02E832F
:1029D00010E01D829EEF492E4F0C81E0582E5F18AB
:1029E00031E0931204C04E814F5F4E831D81E12E72
:1029F000F12CEE0CFF1CEA0CFB1C812C891438F125
:102A000041E0941209C060912A01809129010E943D
:102A10005C3A8CE30E94453B60E190E080E00E94DC
:102A20007E13813009F48AC0843009F46AC085308D
:102A300009F062C05D81511147C0091508F474C0E6
:102A4000152D170D802F92E09E838D83C9CF62E0F4
:102A5000680D81E00E945C3A51E0951629F06D8185
:102A6000812F880D0E94BD148E81813089F091E004
:102A7000691217C0F701808191810E94161FC1144D
:102A8000D10419F0C6010E94161F80E00E94873A07
:102A900032E0E30EF11C8394081508F0AFCF892CC7
:102AA000ADCFC7010E94323F9C0150E040E0298336
:102AB0003A834B835C8320E040E069817A818B819B
:102AC0009C810E94BF1FDBCF8D818150181330C0C5
:102AD000112389F11D811250E2E0EE83B6CFFD8112
:102AE000FF5FFD83842D810FF81318C0F017C8F421
:102AF0001F5F22E02E8374CF823001F131E03E83EC
:102B00006FCF4D810413EBCF091528F451E05E839C
:102B100010E01D8265CF82E08E83FACF91E09E8324
:102B20005FCFE1E0EE835CCF802FF1E0FE838DCFBD
:102B300021E02E838ACF31E03E8387CF0E94EC3A9A
:102B400084EF91E00E9495168D812696E0E10C9429
:102B5000C53EA9E0B0E0EFEAF5E10C94B63E182FCF
:102B60008FE191E09A83898381E08F838CE191E00A
:102B70009C838B8382E0888789E292E09E838D83A9
:102B800019860E94EC3A8CE692E0123011F087E64A
:102B900092E00E94161F30E020E0AE014F5F5F4FD1
:102BA00061E083E00E94D214FE01E80FF11D67810D
:102BB000662319F0812F0E9427172996E3E00C94D1
:102BC000D23EA4E2B0E0E7EEF5E10C94B73E82EF2E
:102BD00091E09A83898386E0898F86EE91E09C83D9
:102BE0008B8387E08A8F80EE91E09E838D8388E0DF
:102BF0008B8F8EEC91E098878F838AE08C8F81ECAD
:102C000091E09A8789878EE08D8F8CE792E09C8790
:102C10008B8781E08E8F81E792E09E878D8782E0AF
:102C20008F8F8CE692E0988B8F8783E088A387E66E
:102C300092E09A8B898B84E089A38BE592E09C8B50
:102C40008B8B85E08AA38AEA91E09E8B8D8B84E151
:102C50008BA389E292E0988F8F8B1CA20E94EC3AA2
:102C600081E892E00E94161F30E020E0AE014F5F45
:102C70005F4F61E08CE00E94D214FE01E80FF11D6D
:102C8000818DA496E2E00C94D33ECF930E94E1158F
:102C900081508431D8F4E82FF0E0ED58F04C0C94DA
:102CA000803E0E945B1AC82F0E94EC3A8EE292E0AE
:102CB000CC2311F088E892E00E94161FCF9108956E
:102CC0000E943118F0CF82E00E94A9150E94EC3AD0
:102CD000F1CF81E0F9CF0E947717F8CF0E94EC3A4C
:102CE00082EF91E00E94161F26E032E04BE550E0B3
:102CF00062E088E00E94D21490E0880F991F855A04
:102D00009F4F0E94323F0E94D836E0CF0E94C137C9
:102D1000DDCF0E942534DACF0E941339D7CF0E942D
:102D2000E634D4CF0E948011D1CF3091A001B0E021
:102D3000A0E0F3E0880F991FAA1FBB1FFA95D1F7F7
:102D40003630C1F4492F5A2F6B2F77274F5F5F4FD3
:102D50006F4F7F4FE4E0440F551F661F771FEA95C2
:102D6000D1F7481759076A077B07C0F4841B950BF6
:102D7000A60BB70B1092B1001092B20022E0209384
:102D8000B0002093700023B7217F232B23BF0FB601
:102D900007FC30C0789430E0E7E01CC030E0EACFB8
:102DA000A895AC01BD018F3F9105A105B10529F0A2
:102DB00020F04FEF50E060E070E0841B950BA60B15
:102DC000B70B41504093B300E093B1002091B100A4
:102DD000211108C00097A105B10511F7311101C0FB
:102DE000F894089523B7216023BF889523B72E7FD9
:102DF00023BFECCF31E0D0CF1F921FB61F9211241A
:102E00001092B1001F901FBE1F901895E7EDF1E0E2
:102E100088EC90E0918380838CED90E093838283B3
:102E200084E190E0958384838BE286831782108609
:102E300011860895E7EDF1E080E09191890F91E02E
:102E4000E13EF907D1F7811101C081E00895CF92E9
:102E5000DF92EF92FF921F93CF93DF93182F91EDA4
:102E6000E92E92E0F92E623021F486ECE82E82E021
:102E7000F82E0E941A178093E101D0E0C0E0C7014C
:102E80008C0F9D1F9E0129523E4F6901123051F552
:102E9000F90160810E94383F2196CB30D10579F746
:102EA0001230C1F0C091E101CC23A1F00E941A17A9
:102EB000C81781F00E94EC3A80E292E00E94161F4F
:102EC0008EE292E00E944A1F80ED97E00E949516E4
:102ED0000E940617DF91CF911F91FF90EF90DF9036
:102EE000CF9008950E942A3FF6018083D5CFA4E0B9
:102EF000B0E0EDE7F7E10C94B73E81E08093260166
:102F00000E94EC3A89E491E00E94451F8091D7012C
:102F10009091D8019C0150E040E029833A834B8393
:102F20005C8324E04FEF69817A818B819C810E94D0
:102F3000BF1F85E491E00E94571F8091D9019091B5
:102F4000DA019C0150E040E029833A834B835C83A3
:102F500024E04FEF69817A818B819C810E94BF1FA1
:102F60008FE291E00E94571F8091DD01282F30E011
:102F700050E040E029833A834B835C8326E444EFAE
:102F800069817A818B819C810E94BF1F8CE291E0D4
:102F90000E94571F8091DB019091DC019C0150E061
:102FA00040E029833A834B835C8324E04EEF6981C0
:102FB0007A818B819C810E94BF1F85E591E00E94F0
:102FC000571F8091A4019091A5019C0150E040E021
:102FD00029833A834B835C8326E54DEF69817A81AF
:102FE0008B819C810E94BF1F88E291E00E94571F45
:102FF0008091A6019091A7019C0150E040E02983B7
:103000003A834B835C8326E54DEF69817A818B811E
:103010009C810E94BF1F80919E0182FF05C00E947B
:10302000411F8AE20E94453B82E291E00E94571FC5
:103030008091DF01282F880F330B440B550B298318
:103040003A834B835C8326E54DEF69817A818B81DE
:103050009C810E945D200E9482142496E2E00C94E0
:10306000D33EACE0B0E0E7E3F8E10C94A73E81E0AA
:103070000E948814882309F41CC2512C412C1A8602
:10308000B12CA12C1986D12CC12C212C912C812C56
:10309000312CF12CE12C10E000E01C861B8662E054
:1030A000762E21E02983662463940E94EC3A81E421
:1030B0000E94453B80E3870D0E94453B0E94411FD3
:1030C00084E0781609F488C1871568F092E07916D3
:1030D00009F46AC0A3E07A1609F4A1C081E0A5C092
:1030E00031E03983E2CFB5E07B1609F49EC126E0DA
:1030F0007212F4CF8FE291E00E94451F82E391E0CB
:103100000E94161F40E060E081E00E94CC28809180
:103110004F01843F91F48091540190915501A09109
:103120005601B091570185369105A105B10528F4E6
:103130009C878B87880E991E339441E060E082E083
:103140000E94CC2880915E01843F89F480916301C4
:1031500090916401A0916501B09166018536910559
:10316000A105B10520F48C01880E991E339442E02C
:1031700061E082E00E94CC2880916D01843F09F0DB
:10318000ADCF8091720190917301A0917401B091C3
:10319000750185369105A105B10508F09FCF7C0129
:1031A000880E991E33949ACF8CE291E00E94451FBD
:1031B00082E391E00E94161F40E060E081E00E94FF
:1031C000191C80E00E94EF208B879C878B859C8553
:1031D0008639910518F4C80ED91E239440E060E0AA
:1031E00082E00E94191C80E00E94EF208C01863949
:1031F000910518F4C80ED91E239440E061E082E0E6
:103200000E94191C80E00E94EF207C0196E9E916DB
:10321000F10408F063CFCE0CDF1C23945FCF80E075
:103220000E94881480E0A4E6A98317B818B814B8DF
:1032300015B8882309F10E94F41E2B853C85C9012D
:10324000B0E0A0E020E040E0BC01CD010E94BF1F43
:103250000E94411FB0E0A0E020E040E0B801CD01B5
:103260000E94BF1F0E94411FB0E0A0E020E040E0AC
:10327000B701CD010E94BF1F3981343671F060E182
:1032800088EE93E00E947E13882339F0823009F0A3
:103290000BC154E6752E84E68983A981AF5FA983AB
:1032A000A63008F402CF7394B6E0B71508F018CF33
:1032B0002FE03212FCC0C4016FE070E00E94173EA4
:1032C0006093DD0131E03D838FE028120CC0C60120
:1032D0006FE070E00E94173E7093DC016093DB01A9
:1032E0009D819F5F9D83A985AF3009F06AC0BA8533
:1032F000BF3009F066C0E5E0F0E0C501BF010E9403
:10330000173E9B01C201BF010E94173E8B018091B5
:10331000A6019091A7016C01CC0CDD1CC80ED91E32
:10332000C901860F971FC81AD90AF12CE12CD901BF
:1033300020EA39E041E050E00E949C3EA70196015E
:103340000E943F3EDA01C9010596A11DB11D843CD2
:1033500029E09207A105B10578F4BC01CD012AE06E
:1033600030E040E050E00E943F3E3093D80120938F
:10337000D7013D813F5F3D83D80120EA39E041E03C
:1033800050E00E949C3EA70196010E943F3EDA0158
:10339000C9010596A11DB11D803F2AE09207A10534
:1033A000B10578F4BC01CD012AE030E040E050E006
:1033B0000E943F3E3093DA012093D9013D813F5F67
:1033C0003D830E94771781E09D81943009F080E071
:1033D0002C96E2E10C94C33E89E491E00E94161F12
:1033E00018B867B865B864B880E00E94071C8B877E
:1033F0009C87B2E0B7B975B874B881E00E94071C29
:103400008C018B859C85800F911FA80EB91E77B803
:1034100020E125B924B982E00E94071C7C01A80E96
:10342000B91E39853D5F398759CE85E491E00E9408
:10343000161F15B868B867B864B88091A601909156
:10344000A7019E838D8380E00E94071CAD81BE8111
:10345000A81BB90BBC87AB87B2E0B8B9B7B924E0F9
:1034600024B90091A6011091A70181E00E94071CD8
:10347000081B190B8B859C85800F911F480E591EC8
:1034800034E038B937B980E184B9E090A601F09012
:10349000A70182E00E94071CE81AF90A4E0C5F1C83
:1034A0009A859D5F9A871ACE94E69983F6CE1D82FF
:1034B0000BCF1D8286CFA7E0B0E0E1E6FAE10C94E5
:1034C000A73E81E00E948814811105C081E0279603
:1034D000E2E10C94C33EF12CE12C10E000E01F82ED
:1034E0001E8221E02D83CC24C39432E0232E48E0B9
:1034F000342E50E2D52E64EF462E66E0562E612C17
:10350000712C78C08D81853009F4F8C0863009F0BF
:1035100089C08DE491E00E94161F25B824B880E090
:103520000E94101C8E839F8335B834B881E00E94BE
:10353000101C8C01D5B8F2C08EE00E94941B8EE066
:103540000E94941B5C0185E591E00E94161F0E9479
:10355000F41EB0E0A0E026E54DEFB501CD010E94DC
:10356000BF1F80E014B815B8882341F10E94F41EF3
:1035700020E040E08E819F81092E000CAA0BBB0B3E
:10358000BC01CD010E945D200E94411F20E040E06F
:10359000C801012E000CAA0BBB0BBC01CD010E947F
:1035A0005D200E94411F20E040E0C7010F2C000C6D
:1035B000AA0BBB0BBC01CD010E945D2094E6C9168D
:1035C00069F060E188EE93E00E947E13882331F079
:1035D000823011F4A4E6AD8384E6C82EC394B5E02E
:1035E000BC1540F42D812F5F2D83273008F06ECF5E
:1035F000CC24C3940E94EC3A84E50E94453B8D8123
:10360000805D0E94453B0E94411F3D81343009F49A
:103610006EC008F077CF323039F03330E9F1313015
:1036200009F48ACF81E09ECF80E491E00E94451F9B
:1036300082E391E00E94161F2091A6013091A7011C
:10364000A0E7B3E00E94863EA30192010E94613E82
:1036500049015A0181E085B995E094B982E00E9460
:10366000101C7C01E818F908A1E1A4B981E00E94CE
:10367000101C8C0108191909B4E0B5B924E124B96A
:1036800080E00E94101C89839A8389819A8188191D
:1036900099099F838E83C6CF8BE391E00E94451FDB
:1036A00082E391E00E94161FA090A601B090A701AE
:1036B000B694A79425B89AE094B982E00E94101CB1
:1036C0007C01EA18FB08A2E2A4B981E00E94101C68
:1036D0008C010A191B0935B8B8E2B4B980E00E9420
:1036E000101C9C012A193B093F832E839BCF80E04D
:1036F0000E94881480E094E6C92E34CF81E591E0E1
:103700000E94161F15B824B880E00E94101C8E83FA
:103710009F8334B881E00E94101C8C01D4B882E0F1
:103720000E94101C7C017ECFA5E0B0E0EAE9FBE13D
:103730000C94B73E8F7080648983898180937C006C
:10374000807C8D838091A3019D81891729F00E943F
:103750003C3CAD81A093A30180917A00806480936A
:103760007A0090917A00892F807496FDFACF20E03C
:1037700030E0A901E091A1018E1700F1BD81B03CBC
:1037800009F040C0A091A401B091A5010E949C3E07
:10379000DC01CB012AE0B695A795979587952A95E8
:1037A000D1F72E2F30E050E040E0BC01CD010E9467
:1037B0003F3EC9012596E2E00C94D33E90917A00F9
:1037C000906490937A0090917A0096FDFCCF60917E
:1037D000780070917900260F371F411D511D8430EC
:1037E00079F42115B4E03B0758F49D81903C41F0F9
:1037F0009091A201913021F4A981A06CA9839DCF61
:103800008F5FB8CFA091A601B091A701BFCFCF9392
:10381000C82F0E94333C8C2F0E94941BCF91089597
:10382000CF93C82F0E94313C8C2F0E94941BCF91C4
:103830000895B0E0A0E0EFE1FCE10C94B13EE62E8B
:10384000042FC5ECD1E0888369834A83C82ED12C2C
:10385000C601875F9F4F0E942A3F8E83F12CC701CC
:10386000875F9F4F0E942A3F8F8310E0C801875FC8
:103870009F4F0E942A3F8887C6018A5F9F4F0E9400
:103880002A3F8987C7018A5F9F4F0E942A3F8A8704
:10389000C8018A5F9F4F0E942A3F8B87C6018D5FB8
:1038A0009F4F0E942A3F8C87C7018D5F9F4F0E94C8
:1038B0002A3F8D87C8018D5F9F4F0E942A3F8E87C8
:1038C000C601805090400E942A3F8F87C7018050D8
:1038D00090400E942A3F888BC801805090400E94EF
:1038E0002A3F898BCDB7DEB7E8E00C94CD3EE5ECFE
:1038F000F1E04581648183810E94191C0895E5EC03
:10390000F1E080818383818184838281858308952E
:1039100093E0961B981B892F0895CF93DF9340E087
:103920000E94191C17B88091CB0185B99091CC01E8
:10393000892B84B98091D4010E94071CEC018091ED
:10394000D5010E94941BAC012091A6013091A701E2
:1039500036952795C9014E978C179D0760F4225E16
:103960003F4FC217D30738F48417950720F481E03E
:103970004217530708F080E014B8DF91CF91089503
:10398000CF9361E080E00E948D1CC82F62E080E050
:103990000E948D1CC80F62E081E00E948D1C8C0F7C
:1039A000CF9108950F931F93CF93DF93D82FC62FF6
:1039B00017B818B814B815B840E00E94191C8091C7
:1039C000D10187B98091D5010E94941B8C0180910F
:1039D000D20187B98091D4010E94941B081719075E
:1039E00028F440E06D2F8C2F0E94191C8091D1018A
:1039F00087B98091CC0184B9C2E38091D5010E943E
:103A0000941B9C01203981E0380740F487B19091E4
:103A1000D201892B87B92832310538F0C15029F0FD
:103A200084E690E00E949516E8CF17B814B8DF91AD
:103A3000CF911F910F910895A6E0B0E0E2E2FDE181
:103A40000C94AC3E17B818B815B88FE384B980E071
:103A50000E94941B9A83898381E00E94941B9C831B
:103A60008B8382E00E94941B9E838D83C12C12E085
:103A700008E2DD24D394AA24A394B12C1F5F133051
:103A800009F410E0812E912C8C2D90E0012E02C0C3
:103A9000959587950A94E2F780FDF0CF812F0E94DB
:103AA000941B7C01F401EE0FFF1F21E030E02C0F8E
:103AB0003D1FE20FF31F80819181E816F90670F433
:103AC000F182E082202F2D19330B243131051CF4B3
:103AD0000B3E08F40C5EDD24D39408C03AE0E316F4
:103AE000F10418F4083209F400E5D39483E0E816F1
:103AF000F104E8F4C501082C01C0880F0A94EAF724
:103B0000C82A27E0C21669F00D15F8F481E0809309
:103B100006018093070110930C01F0920E01E092D0
:103B20000D0114B817B82696EDE00C94C83E90E24B
:103B3000E91693E0F90628F777B0C4018D5F9F4F2F
:103B40000E942A3F782A77B8DCCFA89582E390E0DC
:103B50000E94951693CFCF93C82FC09595B160FF63
:103B600011C0982B95B994B1892B84B963FF0CC00F
:103B70000E94373C84B18C2384B985B18C2385B9EC
:103B8000CF9108959C23EECF0E94323CF3CFB0E05A
:103B9000A0E0EDECFDE10C94B23E9C01613009F433
:103BA00047C0623009F44DC090E080E06330D9F541
:103BB000EBE1F0E00EE110E0C9E1D0E088EC90E04C
:103BC0002817390708F446C0A901481B590BCA0138
:103BD000BE010E94173EDC2ED81A6017110611F0A4
:103BE00008F0B8017727660F771F8F01060F171FA0
:103BF000C8010E94323F7C01C80102960E94323FF8
:103C00009C01E81AF90ADE9CA001DF9C500D1124EA
:103C1000CE0196958795840F951FBE010E94173E91
:103C2000C901860F971FCDB7DEB7E7E00C94CE3EF3
:103C3000EBE6F0E007E010E0C2E3D0E088EE93E0CE
:103C4000BFCFEDE7F0E00CE210E0C9E1D0E08CE29C
:103C500091E0B6CF90E080E0BBCF0F931F93CF935E
:103C6000DF93182F062F80910601813009F478C068
:103C7000A895812F0E94191C15B88091CC0184B998
:103C80008091D10187B988B960E18091CD010E940E
:103C9000AB1D8091D5010E94071CEC01813D934032
:103CA00050F061E18091CD010E94AB1D8091D50162
:103CB0000E94071CEC01C031D10508F056C080916C
:103CC0000801811141C08091CC0184B915B880915F
:103CD000D10187B988B90E94333C8091CC01909181
:103CE000CD01892B84B9802F0E94071C8F359D4000
:103CF00020F0BE0182E00E94832C80910801811196
:103D000023C08091D20187B918B88091CB019091DE
:103D1000CD01892B84B985B9812F0E94071C80347D
:103D2000964060F40E943E30811108C080910601E7
:103D3000813221F0BE0181E00E94832C8091080134
:103D4000811102C00E942E3180910601882311F05A
:103D50008A3001F50E94B62117B818B814B815B802
:103D6000DF91CF911F910F910895809108018111EA
:103D700003C0CE010E94682E80910801C13D93E0EE
:103D8000D90708F49CCF811102C00E94DD300E9447
:103D90000C2ADACF8F3101F78091070184FFDCCF45
:103DA0000E940D2BD9CF809109018823E1F09091D9
:103DB000080190FD18C091FD04C0909106019E314C
:103DC00090F48093060180913A018093AD01809137
:103DD0003B018093AE0180913C018093AF018091C3
:103DE000100180930F010895CF9360912801809175
:103DF0002A01861319C0C0912601C0FD0E948214B9
:103E0000C1FF0EC0C0912A01C23028F462E081E0F7
:103E10000E945C3A07C08C2F0E94873AC150F4CFB1
:103E20000E94EC3ACF9108956F5FF1CFCF93DF936B
:103E3000EC01CE010E942A3F811103C0DF91CF9196
:103E400008950E94453B2196F4CF0F931F93CF9383
:103E5000DF93C6E2D1E00E811F81E82FF0E0EE0F84
:103E6000FF1FE050FF4F208131813F832E838F5C05
:103E70000E94453B1F830E83DF91CF911F910F91CD
:103E8000089580E20E94453B08950E94161F0E94FB
:103E9000411F0895CF93DF93D82FC92F0E94F41E9E
:103EA0008D2F9C2F0E94161FDF91CF910895CF93E5
:103EB000DF93D82FC92F0E94F41E8D2F9C2F0E94B4
:103EC000161F0E94411FDF91CF91089582E00E944A
:103ED000873A62E081E00E945C3A0895CF92DF92D7
:103EE000FF920F931F93CF93DF93C42F122F2AE0DB
:103EF00041E451E00E94DE3E81E491E0FC0101904A
:103F00000020E9F7CF0182549140F82ED4E6CC236B
:103F100039F08C17C8F0D82FDC1BC817B9F0C0E0F7
:103F200081E4C82E81E0D82E00E00F1115C01123C6
:103F300019F0812F0E94453BDF91CF911F910F9186
:103F4000FF90DF90CF900895DC2FD81B80E30E9474
:103F5000453BCD2FD0E0E4CF0D1305C08EE20E948B
:103F6000453BC11107C0F60181916F010E94453B9D
:103F70000F5FDBCF80E30E94453BC150F2CFA5E04D
:103F8000B0E0E5ECFFE10C94AD3E6B017C014D83AC
:103F9000022F9AE0892E912CA12CB12CA0E1CA16F7
:103FA000A7E2DA06E104F10408F05EC0BD81B13F8A
:103FB0000CF46FC08B2F815F23E0622F0E94093EBB
:103FC0009D83992319F08F5F291B2D83883008F07A
:103FD00061C090E087529F4F0E942A3F182F4AE00D
:103FE00061E471E0C6010E94003F41E451E0FA0142
:103FF00001900020E9F7AF0142545140B42EF42F54
:104000008D81F81BF9831F1664F080E30E94453B05
:104010008EE20E94453B9981992319F080E30E942A
:10402000453BAD81A11102C0BFEFB983E981E150E9
:1040300081E4C82E81E0D82EF12CE12C8E2F082EA1
:10404000000C990B9A838983EB1430F1112319F03A
:10405000812F0E94453B002319F0802F0E94453B91
:104060002596ECE00C94C93ED701C6010596A11D2A
:10407000B11D89839A83AB83BC83BC01CD01A501AB
:1040800094010E943F3E69017A019D819F5F9D835B
:1040900085CF1D8210E0A3CFD6018D916D010E94C6
:1040A000453BE981FA81EE15FF0519F48EE20E9485
:1040B000453BFFEFEF1AFF0AC7CFCF92DF92EF9297
:1040C000FF92CF93DF936B017C01C42FD22FF7FEB9
:1040D0000BC08DE20E94453BF094E094D094C094D4
:1040E000C11CD11CE11CF11C2D2F4C2FC701B601A6
:1040F0000E94BF1FDF91CF91FF90EF90DF90CF9094
:104100000895CF93C82F80910F01E82FEE0FE80F8D
:10411000E60FFF27FF1FE859FF4FE491EE23B1F0B0
:1041200080913101815060913201E1FF04C0909192
:104130002F019F5F890FE2FF04C090913001690F4A
:1041400061500E945C3A8C2F0E94251FCF910895E8
:10415000CF93DF932091300130912A012317C0F5CE
:1041600090912901903118F0280F2317A0F1309376
:1041700028010E94F41E93E082E090933101809325
:10418000320160E08091AD010E94812061E0809168
:10419000AE010E94812062E08091AF010E948120E7
:1041A000C0912C01D0912D0180EE9FEF90932D01B5
:1041B00080932C0160913201809131010E945C3A20
:1041C00080910F010E94C03BD0932D01C0932C0120
:1041D000DF91CF91089520912F01921BCECFA8E0BF
:1041E000B0E0E5EFF0E20C94AD3E182F0E941C1DEC
:1041F00080910601813009F4B6C018B88091D201CF
:1042000087B98091CB0185B984B90E94323C82E0A4
:1042100090E09E838D83C12CD12C76018091D401B6
:10422000A895806C80937C000E943C3C80917A0031
:10423000806480937A0080917A0086FDFCCF04E64A
:10424000812C912C540180917A00806480937A00B3
:1042500080917A0086FDFCCF809178009091790062
:10426000880E991EA11CB11C0E94393C015059F7BF
:10427000A091A401B091A501A50194010E949C3ECA
:1042800069837A838B839C834B015C018AE0B694BB
:10429000A794979487948A95D1F78D819E810197F1
:1042A00079F415B88091D2019091D101892B87B909
:1042B0008C149D04AE04BF0460F090E080E04CC01C
:1042C00081E090E09E838D83750164018091D5012A
:1042D000A7CF2091A6013091A701A4E6B0E00E94EB
:1042E000863E9B01AC012C193D094E095F090E94D5
:1042F0009C3E69837A838B839C83A701960128194E
:1043000039094A095B09A8EEB3E00E949C3E6D831F
:104310007E838F8398872091D9013091DA012057CD
:10432000354E50E040E069817A818B819C810E940A
:104330003F3E6D817E818F8198850E943F3EC901FD
:10434000113051F46091DB017091DC016217730749
:1043500008F0B3CF861B970B20EC2093A30128967F
:10436000ECE00C94C93E90E080E0F9CFA7E0B0E02B
:10437000ECEBF1E20C94A73EA89518B88091D2011D
:1043800087B98091CB0184B985B98091D5010E940C
:10439000071C4C018091D4010E94941B8D839E8345
:1043A00015B88091CE0184B98091D4010E94071C78
:1043B000459758F58091CE0185B98091D4010E942E
:1043C000071C6C018091D10187B988B915B880911B
:1043D000CC0184B98091D4010E94071C2C018091EA
:1043E000D5010E94941B5C018091CF0184B980911A
:1043F000D5010E94071C3C012D813E8120333141B3
:1044000040F452E6C516D10448F02796E2E10C9438
:10441000C33E6CE6C61663E1D606B8F789EAA8166D
:10442000B10408F07BC096E26916710470F3D601FE
:1044300020EF3BE247E050E00E949C3EA091A601A5
:10444000B091A701BE83AD839D012C193D0950E0B9
:1044500040E00E943F3E49015A01AD81BE81A6194C
:10446000B70920EF3BE247E050E00E949C3E6983A1
:104470007A838B839C83930150E040E00E943F3E0F
:10448000BEEDCB16B3E0DB0668F592E0880C991C14
:10449000AA1CBB1C9A95D1F7DA01C901880D991D98
:1044A000AA1DBB1D89839A83AB83BC83BC01CD014C
:1044B00025E030E040E050E00E943F3E225A3E4F6F
:1044C0004F4F5F4FAAE0B0E00E949C3E4B015C0161
:1044D00044E684169104A104B10408F4C4C04FEF6B
:1044E0004D83F8C09EED691693E0790670F482E082
:1044F000220F331F441F551F8A95D1F7D501C401E0
:10450000820F931FA41FB51FCDCF280D391D4A1D43
:104510005B1D5695479537952795D0CFAD81BE81C8
:10452000A815B90508F494C04A145B0408F490C0B7
:104530004091A6015091A7014A175B0719F4119702
:10454000BE83AD832091D9013091DA012057354ED9
:10455000AD81BE81A819B9090E94863EED81FE8118
:104560004E1B5F0B9A0150E040E00E943F3E690104
:104570007A012091D7013091D8012057354ED201D0
:10458000AA19BB090E94863E69837A838B839C8328
:10459000950150E040E00E943F3E8D819E818E3D1E
:1045A0009340E0F4A2E0CC0CDD1CEE1CFF1CAA95AD
:1045B000D1F7DA01C9018C0D9D1DAE1DBF1D898388
:1045C0009A83AB83BC83BC01CD0125E030E040E0A1
:1045D00050E00E943F3E49015A017ACF9EEDA91654
:1045E00093E0B90650F5283FA4E23A07A1E04A0754
:1045F000510570F4F2E0220F331F441F551FFA9546
:10460000D1F7D701C601820F931FA41FB51FD7CFC3
:10461000A9E0B0E00E949C3E9B01AC012C0D3D1D29
:104620004E1D5F1D29833A834B835C83CA01B90108
:104630002AE030E040E050E0CCCF46015701820E46
:10464000931EA41EB51EB694A7949794879440CF4A
:104650003FE8A31632E1B30608F45FC07AE0872E84
:10466000912CA12CB12C81E00E94EF206C01F12C47
:10467000E12CA5019401220F331F441F551F65E053
:1046800086169104A104B10420F4280D391D4A1D99
:104690005B1DAAE0B0E00E949C3E69837A838B8315
:1046A0009C83672B682B692B41F484E690E0A0E0A3
:1046B000B0E089839A83AB83BC8329813A814B81A3
:1046C0005C81C216D306E406F50658F5460157018B
:1046D0003EEF3D8380E097E0F92E90910A01891723
:1046E00018F1843609F491CE933008F08ECE27E08D
:1046F000929FF0011124EF5EFE4F8091C6018083EE
:104700008091C501818383829482A582B6823D8196
:1047100032839F5F90930A0178CE812C912C5401B3
:10472000A2CF5FEF5D83D6CF282E312CF89E90016B
:104730001124D901AF5EBE4F6D012C919091C5013E
:104740002913B6C011962C919091C6012913B0C0BF
:10475000E12C02E010E020E030E04D81C501B40121
:104760000E945A128F3F09F098C0D60113962D91DE
:104770003D914D915C91169729833A834B835C83DD
:1047800002E010E020E030E012964C9169817A81DD
:104790008B819C810E945A128F838F3F59F5F601BD
:1047A0004281FD814F1302C021E02F83F29CC001A2
:1047B000F39C900D1124DC01AF5EBE4F6D0113968A
:1047C0008D919D910D90BC91A02D89839A83AB838F
:1047D000BC83ED8095018401BC01CD010E945A1279
:1047E000BF818B134FC0F60183809480A580B68073
:1047F000F281FD83240135017694679457944794A0
:10480000F29CC001F39C900D11249C012F5E3E4F41
:104810006901D90113968D919D910D90BC91A02DA8
:1048200089839A83AB83BC83ED809501840104194D
:10483000150926093709F6014281BC01CD010E9404
:104840005A1287FD37C095018401040D151D261DE0
:10485000371DD60113968D919D910D90BC91A02D81
:1048600089839A83AB83BC83ED80F6014281BC01CE
:10487000CD010E945A121816ECF0FAE0F0930601EE
:1048800084E62BCFD60113968D929D92AD92BC9269
:104890001697ED811296EC93ADCFC501B40124E1DA
:1048A00030E040E050E00E943F3E29013A01A8CFAD
:1048B0008F5F13CF88EC11CFEF920F931F93CF939D
:1048C000DF9300D000D00F92CDB7DEB749831092AE
:1048D0000A0140E00E94191C0E94B62180910A0141
:1048E0008D838130C1F499819923B1F00091140135
:1048F000109115012091160130911701892F90E038
:10490000B0E0A0E0E090130143E0BC01CD010E94C3
:104910005A12813009F01D828D810F900F900F90F7
:104920000F900F90DF91CF911F910F91EF9008950D
:10493000813138F0815115BC92E094BD87BD81E092
:10494000089580E0089516BC81E085BDA99BFECF47
:1049500015BC82E085BB0895A7E0B0E0E2EBF4E28D
:104960000C94A73E8E839F832E813F81232B51F48D
:104970006FEF7FEF7A83698389819A812796E2E1DD
:104980000C94C33EAE81BF8113968D919D910D9085
:10499000BC91A02D89839A83AB83BC8367EFE62EFD
:1049A0000AE010E020E030E0EE81FF814281BC01AE
:1049B000CD010E945A1287FDDBCF0E941C1D809101
:1049C00006018130A9F2AE81BF8111966C911197D9
:1049D0008C910E94D21C40E0EE81FF816181808138
:1049E0000E94191C0091D4018091D501006C806C4B
:1049F0008D8315BC82E084BD81E287BD18B8009329
:104A00007C000E94323CFFEFF983812C912C5401F1
:104A10008394412C512C3201439490E080E052E386
:104A2000C52ED12C16EDA895C29758F48091D201CD
:104A300087B98091CB0185B984B90E94453C14B8EF
:104A400015B822E3C216D10458F48091D10187B978
:104A50008091CC0185B984B90E94453C14B815B841
:104A60008091D10187B98091CB0185B984B9009338
:104A70007C0010937A0080917A0086FDFCCF109321
:104A80007A0080917A0086FDFCCF209078003090EB
:104A900079003D8130937C0010937A0080917A00F8
:104AA00086FDFCCF10937A000E94413C0E94A32413
:104AB0008091CC0185B984B90E94453C14B880919D
:104AC0007A0086FDFCCFC0907800D090790080916C
:104AD000D20187B98091CC0185B984B96D81609389
:104AE0007C0010937A0080917A0086FDFCCF1093B1
:104AF0007A0080917A0086FDFCCFE0907800F090FB
:104B0000790000937C0010937A0080917A0086FDF2
:104B1000FCCF10937A000E94413C0E94A324809114
:104B2000CB0185B984B90E94453C14B880917A00C4
:104B300086FDFCCF8091780090917900A70170E00C
:104B400060E0420D531D611D711D440E551E661E11
:104B5000771EAC0170E060E04C0D5D1D611D711DA4
:104B6000840E951EA61EB71E79817150798371112E
:104B70005ACF17B815B8481459046A047B0408F0D2
:104B800052C08091D7019091D8012AE0289FD0018E
:104B9000299FB00D1124A501940124193509460956
:104BA00057090E949C3E69837A838B839C83A3016F
:104BB00092010E943F3E8091DB019091DC018217BF
:104BC000930758F4D901A81BB90BBA83A98380ECC9
:104BD0008093A3010E941C1DCFCEAE81BF8113968E
:104BE0006D917D918D919C91169769837A838B83CA
:104BF0009C832AEFE22E08EE13E020E030E01296CC
:104C00004C910E945A12E1E0F0E0FA83E983181611
:104C100014F41A82198229813A813195219531093A
:104C20003A832983D4CF6FEF7FEF7A836983CFCF25
:104C3000A9E0B0E0EEE1F6E20C94AA3E7C0152E07D
:104C4000A52EB12C61E1662E0E941C1D80910601EB
:104C5000813009F41CC118B88091D20187B915B808
:104C600014B88091D4010E94941B6C0110E000E004
:104C70000F5F1F4F662D8091CB010E94AB1D80916D
:104C8000D4010E94941B89839A8329813A81C21698
:104C9000D30608F001C12C193D093A8329830E3748
:104CA000110509F0FFC02B34310530F480E00AC053
:104CB000AA24A394B12CC8CF81E049815A814C32F7
:104CC0005140A0F7A8958111D3CFF2C0480130E040
:104CD00020E08091D4018114910409F0BBC0498186
:104CE0005A812417350708F0BFC05A01A21AB30A27
:104CF000712C55E6A516B10410F493E0792E0E94AC
:104D0000941B6C01862D8071582E09F4B0C00E944E
:104D1000273C8091D4010E94941B8C159D0518F4AA
:104D20004601881A990A93E07912D9C062E0898114
:104D30009A818A0D9B1D0E94C71D9801DC010E946B
:104D4000863E69837A838B839C83552051F0AAE049
:104D5000B0E09B01AC010E949C3E69837A838B8307
:104D60009C8329813A814B815C81283389E838070B
:104D700081E44807510508F47DC0CA01B90128EE55
:104D800033E040E050E00E943F3E29833A834B836A
:104D90005C839AEF9987A8EEB3E029813A814B8131
:104DA0005C810E949C3E6D837E838F83988722E482
:104DB00034E040E050E0511008C06D817E818F8169
:104DC000988520E134E040E050E00E943F3E809131
:104DD000C601F70180838091C50181838985828323
:104DE00089819A81AB81BC8187839087A187B287B3
:104DF00023833483458356838AE0A82EB12CC12CAB
:104E0000D12C2130E5E33E07ECE04E075105A8F533
:104E1000D4010E949C3E28EE33E040E050E00E9426
:104E20003F3E29833A834B835C8363FE03C0F9854D
:104E3000FF5FF98728EF498569817A818B819C81A1
:104E40000E94FC12D7011B966D937D938D939C93CA
:104E50001E9745C031E0831A91080E94941B9C0163
:104E60002C193D09A89535CFB12CA12C46CF0E9415
:104E70002C3C4FCFA7EFA9878ECFCA01B901A6015D
:104E800095010E943F3EB985BF5FB987BACF712CAB
:104E900026C07724739423C01A8219820E37110515
:104EA00009F404CF043F31E0130709F005CFA895BA
:104EB000A981BA81AC32E1E0BE0758F30130110597
:104EC00009F004CFA531B54008F400CF39E0632ED6
:104ED00021E0A216B10409F0EBCE22E0722E872D5C
:104EE0002996EFE00C94C63EA6E0B0E0EAE7F7E2D0
:104EF0000C94AF3E8D839E830E941C1D8091060101
:104F0000813009F447C115B887E087B918B8809196
:104F1000CE0184B980E480937B0084E480BF8091DB
:104F2000D401806480937C0086E080937A000E94A4
:104F30003B3C1092800010928100109285001092EC
:104F4000840087E286BB8091CE0185B980910601FD
:104F50008F3109F0C4C08091D1018095877091E0B4
:104F60009093810087B9F12CE12C86B385FD0CC0AC
:104F700080FFFBCF96BBA8952FEFE21AF20AE0E480
:104F8000EE16E6E0FE0689F71092810090E296BBED
:104F9000C0908600D090870014B820918400309192
:104FA0008500C216D30638F480FF05C081E086BBB9
:104FB000FFEFEF1AFF0A86E980937A0080917B0069
:104FC0008F7B80937B008091D4010E94941B5C01B5
:104FD00015B88091CE0184B981E020E4E21626E084
:104FE000F20608F078C0C601B0E0A0E06701F12C3D
:104FF000E12C7601DD24CC24C82AD92AEA2AFB2A0E
:1050000083E0C816D104E104F10408F46BC092E017
:10501000C91AD108E108F108E8E3CE16E9E8DE068E
:10502000E1E4EE06F10408F45DC0C701B60128EE24
:1050300033E040E050E00E943F3E69017A0117EF03
:105040002091DF018091A4019091A50161E0820F80
:10505000911D27FD9A950E94C71DDC01A7019601AD
:105060000E949C3E20E233E040E050E00E943F3E40
:1050700069017A01143F99F48091DD0190E0B0E07C
:10508000A0E0C12CD12C7601281739074A075B070D
:1050900030F069017A01C81AD90AEA0AFB0A80913C
:1050A000C601ED81FE8180838091C50181831283D9
:1050B0002783308741875287C382D482E582F68274
:1050C000143F91F4F0EACF16F6E8DF06F1E0EF06C0
:1050D000F10498F483E02696EAE00C94CB3E8091AC
:1050E000D2013DCF14EFACCF173FA1F721E2C2169A
:1050F0002EE4D206E104F10468F78091D4010E9405
:10510000941B853D9340C8F714B81092A20180917A
:10511000D4010E94941B89839A8381E08093A20129
:105120008091D4010E94941BAC018091CE0184B97E
:10513000A981BA81A41BB50B8091A4019091A5010E
:105140009E838D83CD0104960997B0F02D813E8119
:105150000E94953E9A0150E040E00E94613E80919D
:10516000DE01820F8093DE01ED81FE81EC0DF11DE9
:10517000C7FCFA95FE83ED8385018D819E81081B16
:10518000190BC801C1968336910508F0A3CF00938F
:10519000DF01A0CF80E09FCFA6E0B0E0E2EDF8E233
:1051A0000C94AE3EF82E962E4D83C42ED12C2FE0BB
:1051B000429FF0011124E35BFE4F1082118284EFC5
:1051C00082831782108611861286138214821582BA
:1051D0001682138614861586168680910601813004
:1051E00009F475C08A3009F476C0692D8F2D0E94AC
:1051F000F929FC01892B09F074C0ED812FE0E29FB1
:10520000F0011124E35BFE4FFA83E98340E0692D4E
:105210008F2D0E94191C89819A810E941826823044
:1052200021F489819A810E9474279091060194311A
:1052300088F48FE08C9DF0018D9DF00D1124E35BCF
:10524000FE4F82819A3009F053C08A3F1CF08BE0F8
:10525000809306010E941C1D17B818B814B815B821
:1052600036C0D5018C918F1104C011969C9199156F
:1052700031F089111EC0F50181818F111AC0D5014D
:1052800013968D919D910D90BC91A02D89839A8349
:10529000AB83BC83E12C0AE010E020E030E0F501B4
:1052A0004281BC01CD010E945A128F3F11F4F3E6F6
:1052B000FE832E812F5F2E8387E0A80EB11C809184
:1052C0000A019E81981768F2943609F48ECF2696CB
:1052D000EBE00C94CA3E81E1A82E81E0B82E1E823C
:1052E000EECF828193818C3D954008F086CFEFCF41
:1052F000853F0CF0ACCF83819481A581B681059761
:10530000A105B10508F0A3CFA5CFCF92DF92EF9210
:10531000FF92CF93DF9300D000D00F92CDB7DEB7CE
:10532000898315B88091CC0184B98091D10187B966
:1053300088B98091D5010E94071CDC01049708F40C
:1053400047C0C090D701D090D801F12CE12CA937EB
:1053500085E0B807B0F18981813099F514B8809162
:10536000D1019091D201892B87B98091D5010E94FA
:10537000941BDC0189EF8D8317B818B814B815B8E1
:1053800020EA36E841E050E00E949C3EA7019601E9
:105390000E943F3E2093BB013093BC014093BD016E
:1053A0005093BE018D818093BF010F900F900F909D
:1053B0000F900F90DF91CF91FF90EF90DF90CF9003
:1053C000089580E9C80E8AE1D81EE11CF11CD2CFF5
:1053D0008091CF0184B98091D5010E94071CDC0126
:1053E00080EFC82E8BE2D82E87E0E82EF12C88EFD4
:1053F000C2CF90910B01EAE7F1E0911104C0F0E017
:10540000E0E0CF0108952081281303C021812617F1
:10541000C1F391503696F1CFB0E0A0E0E2E1FAE2BC
:105420000C94A93EA8950E941C1D80910601813014
:1054300009F498C018B88091D20187B98091D4013D
:105440000E94941B2C018091CE0184B985B961E141
:105450008091CD010E94AB1D8091D4010E94071C58
:105460003C018091CB0184B985B961E18091CD0186
:105470000E94AB1D8091D4010E94071C6C01809199
:10548000D5010E94941B7C010E941C1D8091060185
:10549000813009F467C018B88091D20187B9809132
:1054A000D4010E94941B8C0117B88091D10188B956
:1054B00087B915B88091CF0184B960E18091CD01A1
:1054C0000E94AB1D8091D4010E94071CEC018091C9
:1054D000D5010E94941BC817D90708F448C0C81BFF
:1054E000D90B46018E189F088091CC0184B960E1E8
:1054F0008091CD010E94AB1D8091D4010E94071CB8
:105500005C018091D5010E94941B9C01C501821B06
:10551000930B17B88815990568F57401E20EF31E10
:10552000EA18FB088201E30129EEE21623E0F20605
:10553000C8F4C630D105B0F00C171D0708F50330CC
:10554000110538F0CE01801B910B8C01043611053A
:1055500048F0C832D105B8F0C4018759910989389B
:105560009141E0F1CDB7DEB7E0E10C94C53ED0E06B
:10557000C0E0B7CFEC18FD08E80EF91E4C01D4CFFF
:105580000C1B1D0BE3CF15B88091CC0184B9809121
:10559000D10188B987B98091D5010E94071C8C017F
:1055A0008091CB0184B98091D20188B987B980916B
:1055B000D4010E94071C9C01C80164E170E00E94B4
:1055C000173EC801861B970B8217930728F6060F14
:1055D000171F2017310708F0BFCFC4CF80910601F5
:1055E000882311F08A3019F484E1809306018091B8
:1055F0000B0196E0899FF0011124E658FE4F90912F
:10560000C50190839091C601918393828282D58354
:10561000C4838F5F80930B01A5CF6091AE01809111
:10562000AF019091070190FF03C0962F682F892F3B
:105630000E94F929892B49F0109206011092070166
:10564000809108018E7F809308010895A5E0B0E065
:10565000ECE2FBE20C94AE3E282F2170922E80FFEC
:1056600062C01091CB013091D101398300E1998161
:10567000977099838091D601806480937C000E940A
:105680003C3C2AE02D83C12CD12C7601AA24AA947B
:1056900083E0B82EA895602F8091CD010E94AB1DAC
:1056A0008091D001812B84B9992009F443C086B13F
:1056B00039818323E1F714B980917A008064809363
:1056C0007A0080917A0086FDFCCF809178009091DD
:1056D00079009920A1F1C80ED91EE11CF11C3D8171
:1056E00031503D833111D6CFC701B6012AE030E0F9
:1056F00040E050E00E94613EA091A601B091A70158
:105700000E949C3E20E034E040E050E00E94613E78
:105710003093B4012093B30180E48093A3012596D4
:10572000EBE00C94CA3E1091CC018091D2018983A8
:1057300001E19DCF86B199818923E1F3BCCF950129
:10574000281B390BC21AD30AE108F108C8CFAAE016
:10575000B0E0EDEAFBE20C94B43EF82E9091CD015E
:1057600021E082139CC08091D10187B988B98091D2
:10577000CC01892B84B995B98091D5010E94071C71
:105780008C018091A6019091A7019A8389838091D1
:10579000D6010E94941BA981BA81A81BB90BBE83B4
:1057A000AD836D817E816115710511F461E070E05A
:1057B000C801861B970B0E94173ECB01B0E0A0E00A
:1057C00089839A83AB83BC832D813E81203131054F
:1057D00008F05DC09091D00131E0F3127AC0809161
:1057E000CC01892B84B995B98091D5010E94071C01
:1057F0008C018091A6019091A7019E838D83809159
:10580000D6010E94941BED81FE81E81BF90BA0914B
:10581000D701B091D801BA87A987D80120EF3BE220
:1058200047E050E00E949C3E6D837E838F83988783
:10583000309711F4E1E0F0E09F0150E040E06D812D
:105840007E818F8198850E943F3EAAE0B0E00E9451
:105850009C3E6D837E838F83988789859A85805748
:10586000954E9C0150E040E06D817E818F8198854E
:105870000E943F3E89819A81AB81BC818217930748
:10588000A407B50720F429833A834B835C8369819D
:105890007A818B819C812A96E5E00C94D03E18B8E1
:1058A0008091D20187B98091CB0185B9892B84B9C8
:1058B0000091A6011091A7018091D4010E94071CBC
:1058C000081B190B8091D6010E94941B8D839E8327
:1058D00068CF8091CB01982B94B90091A6011091CB
:1058E000A7018091D4010E94071C081B190B80910D
:1058F000D6010E94941BFC012091D9013091DA015C
:105900003A8729878ACFAAE0B0E0E9E8FCE20C9464
:10591000A93EF82E6B010E947F1C9091D00121E0DE
:10592000F212F0C08091CB01892B84B985B90E9415
:105930002E3C8091A6019091A7019A838983809142
:10594000D4010E94941BA981BA81A81BB90BBA8704
:10595000A9870091A6011091A7018091D6010E940C
:10596000941BF801E81BF90B0091D9011091DA01A1
:10597000B1E0B98388E49DE02DEF39E02E173F07B1
:1059800008F0FCC0809106018E3109F0D5C08091ED
:105990000701982F9F218460992361F081E0F8121C
:1059A0000BC09091AE018091C501981305C0F09293
:1059B000060182E080930701809108018160809355
:1059C0000801A985BA85CA16DB0620F4AC19BD0901
:1059D000BA87A987A985BA8520EF3BE247E050E066
:1059E0000E949C3E9F0150E040E00E943F3EAAE0A2
:1059F000B0E00E949C3E0057154E980150E040E0F8
:105A00000E943F3E49015A018F2D0E94A72B462F2D
:105A1000572FBC0184169506A606B70608F092C05B
:105A20004A015C01B2E0BD834090B7015090B801DB
:105A30006090B9017090BA018091C70131E040E0F7
:105A40006091C501F31203C0682F8091C6010E94C6
:105A5000CC280E94771C8091070182FF76C00091BC
:105A600050011091510120915201309153018091C8
:105A7000C0019091C101A091C201B091C301E09019
:105A80004F014091C401BC01CD010E945A128130E6
:105A900009F461C08F2D84608093070180E00E942B
:105AA00085298092B7019092B801A092B901B09275
:105AB000BA019D819093B001809150019091510164
:105AC000A0915201B09153018093C0019093C10104
:105AD000A093C201B093C30180914F018093C40190
