:100000000C94B1090C94CE090C94CE090C94CE0931
:100010000C94CE090C94CE090C94CE090C94CA16FB
:100020000C94CE090C94CE090C94CE090C94C538CE
:100030000C94CE090C94CE090C94CE090C94CE09E4
:100040000C94B3380C94CE090C94CE090C94CE09C0
:100050000C94CE090C94CE090C94CE090C94CE09C4
:100060000C94CE090C94CE09050A0605060A050A69
:100070000609060A050A0609060A050A0609060A05
:10008000050A0609060A050A06050A06090A0609F6
:100090000A06000002000002007C02008303C00088
:1000A0000620000920860810461010261008162089
:1000B000080E20FF0720080E2008162010A610109A
:1000C000C61020E608200009C00006008303007C5B
:1000D0000200000200000200000000000200000216
:1000E000007C02008303C0000620000920A608103F
:1000F000661010E610081620080E20FF0720080ED4
:10010000200816201026101046102086082000090E
:10011000C00006008303007C020000020000020011
:100120000000000002000002007C02008303C00007
:100130000620040A20FD0B100510100110084120B4
:1001400008652008FD2308652208412210011210CD
:100150000512FFFD0B20040AC00006008307007C87
:100160000200000200000200000000000200000285
:10017000007C02008303C0000620040AFFFD0B1070
:10018000051010011008212008652008FD230865CE
:100190002208212210011210051220FD0B20040A52
:1001A000C00006008303007C020000020000020081
:1001B0000000000002000002007C02008303C00077
:1001C0000620040A20FD0B1005101005100845201C
:1001D00008652008FD230865220845221005121035
:1001E0000512FFFD0B20040AC00006008307007CF7
:1001F00002000002000002000000000002000002F5
:10020000007C02008303C0000620040AFFFD0B10DF
:10021000051010051008252008652008FD23086535
:100220002208252210051210051220FD0B20040AB9
:10023000C00006008303007C0200000200000200F0
:100240000000000002000002007C02008303C000E6
:100250000620080A20080A10F813100810080820C1
:10026000080820080820080820080920100B10FFA3
:10027000FF13200B0A20090AC00006008303007C3C
:100280000200000200000200000000000200000264
:10029000007C02008303C00006200A0A200B0AFF2C
:1002A000FF13100B10080A2008082008082008086F
:1002B0002008082010081010F81320080A20080A47
:1002C000C00006008303007C020000020000020060
:1002D0000000000002000002007C02008303C00056
:1002E000062000092084081045101025100815204C
:1002F000080D20FF0520080D2008152010A510105E
:10030000C51020E408200009C00006008303007C1B
:1003100002000002000002000000000002000002D3
:10032000007C02008303C0000620000920A40810FE
:10033000651010E510081520080D20FF0520080D98
:1003400020081520102510104510208408200009D1
:10035000C00006008303007C0200000200000200CF
:10036000000000000000100000100000100000104D
:100370000080FF0300FF0100FF0100FE0000FE00FF
:10038000007C00007C000038000038000010008075
:10039000FF03001800001400001200FE11000010FE
:1003A000000010000010000000000000000010001D
:1003B000001000001000001000001000001000F8F5
:1003C000FF3F80E03FC0C11FC0C11FE0830FE0833B
:1003D0000FF00707F00707F80F02F8FF3F80100043
:1003E0004010002010001F1000001000001000003E
:1003F0001000000000001000001000001000FE11AE
:100400000000120000140000180080FF0300FF012C
:1004100000FF0100FE0000FE00007C00007C0000E8
:10042000380000380000100080FF030010000010AA
:100430000000100000100000000000000200000298
:10044000007C02008303C0000620080A3F080A500F
:10045000F813900A10080B20880B20080C200808BD
:100460002008082010081010F81320080A20080A95
:10047000C00006008303007C0200000200000200AE
:100480000000FF01020304050607FFFFFFFFFFFF57
:10049000FFFFFFFFFFFFFFFFFFFFFFFFFFFFFFFF6C
:1004A000FFFF101112131415161718191A1B1C1D13
:1004B0001E1F202122232425262728292A2B2C2DE4
:1004C0002E2F303132333435363738393A3B3C3DD4
:1004D0003E3F404142434445464748494A4B4C4DC4
:1004E0004E4F505152535455565758595A5B5C5DB4
:1004F0005E5F606162636465666768696A6B6C6DA4
:100500006EFFFFFFFFFFFFFFFFFFFFFFFFFFFFFF8C
:10051000FFFFFFFFFFFFFFFFFFFFFFFFFFFFFFFFEB
:10052000FFFFFFFFFFFFFFFFFFFFFFFFFFFFFFFFDB
:10053000FFFF0FFFFFFFFF05FFFFFFFFFFFFFFFFB5
:10054000FFFFFFFFFFFF08FFFFFFFFFFFFFFFFFFB2
:10055000FFFFFFFFFFFFFFFF09FFFFFFFFFF0AFF96
:10056000FF0BFFFFFFFF0CFFFFFFFFFFFFFFFFFF82
:10057000FFFFFFFFFFFFFFFF0DFFFFFFFFFF0EFF6E
:10058000FFFF00000000000000000000000000006D
:10059000000000000000000000000000000000005B
:1005A000000000000000820086008E009E00BE0059
:1005B000FF03BE009E008E00860082000000000047
:1005C0000000000000008200C200E200F200FA0019
:1005D000FF03FA00F200E200C20082000000000007
:1005E0000000000000008601860186018601860168
:1005F00087038601860186018601860100000000CE
:1006000000000000780084000201020102010201E2
:1006100002018400480048004800860100000000F4
:1006200000000000000000000000000082008200C6
:100630008200820082008200C600BA00020002002E
:10064000020000000000FE0302000200020002009F
:1006500003000200020002000200FE03000000008E
:10066000000000000000FF01000100010001000186
:1006700000030001000100010001FF010000000073
:10068000000044000000000010003800280048006E
:1006900044008400FE00020102010102000000008B
:1006A0000000440000000000780084000201020104
:1006B0000201020102010201840078000000000032
:1006C00000004400000000008200820082008200DE
:1006D000820082008200820044003C000000000092
:1006E000000000001C002200220022001200120064
:1006F000120022004200820082007200000000000E
:100700000000000000002400000000003C00400049
:1007100040007800440042006200DC00000000005D
:100720000000000000002400000000003800440029
:100730008200820082008200440038000000000035
:100740000000000000002400000000004200420001
:10075000420042004200420062005C0000000000D3
:100760000000000010002800100000000000000041
:100770000000000000000000000000000000000079
:100780000000000000000000000000000000000069
:100790000000000000000000000000000000000059
:1007A00000000000100010001000100010001000E9
:1007B00010001000100000001000100000000000E9
:1007C0000000000044004400440044000000000019
:1007D0000000000000000000000000000000000019
:1007E000000000009000900048004800FE01480012
:1007F0002400FF0124002400120012000000000069
:1008000000002000F8002C00240024002800300004
:100810006000E000A000A000A4007C002000000018
:10082000000000000E021101910051004E00200056
:100830001000C801280224022202C10100000000A9
:1008400000000000380044004400640038000C0040
:100850001202310221014101C200FC01000000002E
:100860000000000010001000100010000000000048
:100870000000000000000000000000000000000078
:100880000000000080016000300010000800080037
:100890000800080008000800100030006000800117
:1008A000000000000600180030002000400040005A
:1008B00040004000400040002000300018000600CA
:1008C0000000000010001000D6006C002800380066
:1008D00028000000000000000000000000000000F0
:1008E00000000000000000000000000010001000E8
:1008F00010001000FF0110001000100000000000A8
:1009000000000000000000000000000000000000E7
:100910000000000000000000180018001000100087
:1009200008000000000000000000000000000000BF
:100930000000FC00000000000000000000000000BB
:1009400000000000000000000000000000000000A7
:100950000000000000000000180018000000000067
:1009600000000000000180008000400040002000E6
:10097000200010001000080008000400040002001D
:100980000000000038004400440082008200820021
:100990008200820082004400440038000000000011
:1009A0000000000010001E001000100010001000D9
:1009B00010001000100010001000FE0000000000E9
:1009C000000000003E0042004000400040002000C7
:1009D000200010000800040002007E00000000005B
:1009E000000000003C004000400040004000380093
:1009F000400040004000400040003C00000000007B
:100A00000000000020003000280028002400220000
:100A100022002100FF002000200020000000000034
:100A2000000000007C000400040004001C00200002
:100A3000400040004000400020001C00000000007A
:100A40000000000078000400040002003A004600A4
:100A50008200820082008200440038000000000012
:100A600000000000FE008000400020002000100078
:100A70001000080008000800040004000000000046
:100A8000000000007C0082008200820064001800E8
:100A9000640042008200820042003C00000000002E
:100AA00000000000380044008200820082008200C2
:100AB000C400B8008000400040003C00000000007E
:100AC00000000000000000000000000018001800F6
:100AD00000000000000000001800180000000000E6
:100AE00000000000000000000000000018001800D6
:100AF00000000000000000001800180010001000A6
:100B00000800000000000000000000000001C0001C
:100B100030000C000C003000C0000001000000009C
:100B200000000000000000000000000000000000C5
:100B3000FE0100000000FE010000000000000000B7
:100B400000000000000000000000000002000C0097
:100B50003000C000C00030000C00020000000000A7
:100B6000000000007E00C2008200800040002000E3
:100B70001000080008000000080008000000000045
:100B80000000000078008400E200930089008900E2
:100B9000C900C900E900B20346007C000000000063
:100BA000000000000000000010003800280048008D
:100BB00044008400FE000201020101020000000066
:100BC00000000000000000007E0082008200420061
:100BD0003E0042008200820082007E000000000091
:100BE0000000000000000000F80086000200010084
:100BF00001000100010002000600F80000000000F2
:100C000000000000000000003E0042008200820060
:100C1000820082008200820042003E00000000004C
:100C20000000000000000000FE00020002000200C0
:100C300002007E00020002000200FE000000000030
:100C40000000000000000000FE00020002000200A0
:100C500002007E000200020002000200000000000C
:100C60000000000000000000F0010C010400020080
:100C70000200C201020104010C01F00100000000A9
:100C8000000000000000000082008200820082005C
:100C90008200FE00820082008200820000000000CC
:100CA0000000000000000000FE0010001000100016
:100CB00010001000100010001000FE0000000000E6
:100CC00000000000000000007800400040004000EC
:100CD000400040004000400040003C000000000098
:100CE000000000000000000082004200220012000C
:100CF0000E000A00120062008200020100000000E3
:100D000000000000000000000200020002000200DB
:100D100002000200020002000200FE0000000000CB
:100D20000000000000000000C300C300C700A500D1
:100D3000A500AD009900990081008100000000002D
:100D40000000000000000000820086008A008A0087
:100D500092009200A200A200C200820000000000E7
:100D60000000000000000000780084000201020181
:100D7000020102010201020184007800000000006B
:100D800000000000000000007E008200820082005F
:100D900042003E00020002000200020000000000CB
:100DA0000000000000000000780084000201020141
:100DB000020102010201020184007800400080016A
:100DC00000000000000000003E004200420042001F
:100DD00022001E00120022004200820000000000DB
:100DE0000000000000000000FC008200020006007D
:100DF0001800600080008000C2003E00000000007B
:100E00000000000000000000FF01100010001000B2
:100E10001000100010001000100010000000000072
:100E200000000000000000008200820082008200BA
:100E3000820082008200820044003C00000000002A
:100E40000000000000000000010202010201840015
:100E500084004400480048003000300000000000DA
:100E60000000000000000000010201021201320136
:100E700032012A014A01CC00CC00840000000000AD
:100E80000000000000000000010202018400480090
:100E90003000300048008400020101020000000020
:100EA0000000000000000000010202018400440074
:100EB00028001000100010001000100000000000BA
:100EC0000000000000000000FE0100018000400062
:100ED00020001000080004000200FE0100000000D5
:100EE00000000000F80008000800080008000800E2
:100EF0000800080008000800080008000800F800C2
:100F000000000000020004000400080008001000B7
:100F10001000200020004000400080008000000100
:100F2000000000003E0020002000200020002000E3
:100F300020002000200020002000200020003E0093
:100F40000000000020002000300050005800480041
:100F500088008400840002010000000000000000FE
:100F60000000000000000000000000000000000081
:100F7000000000000000000000000000FF0300006F
:100F80000000100020000000000000000000000031
:100F90000000000000000000000000000000000051
:100FA0000000000000000000000000003C004000C5
:100FB00040007800440042006200DC0000000000B5
:100FC0000000000002000200020002007A00460059
:100FD000820082008200820046003A000000000089
:100FE000000000000000000000000000F800040005
:100FF00002000200020002000400F80000000000ED
:10100000000000008000800080008000B800C40064
:101010008200820082008200C400BC000000000048
:1010200000000000000000000000000078008400C4
:101030008200FE00020002000400F8000000000030
:1010400000000000E001180008000800FE01080090
:101050000800080008000800080008000000000060
:10106000000000000000000000000000B800C40004
:101070008200820082008200C400BC008000400028
:101080003C000000020002000200020072008A0020
:101090008600820082008200820082000000000040
:1010A0000000000018001800000000001E001000E2
:1010B00010001000100010001000100000000000D0
:1010C0000000000030003000000000003C00200064
:1010D0002000200020002000200020002000200010
:1010E0001E000000020002000200020082006200F6
:1010F00012000E000A0032004200820000000000D0
:10110000000000003C002000200020002000200003
:10111000200020002000200020002000000000000F
:10112000000000000000000000000000CD003301BE
:101130001101110111011101110111010000000043
:1011400000000000000000000000000072008E009F
:10115000860082008200820082008200000000007F
:101160000000000000000000000000003800440003
:1011700082008200820082004400380000000000EB
:101180000000000000000000000000007A0046009F
:10119000820082008200820046003A0002000200C3
:1011A000020000000000000000000000B800C400C1
:1011B0008200820082008200C400BC0080008000A7
:1011C000800000000000000000000000E400940027
:1011D0008C0004000400040004000400000000006F
:1011E0000000000000000000000000007C00020081
:1011F00002000C003000400042003E0000000000F1
:10120000000000000000000008000800FE000800C8
:1012100008000800080008000800F00000000000B6
:10122000000000000000000000000000420042003A
:10123000420042004200420062005C0000000000E8
:10124000000000000000000000000000010182001A
:101250008200420044002400280018000000000022
:101260000000000000000000000000000102110268
:10127000320132014A014A01CC0084000000000022
:1012800000000000000000000000000002018400D7
:1012900048003000300048008400020100000000D7
:1012A0000000000000000000000000000102020138
:1012B000020184004C00480030003000100008009B
:1012C000070000000000000000000000FE01800098
:1012D00040002000100008000400FE010000000093
:1012E00000000000E00010001000100010001000CE
:1012F00010000C0010001000100010001000E000A2
:10130000000000001000100010001000100010007D
:10131000100010001000100010001000100010004D
:10132000000000001C002000200020002000200001
:101330002000C000200020002000200020001C0011
:10134000000000000000000000000000000000009D
:101350000E023102C1010000000000000000000088
:10136000000011241FBECFEFD8E0DEBFCDBF11E0DB
:10137000A0E0B1E0E0EAFEE702C005900D92A630E1
:10138000B107D9F721E0A6E0B1E001C01D92A33F6B
:10139000B207E1F70E94113C0C941F3F0C9400002F
:1013A000B0E0A0E0E6EDF9E00C947A3ED82F162FDD
:1013B000042FC0902C01D0902D0180E00E94EA1EE5
:1013C00081E00E94EA1E82E00E94EA1E8DE30E94F4
:1013D0000D3B80E0E82E81E0F82EC0E0F70181911E
:1013E00091917F0190932D0180932C018091AD010B
:1013F0008C1799F08091AE018C1789F0802F0E9494
:101400000D3BCF5FC33051F7D0922D01C0922C011C
:10141000CDB7DEB7E8E00C94963E8D2FF0CF812F4C
:10142000EECFA3E0B0E0E7E1FAE00C94793EC090A3
:101430002C01D0902D0189836A834B83CE010196C4
:101440007C0110E000E0F701B1907F01BB20D1F0FA
:10145000802F0E94EA1E8AE30E940D3BF801EE0FE6
:10146000FF1FE050FF4F8081918190932D01809369
:101470002C018B2D0E940D3BD0922D01C0922C018E
:101480000E94061F0F5F1F4F03301105E1F62396E0
:10149000E9E00C94953E85E992E00E94DB1E8EE81F
:1014A00092E00E940F1F8091AB018F5F8093AB0190
:1014B0000895A4E0B0E0EFE5FAE00C94803E80915E
:1014C0000701813031F585E392E00E94DB1E0E9426
:1014D000B91E80910C010E94EA1E8AE30E940D3B16
:1014E0000E94061F80910D0190910E019C0150E019
:1014F00040E029833A834B835C8326E54DEF698185
:101500007A818B819C810E94841F2496E2E00C9456
:101510009C3E8230D1F70E944B0AF7CFA4E0B0E0A6
:10152000E4E9FAE00C94803E69830E940D3B81EE71
:1015300090E00E94DB1E89810E940D3B0E94061FE5
:10154000E1E1F1E083819481A581B68124E04281CB
:10155000BC01CD010E94841F2496E2E00C949C3EC5
:10156000A6E0B0E0E6EBFAE00C947A3E80910A0146
:10157000813009F057C0F090110110E000E081E1E6
:1015800091E09E838D83ED81FE8180818F1509F42A
:10159000A8C00E94EA1E81EE90E00E94DB1E8F2D03
:1015A0000E94EA1E0115110559F081EE90E00E949B
:1015B000DB1EF80180818F1509F498C00E94EA1E95
:1015C0000E94B91EAD81BE8113968D919D910D90A3
:1015D000BC91A02D89839A83AB83BC8324E0ED81E9
:1015E000FE814281BC01CD010E94841F01151105BD
:1015F00009F47EC00E94061FD80113968D919D911B
:101600000D90BC91A02D89839A83AB83BC8324E089
:10161000F8014281BC01CD010E94841F2696E8E0BA
:101620000C94963E833009F055C081E1C82E81E0CC
:10163000D82EA8E1B1E0BE83AD83F6010381148109
:1016400025813681AD81BE8113968D919D910D903E
:10165000BC91A02D89839A83AB83BC83E280ED810A
:10166000FE814281BC01CD010E942812813011F41B
:10167000CD80DE808D819E8107969E838D838652EC
:101680009140D9F6B1E1CB16B1E0DB06F1F4E8E127
:10169000F1E0FE83ED830D811E81095F1F4FC016AF
:1016A000D10621F40D811E81025F1F4FED81FE8165
:1016B0008081D801FC908F1509F465CF1196FC90BC
:1016C0008F1509F460CFF1805ECF81E191E09E83B8
:1016D0008D83E1CF08E111E0A1E1B1E0BE83AD83EC
:1016E000E5CFAD81BE8111968C9153CF818166CFBC
:1016F0008D819E810E947932813009F08FCF0E94C6
:10170000061F8091E3019091E401A091E501B09161
:10171000E60128E44091E2017DCFCF92DF92EF9283
:101720000F931F93CF93DF9300D000D000D0CDB79D
:10173000DEB78DE4C82E81E0D82EDE82CD829FE018
:10174000C90ED11CAD81BE8113960D911D912D91B5
:101750003C911697D60113968D919D910D90BC9159
:10176000A02D89839A83AB83BC83ED81FE81E280C7
:10177000D60112964C9169817A818B819C810E945D
:101780002812813011F4DE82CD82BBE6CB16B1E0A7
:10179000DB06A9F6ED81FE8180810E94EA1E8EEEB5
:1017A00090E00E94DB1EAD81BE8111968C910E945B
:1017B000EA1E0E94B91EAD81BE8113968D919D9146
:1017C0000D90BC91A02D89839A83AB83BC8326E4C2
:1017D000ED81FE814281BC01CD010E94841F8D817B
:1017E0009E810E9471246C01019679F00E94061F6F
:1017F000C601B0E0A0E089839A83AB83BC8324E078
:101800004EEFB601CD010E94841FED81FE818385DC
:101810009485A585B685892B8A2B8B2B91F083E146
:1018200091E00E941C1FAD81BE811B968D919D9100
:101830000D90BC91A02D21E448EFBC01CD010E9488
:10184000841F26960FB6F894DEBF0FBECDBFDF9182
:10185000CF911F910F91EF90DF90CF900895EF926D
:101860000F931F93CF93DF9300D000D000D0CDB75C
:10187000DEB78E839D838091BB019091BC01A091C6
:10188000BD01B091BE0127EFE22E02E310E020E09F
:1018900030E04091BF01BC01CD010E94281287FDBC
:1018A00013C08E819D810E941C1F8091BB0190916D
:1018B000BC01A091BD01B091BE0121E44091BF01E6
:1018C000BC01CD010E94841F26960FB6F894DEBF9E
:1018D0000FBECDBFDF91CF911F910F91EF90089573
:1018E000A4E0B0E0E6E7FCE00C94803EFC0140E0C0
:1018F000608181810E949028EDE4F1E083819481F0
:10190000A581B68126E44281BC01CD010E94841FDD
:101910002496E2E00C949C3EA6E0B0E0E2E9FCE014
:101920000C94783EC0900B0121E0C2120DC0F090E3
:101930007B0195E0D92E25E0B22E35E0E32E1E8204
:101940001D820AE711E06FC032E0C31222C0E090AE
:101950007A01D090800180917B01F0908101ED149B
:1019600009F492C08F1509F43BC1EF103BC1D816A2
:1019700009F42FC115E0D12E05E0B02E85E0F82E38
:1019800055E0E52ECC24C39440E851E05E834D83BE
:10199000D8CF53E0C51269C000E046E0202F30E008
:1019A000802F1982409FF0011124E558FE4F998144
:1019B000692F70E0891709F451C0469FD001479FF5
:1019C000B00D1124A658BE4F50819C91591348C0A8
:1019D00095E085E09F5F933008F43EC08F5F8330D1
:1019E000C8F1853008F43EC0E98146E0E49FF0018B
:1019F0001124E658FE4FFE83ED8386E0089F8001A8
:101A0000112406581E4F829FF001839FF00D112470
:101A1000E658FE4FF180F3E0EF2EA5E0DA2EB5E0B8
:101A2000BB2ECC24C394F80180810E94EA1E8AEE6A
:101A300090E00E94DB1E8F2D0E94EA1E2D813E81C8
:101A4000232B09F447C033E0E312E2C0AF2C83E05C
:101A5000F82E34C0082FA2CF9983A9CF982FBACFE0
:101A60009981B8CF1E821D82C8CF8AEE90E00E9475
:101A7000DB1E0E94061F80910B01805D0E940D3BC2
:101A80002696EAE00C94943EB82EE5E0AE2ECC24E7
:101A9000C394F2E0FE1508F4B4C00E94EA1E86EE7C
:101AA00090E00E94DB1E8E2D0E94EA1EDF2CFE2C91
:101AB00020E831E03E832D830AE711E08AEE90E0D2
:101AC0000E94DB1EAF10B0C0ED81FE8180810E94BC
:101AD000EA1EEF2CF4E0FB15F0F049E16D2D8B2DA3
:101AE0000E9421248130B9F40E94061F22E08CE775
:101AF00091E02E1510F480E891E00E94DB1E8FE348
:101B00000E940D3B0E94B91E61E36D0D81E38B0DB8
:101B10000E948E0AC12C87E691E00E941C1FF801EA
:101B2000828193819C0150E040E029833A834B837A
:101B30005C8326E54DEF69817A818B819C810E94CF
:101B4000841F0E94061F4D815E81452B09F070C0E5
:101B5000F801848195818A3F9105C0F488E20E9452
:101B60000D3BF801848195819C0150E040E0298380
:101B70003A834B835C8320E040E069817A818B81EA
:101B80009C810E94841F89E20E940D3B40E0F80185
:101B9000608181810E94DE1B81E00E9449298DE5E0
:101BA00091E00E942F0C31E0C3126ACF85E691E0EC
:101BB0000E941C1FC8010E94700C4D815E81452B44
:101BC00009F45ECF0E94061F8D819E810E94700CD9
:101BD00057CFAE2C65E0F62E75E0B72EC12C59CF4D
:101BE000BE2CCECE95E0D92E25E0B22E35E0F32ED8
:101BF00045E0E42ECC24C39480E891E09E838D835D
:101C0000A0CEDF2CFA2CE0E8F1E0FE83ED8399CE44
:101C100086EE90E00E94DB1EEF1409F455CFED81B3
:101C2000FE818081FE2C53CFED81FE8181814FCFDB
:101C3000ED81FE81828193819C0150E040E0298307
:101C40003A834B835C8326E54DEF69817A818B81F2
:101C50009C810E94841FA7CF8F929F92AF92BF92C8
:101C6000EF92FF920F931F93CF93DF93CDB7DEB721
:101C70002B970FB6F894DEBF0FBECDBF8091070142
:101C80002091AF0129873091AD013B871091AE01C2
:101C9000482F4170498380FFF2C0E12EF32EB12E10
:101CA000122F39872B8702E090E8892E91E0992E38
:101CB0008CE192E00E940A1FC4010E94DB1E809109
:101CC000070182FF03C08BE20E940D3B0E94B91EF8
:101CD00045E463E482E40E94D0096B2D812F0E94C9
:101CE000BD29892B59F00E94061F83E40E940D3BF9
:101CF000802F0E940D3B85E40E940D3B49E16985E0
:101D00008B850E942124813049F40E94B91E65E42C
:101D100082E40E948E0A84E080932E0188E791E09D
:101D20000E941C1F8091B7019091B801A091B90148
:101D3000B091BA018D839E83AF83B88720E040E0E5
:101D4000BC01CD010E94841F0E94061F8091B0013A
:101D500080FFA0C085E60E940D3B6B8589850E94AF
:101D6000BD298C01892B09F49FC084E791E00E9472
:101D70001C1FD80112960D90BC91A02DBA87A9877F
:101D8000F801248135818090B7019090B801A0902E
:101D9000B901B090BA01F4E68F169104A104B10420
:101DA000A0F0CD01821B930B63E070E00E94F43D34
:101DB0004AEF84169104A104B10408F06FC089852C
:101DC0009A85861B970B9A878987E985FA85CF01C3
:101DD000B0E0A0E026E54DEF8D839E83AF83B8870A
:101DE000BF01CD010E94841F8AE691E00E942F0C62
:101DF00029853A85253F314088F16E2D8F2D0E942F
:101E0000BD298D839E838D819E81009739F1DC01F0
:101E100012968D919C91823C914000F50E94B91ED2
:101E200082E40E940D3B89810E940D3B83E40E9465
:101E30000D3B0E94061FED81FE81828193819C01F2
:101E400050E040E029833A834B835C8326E54DEFE5
:101E500069817A818B819C810E94841F2B960FB6A9
:101E6000F894DEBF0FBECDBFDF91CF911F910F91D0
:101E7000FF90EF90BF90AF909F908F900895EB846C
:101E8000F12EB98452E0598301E08CE7882E81E07D
:101E9000982E0ECF81FF61CF83E65DCFD901A60FCB
:101EA000B71FBA87A98791CF1A8619869DCFA6E05A
:101EB000B0E0EDE5FFE00C947E3E8091AE016091D4
:101EC000AF019091070101E090FF04C0982F862F89
:101ED000692F02E0909106019F3109F48CC015E44E
:101EE00023E429830E94BD298D839E834D815E81D9
:101EF000452B59F00E94061F89810E940D3B802FBF
:101F00000E940D3B812F0E940D3B8091070183FDB4
:101F10006EC08091B3019091B401892BC1F081E62C
:101F200091E00E941C1F8091B3019091B4019C012B
:101F3000990F440B550B29833A834B835C8326E529
:101F40004DEF69817A818B819C810E94222084E8F7
:101F500091E00E941C1F8091C0019091C101A0914D
:101F6000C201B091C30189839A83AB83BC8326E409
:101F70004091C401BC01CD010E94841F8091B10138
:101F80009091B201892BB9F08FE091E00E941C1F63
:101F90008091B1019091B2019C0150E040E0298311
:101FA0003A834B835C8324E04EEF69817A818B8195
:101FB0009C810E94841F4D815E81452BC1F087E684
:101FC00091E00E941C1FAD81BE8112968D919C9163
:101FD0009C0150E040E029833A834B835C8326E5F3
:101FE0004DEF69817A818B819C810E94841F2696A6
:101FF000E4E00C949A3E13E534E4398373CF0E94F5
:10200000061F8091070180FF08C08EE40E940D3BEF
:1020100087E991E00E94DB1E089580E5F7CF0E94DA
:10202000061F8091070182FF05C082E991E00E94AE
:10203000DB1E08958DE891E0FACFA4E0B0E0E3E282
:10204000F0E10C94803E8091070184FF4FC08FE93E
:1020500091E00E94DB1E8BE991E00E94DB1E0E9452
:10206000FF0F8091070184FD0E940F100E94B91E8E
:102070008091070148E768E786FD02C043E564E414
:1020800087E40E94D0098091070184FD0E94570FC8
:102090008091070183FF26C087E191E00E942F0C09
:1020A0008091B5019091B601892BE1F085E091E036
:1020B0000E941C1F0E94B91E0E94061F8091B5013C
:1020C0009091B6019C01990F440B550B29833A83DB
:1020D0004B835C8326E54DEF69817A818B819C81FE
:1020E0000E9422202496E2E00C949C3E8AE40E9406
:1020F0000D3BB1CF88E891E00E94DB1E0E94FF0FEC
:102100000E940F100E94B91E45E463E487E40E9418
:10211000D0090E94570F0895A4E0B0E0E2E9F0E191
:102120000C94803E80910601823261F588E192E054
:102130000E94DB1E0E94B91E43E461E487E40E9412
:10214000D0098091B1019091B201892BB9F08FE64D
:1021500091E00E941C1F8091B1019091B2019C01FD
:1021600050E040E029833A834B835C8326E54DEFC2
:1021700069817A818B819C810E94841F2496E2E090
:102180000C949C3E82E192E00E94DB1E0E94B91EEC
:1021900041E362E3D3CFA4E0B0E0E1EDF0E10C94E1
:1021A000803E8EE092E00E94DB1E0E94B91E43E456
:1021B00061E487E40E94D0098AE591E00E941C1F37
:1021C00080913F01909140019C0150E040E02983C3
:1021D0003A834B835C8326E54DEF69817A818B815D
:1021E0009C810E94841F87E691E00E941C1F8091C1
:1021F0003D0190913E019C0150E040E029833A83EB
:102200004B835C8326E54DEF69817A818B819C81CC
:102210000E94841F2496E2E00C949C3EA4E0B0E06F
:10222000E4E1F1E10C94803E8EEA91E00E94DB1E35
:102230000E94B91E41E362E385E40E94D00982EF67
:1022400090E00E941C1FE1E1F1E083819481A5816F
:10225000B68124E04281BC01CD010E94841F2496F6
:10226000E2E00C949C3ECF93DF938EE00E94591BDA
:10227000CEE9D1E09F838E8388EC8B838EE00E9431
:10228000591B2091DE01820F911D27FD9A959F8396
:102290008E8389E18B83DF91CF9108950E94B43AB8
:1022A0008FEF97E090932D0180932C0189E092E0CD
:1022B0000E94DB1EF8940FB6F894A89580916000F8
:1022C000886180936000109260000FBE5E9883B7B3
:1022D000817F846083BF83B7816083BF889583B724
:1022E0008E7F83BF0895A4E0B0E0E9E7F1E10C94AC
:1022F000803E82E092E00E940A1F8091A8019091A6
:10230000A9016AE070E00E94E03DB0E0A0E026E5AF
:102310004EEFCD010E94841F0E94061F8091A801EC
:102320009091A9018115A9E19A07A0F480E098EFA6
:1023300090932D0180932C0186EF91E00E94DB1E8B
:1023400080EE97E090932D0180932C012496E2E09B
:102350000C949C3E883E9C4148F480EE9FEF909305
:102360002D0180932C018AEF91E0E8CF80EE97E079
:1023700090932D0180932C018FEF91E0DFCFA4E0AB
:10238000B0E0E5ECF1E10C94803E85E00E94591B41
:102390009C01AEEBBFE00E944F3E28EE33E040E0F0
:1023A00050E00E94083E2E5D3E4F3093A9012093DD
:1023B000A80184E68093AA012115394150F40E94B6
:1023C000B43A0E94731188EB9BE00E9463160E944E
:1023D0004E112496E2E00C949C3ECF92DF92EF9255
:1023E000FF92CF93DF9300D000D00F92CDB7DEB72E
:1023F00069837A838B839C8381E08D838AE0C82EF6
:10240000D12CE12CF12C89819A81AB81BC810A9776
:10241000A105B10568F48D810F900F900F900F907A
:102420000F90DF91CF91FF90EF90DF90CF900895C4
:1024300069817A818B819C81A70196010E94083E67
:1024400029833A834B835C839D819F5F9D83DBCF90
:10245000A6E0B0E0EEE2F2E10C94713E4B015C01CB
:10246000342E280139011E2D89829A82AB82BC82CA
:1024700081E08D839AE0C92ED12CE12CF12C898149
:102480009A81AB81BC810A97A105B10560F54982AB
:102490005A826B827C8291E09E838AE0C82ED12C86
:1024A000E12CF12C89819A81AB81BC810A97A1052D
:1024B000B10548F581149104A104B10409F450C098
:1024C000411451046104710409F445C04D81430D68
:1024D000EE80E10EE4160CF45BC0ED81FE814E153A
:1024E00059F18FEF45C069817A818B819C81A70169
:1024F00096010E94083E29833A834B835C839D8129
:102500009F5F9D83BCCF69817A818B819C81A7016C
:1025100096010E94083E29833A834B835C83AE81F7
:10252000AF5FAE83BFCFAAE0B0E0A30192010E94EB
:10253000653E2B013C01FF5F9D81F917A4F3AE813D
:102540009A17D4F09A1B9983B9818E81B80FB983F9
:102550009981E9179CF0481459046A047B04C0F07F
:1025600081E084149504A604B70408F080E0819506
:102570002696E1E10C948D3E1982E6CFAAE0B0E008
:10258000A50194010E94653E4B015C01EF5FE0CF25
:1025900081E0EECFCF92DF92EF92FF92CF93DF9365
:1025A000C42FD22F2AE0C22ED12CE12CF12CCD1336
:1025B00007C0DF91CF91FF90EF90DF90CF9008950B
:1025C000CD1744F4A70196010E94083EB901CA0143
:1025D000CF5FEDCFAAE0B0E09B01AC010E94653E69
:1025E000C150E5CFCF93CAB18AB1857F8AB90E9425
:1025F000003C99B1892F887093FD82E091FD816044
:10260000CAB990913701913031F48093360110921C
:10261000370110923901909139012FEF290F293F8D
:1026200018F49F5F909339019091360180933601A1
:10263000891302C080E028C0282F292720FF269573
:10264000213031F5990F22E730E002C0359527950A
:102650009A95E2F723708217C9F085E090913801CE
:102660009F5F9093380190913701981729F091E07E
:1026700090933801909339018093370190913801FC
:102680009430C0F210923801CF91089584E0E6CFE3
:1026900081E080933701CECFB0E0A0E0E2E5F3E146
:1026A0000C94733E7C01062F81E0809337011092D9
:1026B00038018093340180919F0168E7C62ED12CA8
:1026C00085FD02C0D12CC12C02FF05C080919E0166
:1026D00080FD4DC00C7F802F8370882E19F081E023
:1026E0000E947A3B32E0932EB12C42E3A42ED0E03C
:1026F000C1E010E0902F9270792E802F8071682EAB
:1027000054E1552EE114F10439F093E0E916F10497
:1027100088F182E0E81AF1084F9939C08EE190E023
:102720000E946316D0E0C11127C0C02FC87011E00D
:1027300003FFA5C082E390E00E946316C4E111E0AC
:102740004F990CC08EE190E00E9463164F9906C02D
:1027500088EC90E00E946316C1E013E0C1508AE06B
:1027600090E00E946316C111EBCFD0E088C0F12C3D
:10277000E12CB1CFC0E0D0CF4F99D7CFDF5FDB31B5
:1027800009F47BC08AE090E00E946316CCCF0E94DF
:10279000F2128823D1F1BB2099F0811791F08820A3
:1027A00019F080E00E947A3B10933301173611F440
:1027B0000E944E11812FCDB7DEB7EFE00C948F3E13
:1027C000182FB394809139016B2D0E94C63D9CE077
:1027D000A90EA80E859DC001112424E09695879529
:1027E0002A95E1F7282F893270F48695869586958B
:1027F000283110F493E0992E9B1007C097E0981BA6
:1028000090933401CCCF85E0F7CFBB2021F08091AD
:1028100039018A1520F682E090E00E946316DF5F9E
:102820008D2F68E20E94C63D911107C08091AA01D8
:102830008230C8F081508093AA01D83C01F57720FE
:1028400031F0C130A9F480E00E947A3BC2E0C114AB
:10285000D10409F48ACF81E0C816D104D1F091E007
:10286000C91AD10882CF662041F30E94BF11E5CF7B
:1028700081E00E947A3BC1E0EACFC0E012E08091A3
:102880009F0180FF0AC080919F018E7F80939F01EE
:1028900086CFD0E0C0E017E6F2CFC11133CF7FCFB3
:1028A00065E188EB9BE00E944C1308950F931F9302
:1028B000CF93DF93C82F0DE412E0D3E0811103C062
:1028C000D0E004E512E00E94851CD81799F00E9420
:1028D000B43AC8010E94DB1E0E94B91E8EE392E04A
:1028E0000E94DB1E0E94851CD8130AC088EC90E071
:1028F0000E94631681E0DF91CF911F910F9108959F
:1029000060E184E690E00E944C13C13059F78823BF
:1029100049F380E0F0CF681310C080EE9FEF9093F2
:102920002D0180932C018AE20E940D3B80EE97E0FE
:1029300090932D0180932C0108950E94061F089505
:10294000A6E0B0E0E6EAF4E10C94723E782E662E42
:102950005A0169010FEF080FF0902A0199249A9407
:102960009F0C8AE30E940D3B22E02E8310E01D8223
:102970009EEF492E4F0C81E0582E5F1831E09312E4
:1029800004C04E814F5F4E831D81E12EF12CEE0C71
:10299000FF1CEA0CFB1C812C891438F141E09412D5
:1029A00009C060912A01809129010E94243A8CE398
:1029B0000E940D3B60E190E080E00E944C1381306A
:1029C00009F48AC0843009F46AC0853009F062C015
:1029D0005D81511147C0091508F474C0152D170DFC
:1029E000802F92E09E838D83C9CF62E0680D81E0E5
:1029F0000E94243A51E0951629F06D81812F880DAF
:102A00000E948B148E81813089F091E0691217C089
:102A1000F701808191810E94DB1EC114D10419F05D
:102A2000C6010E94DB1E80E00E944F3A32E0E30EB6
:102A3000F11C8394081508F0AFCF892CADCFC701E6
:102A40000E94FB3E9C0150E040E029833A834B8387
:102A50005C8320E040E069817A818B819C810E94C7
:102A6000841FDBCF8D818150181330C0112389F171
:102A70001D811250E2E0EE83B6CFFD81FF5FFD8342
:102A8000842D810FF81318C0F017C8F41F5F22E0DF
:102A90002E8374CF823001F131E03E836FCF4D81C0
:102AA0000413EBCF091528F451E05E8310E01D827A
:102AB00065CF82E08E83FACF91E09E835FCFE1E025
:102AC000EE835CCF802FF1E0FE838DCF21E02E835B
:102AD0008ACF31E03E8387CF0E94B43A84EF91E001
:102AE0000E9463168D812696E0E10C948E3EA9E04B
:102AF000B0E0EDE7F5E10C947F3E182F8FE191E017
:102B00009A83898381E08F838CE191E09C838B831E
:102B100082E0888789E292E09E838D8319860E94F5
:102B2000B43A8CE692E0123011F087E692E00E940F
:102B3000DB1E30E020E0AE014F5F5F4F61E083E0DD
:102B40000E94A014FE01E80FF11D6781662319F0B1
:102B5000812F0E94F5162996E3E00C949B3EA4E297
:102B6000B0E0E5EBF5E10C94803E82EF91E09A83D2
:102B7000898386E0898F86EE91E09C838B8387E052
:102B80008A8F80EE91E09E838D8388E08B8F8EEC20
:102B900091E098878F838AE08C8F81EC91E09A870F
:102BA00089878EE08D8F8CE792E09C878B8781E010
:102BB0008E8F81E792E09E878D8782E08F8F8CE6F3
:102BC00092E0988B8F8783E088A387E692E09A8BC8
:102BD000898B84E089A38BE592E09C8B8B8B85E0CD
:102BE0008AA38AEA91E09E8B8D8B84E18BA389E294
:102BF00092E0988F8F8B1CA20E94B43A81E892E0F9
:102C00000E94DB1E30E020E0AE014F5F5F4F61E0CD
:102C10008CE00E94A014FE01E80FF11D818DA496A6
:102C2000E2E00C949C3ECF930E94AF15815084311A
:102C3000D8F4E82FF0E0E45CF04C0C94493E0E949C
:102C4000201AC82F0E94B43A8EE292E0CC2311F0F1
:102C500088E892E00E94DB1ECF9108950E94F6174B
:102C6000F0CF82E00E9477150E94B43AF1CF81E064
:102C7000F9CF0E944517F8CF0E94B43A82EF91E055
:102C80000E94DB1E26E032E04BE550E062E088E087
:102C90000E94A01490E0880F991F855A9F4F0E94B0
:102CA000FB3E0E94A036E0CF0E948937DDCF0E9414
:102CB000ED33DACF0E94DB38D7CF0E94AE34D4CFC9
:102CC0000E944E11D1CF3091A001B0E0A0E0F4E01D
:102CD000880F991FAA1FBB1FFA95D1F73630C1F490
:102CE000492F5A2F6B2F77274F5F5F4F6F4F7F4FC3
:102CF000E4E0440F551F661F771FEA95D1F7481788
:102D000059076A077B07C0F4841B950BA60BB70B0A
:102D10001092B1001092B20022E02093B0002093F4
:102D2000700023B7217F232B23BF0FB607FC30C0D1
:102D3000789430E0E7E01CC030E0EACFA895AC0121
:102D4000BD018F3F9105A105B10529F020F04FEF9E
:102D500050E060E070E0841B950BA60BB70B415070
:102D60004093B300E093B1002091B100211108C05D
:102D70000097A105B10511F7311101C0F89408952C
:102D800023B7216023BF889523B72E7F23BFECCFC5
:102D900031E0D0CF1F921FB61F9211241092B100C4
:102DA0001F901FBE1F901895E7EDF1E088EC90E0B2
:102DB000918380838CED90E09383828384E190E023
:102DC000958384838BE2868317821086118608950B
:102DD000E7EDF1E080E09191890F91E0E13EF907A4
:102DE000D1F7811101C081E00895CF92DF92EF9277
:102DF000FF921F93CF93DF93182F91EDE92E92E06E
:102E0000F92E623021F486ECE82E82E0F82E0E9442
:102E1000E8168093E101D0E0C0E0C7018C0F9D1F50
:102E20009E0129523E4F6901123051F5F90160812E
:102E30000E94013F2196CB30D10579F71230C1F0C5
:102E4000C091E101CC23A1F00E94E816C81781F0DF
:102E50000E94B43A80E292E00E94DB1E8EE292E091
:102E60000E940F1F80ED97E00E9463160E94D41607
:102E7000DF91CF911F91FF90EF90DF90CF90089559
:102E80000E94F33EF6018083D5CFA4E0B0E0EBE4EE
:102E9000F7E10C947E3E81E0809326010E94B43AD3
:102EA00089E491E00E940A1FE7EDF1E080819181C1
:102EB0009C0150E040E029833A834B835C8324E00B
:102EC0004FEF69817A818B819C810E94841F85E408
:102ED00091E00E941C1F8091D9019091DA019C0120
:102EE00050E040E029833A834B835C8324E04FEF3A
:102EF00069817A818B819C810E94841F8FE291E09D
:102F00000E941C1F8091DD01282F30E050E040E03E
:102F100029833A834B835C8326E444EF69817A8179
:102F20008B819C810E94841F8CE291E00E941C1F77
:102F30008091DB019091DC019C0150E040E029830D
:102F40003A834B835C8324E04EEF69817A818B81E5
:102F50009C810E94841F85E591E00E941C1F0EE960
:102F600011E0F801868197819C0150E040E02983BF
:102F70003A834B835C8326E54DEF69817A818B81AF
:102F80009C810E94841F88E291E00E941C1FF8012E
:102F9000808591859C0150E040E029833A834B83F2
:102FA0005C8326E54DEF69817A818B819C810E944B
:102FB000841F82E291E00E941C1F8091DF01282F74
:102FC000880F330B440B550B29833A834B835C8367
:102FD00026E54DEF69817A818B819C810E942220B8
:102FE0000E9450142496E4E00C949A3EACE0B0E0C9
:102FF000ECEFF7E10C94703E81E00E9456148823B8
:1030000009F41CC2512C412C1A86B12CA12C198612
:10301000D12CC12C212C912C812C312CF12CE12C88
:1030200010E000E01C861B8662E0762E21E02983FA
:10303000662463940E94B43A81E40E940D3B80E3CD
:10304000870D0E940D3B0E94061F84E0781609F44C
:1030500088C1871568F092E0791609F46AC0A3E088
:103060007A1609F4A1C081E0A5C031E03983E2CF2E
:10307000B5E07B1609F49EC126E07212F4CF8FE210
:1030800091E00E940A1F82E391E00E94DB1E40E073
:1030900060E081E00E94902880914F01843F91F48C
:1030A0008091540190915501A0915601B091570122
:1030B00085369105A105B10528F49C878B87880E7C
:1030C000991E339441E060E082E00E949028809154
:1030D0005E01843F89F48091630190916401A09125
:1030E0006501B091660185369105A105B10520F411
:1030F0008C01880E991E339442E061E082E00E94C8
:10310000902880916D01843F09F0ADCF80917201CC
:1031100090917301A0917401B0917501853691056C
:10312000A105B10508F09FCF7C01880E991E33944C
:103130009ACF8CE291E00E940A1F82E391E00E9404
:10314000DB1E40E060E081E00E94DE1B80E00E9428
:10315000B4208B879C878B859C858639910518F4D4
:10316000C80ED91E239440E060E082E00E94DE1B7E
:1031700080E00E94B4208C018639910518F4C80EB5
:10318000D91E239440E061E082E00E94DE1B80E0D3
:103190000E94B4207C0196E9E916F10408F063CF9F
:1031A000CE0CDF1C23945FCF80E00E94561480E099
:1031B000A4E6A98317B818B814B815B8882309F17C
:1031C0000E94B91E2B853C85C901B0E0A0E020E03B
:1031D00040E0BC01CD010E94841F0E94061FB0E0A8
:1031E000A0E020E040E0B801CD010E94841F0E94D1
:1031F000061FB0E0A0E020E040E0B701CD010E9452
:10320000841F3981343671F060E188EE93E00E94CA
:103210004C13882339F0823009F00BC154E6752E27
:1032200084E68983A981AF5FA983A63008F402CF21
:103230007394B6E0B71508F018CF2FE03212FCC037
:10324000C4016FE070E00E94E03D6093DD0131E079
:103250003D838FE028120CC0C6016FE070E00E9431
:10326000E03D7093DC016093DB019D819F5F9D8356
:10327000A985AF3009F06AC0BA85BF3009F066C0D1
:10328000E5E0F0E0C501BF010E94E03D9B01C20105
:10329000BF010E94E03D8B018091A6019091A701A2
:1032A0006C01CC0CDD1CC80ED91EC901860F971FFE
:1032B000C81AD90AF12CE12CD90120EA39E041E001
:1032C00050E00E94653EA70196010E94083EDA0187
:1032D000C9010596A11DB11D843C29E09207A105F5
:1032E000B10578F4BC01CD012AE030E040E050E0C7
:1032F0000E94083E3093D8012093D7013D813F5F63
:103300003D83D80120EA39E041E050E00E94653E6B
:10331000A70196010E94083EDA01C9010596A11D88
:10332000B11D803F2AE09207A105B10578F4BC01E8
:10333000CD012AE030E040E050E00E94083E3093AA
:10334000DA012093D9013D813F5F3D830E944517FB
:1033500081E09D81943009F080E02C96E2E10C94AC
:103360008C3E89E491E00E94DB1E18B867B865B80E
:1033700064B880E00E94CC1B8B879C87B2E0B7B911
:1033800075B874B881E00E94CC1B8C018B859C853C
:10339000800F911FA80EB91E77B820E125B924B976
:1033A00082E00E94CC1B7C01A80EB91E39853D5FCE
:1033B000398759CE85E491E00E94DB1E15B868B8C4
:1033C00067B864B88091A6019091A7019E838D8310
:1033D00080E00E94CC1BAD81BE81A81BB90BBC87CD
:1033E000AB87B2E0B8B9B7B924E024B90091A6011F
:1033F0001091A70181E00E94CC1B081B190B8B8543
:103400009C85800F911F480E591E34E038B937B99A
:1034100080E184B9E090A601F090A70182E00E94CB
:10342000CC1BE81AF90A4E0C5F1C9A859D5F9A879F
:103430001ACE94E69983F6CE1D820BCF1D8286CFDD
:10344000A7E0B0E0E6E2FAE10C94703E81E00E9471
:103450005614811105C081E02796E2E10C948C3E60
:10346000F12CE12C10E000E01F821E8221E02D8370
:10347000CC24C39432E0232E48E0342E50E2D52EE3
:1034800064EF462E66E0562E612C712C78C08D813B
:10349000853009F4F8C0863009F089C08DE491E0E8
:1034A0000E94DB1E25B824B880E00E94D51B8E83C5
:1034B0009F8335B834B881E00E94D51B8C01D5B804
:1034C000F2C08EE00E94591B8EE00E94591B5C01E5
:1034D00085E591E00E94DB1E0E94B91EB0E0A0E0ED
:1034E00026E54DEFB501CD010E94841F80E014B8A0
:1034F00015B8882341F10E94B91E20E040E08E817A
:103500009F81092E000CAA0BBB0BBC01CD010E94B0
:1035100022200E94061F20E040E0C801012E000C7E
:10352000AA0BBB0BBC01CD010E9422200E94061FEA
:1035300020E040E0C7010F2C000CAA0BBB0BBC0124
:10354000CD010E94222094E6C91669F060E188EE60
:1035500093E00E944C13882331F0823011F4A4E6EA
:10356000AD8384E6C82EC394B5E0BC1540F42D812C
:103570002F5F2D83273008F06ECFCC24C3940E9498
:10358000B43A84E50E940D3B8D81805D0E940D3B25
:103590000E94061F3D81343009F46EC008F077CFD9
:1035A000323039F03330E9F1313009F48ACF81E03B
:1035B0009ECF80E491E00E940A1F82E391E00E9486
:1035C000DB1E2091A6013091A701A0E7B3E00E9485
:1035D0004F3EA30192010E942A3E49015A0181E017
:1035E00085B995E094B982E00E94D51B7C01E8186A
:1035F000F908A1E1A4B981E00E94D51B8C0108194A
:103600001909B4E0B5B924E124B980E00E94D51BC2
:1036100089839A8389819A81881999099F838E83E6
:10362000C6CF8BE391E00E940A1F82E391E00E94E3
:10363000DB1EA090A601B090A701B694A79425B870
:103640009AE094B982E00E94D51B7C01EA18FB083D
:10365000A2E2A4B981E00E94D51B8C010A191B09C2
:1036600035B8B8E2B4B980E00E94D51B9C012A1994
:103670003B093F832E839BCF80E00E94561480E05D
:1036800094E6C92E34CF81E591E00E94DB1E15B887
:1036900024B880E00E94D51B8E839F8334B881E0DC
:1036A0000E94D51B8C01D4B882E00E94D51B7C01FE
:1036B0007ECFA5E0B0E0EFE5FBE10C94803E8F709B
:1036C00080648983898180937C00807C8D83809154
:1036D000A3019D81891729F00E94043CAD81A0932C
:1036E000A30180917A00806480937A0090917A009F
:1036F000892F807496FDFACF20E030E0A901E09197
:10370000A1018E1700F1BD81B03C09F040C0A0912D
:10371000A401B091A5010E94653EDC01CB012AE025
:10372000B695A795979587952A95D1F72E2F30E0D6
:1037300050E040E0BC01CD010E94083EC901259641
:10374000E2E00C949C3E90917A00906490937A0011
:1037500090917A0096FDFCCF60917800709179008D
:10376000260F371F411D511D843079F42115B4E017
:103770003B0758F49D81903C41F09091A20191301B
:1037800021F4A981A06CA9839DCF8F5FB8CFA091B0
:10379000A601B091A701BFCFCF93C82F0E94FB3BDA
:1037A0008C2F0E94591BCF910895CF93C82F0E9450
:1037B000F93B8C2F0E94591BCF910895B0E0A0E0F7
:1037C000E4EEFBE10C947A3EE62E042FC5ECD1E04A
:1037D000888369834A83C82ED12CC601875F9F4F97
:1037E0000E94F33E8E83F12CC701875F9F4F0E949A
:1037F000F33E8F8310E0C801875F9F4F0E94F33E26
:103800008887C6018A5F9F4F0E94F33E8987C70160
:103810008A5F9F4F0E94F33E8A87C8018A5F9F4F4D
:103820000E94F33E8B87C6018D5F9F4F0E94F33E3F
:103830008C87C7018D5F9F4F0E94F33E8D87C80123
:103840008D5F9F4F0E94F33E8E87C601805090404F
:103850000E94F33E8F87C701805090400E94F33E44
:10386000888BC801805090400E94F33E898BCDB771
:10387000DEB7E8E00C94963EE5ECF1E0458164812A
:1038800083810E94DE1B0895E5ECF1E08081838353
:103890008181848382818583089593E0961B981BA0
:1038A000892F0895CF93DF9340E00E94DE1B17B865
:1038B0008091CB0185B99091CC01892B84B98091FD
:1038C000D4010E94CC1BEC018091D5010E94591BB0
:1038D000AC012091A6013091A70136952795C90129
:1038E0004E978C179D0760F4225E3F4FC217D30797
:1038F00038F48417950720F481E04217530708F045
:1039000080E014B8DF91CF910895CF9361E080E01B
:103910000E94521CC82F62E080E00E94521CC80F17
:1039200062E081E00E94521C8C0FCF9108950F93AA
:103930001F93CF93DF93D82FC62F17B818B814B89A
:1039400015B840E00E94DE1B8091D10187B98091BB
:10395000D5010E94591B8C018091D20187B98091B9
:10396000D4010E94591B0817190728F440E06D2F55
:103970008C2F0E94DE1B8091D10187B98091CC01F0
:1039800084B9C2E38091D5010E94591B9C01203962
:1039900081E0380740F487B19091D201892B87B933
:1039A0002832310538F0C15029F084E690E00E94B9
:1039B0006316E8CF17B814B8DF91CF911F910F911C
:1039C0000895A6E0B0E0E7EEFCE10C94753E17B870
:1039D00018B815B88FE384B980E00E94591B9A8308
:1039E000898381E00E94591B9C838B8382E00E9423
:1039F000591B9E838D83C12C12E008E2DD24D394F1
:103A0000AA24A394B12C1F5F133009F410E0812E77
:103A1000912C8C2D90E0012E02C0959587950A94EB
:103A2000E2F780FDF0CF812F0E94591B7C01F40149
:103A3000EE0FFF1F21E030E02C0F3D1FE20FF31FC0
:103A400080819181E816F90670F4F182E082202FDE
:103A50002D19330B243131051CF40B3E08F40C5E98
:103A6000DD24D39408C03AE0E316F10418F40832D8
:103A700009F400E5D39483E0E816F104E8F4C50105
:103A8000082C01C0880F0A94EAF7C82A27E0C2165A
:103A900069F00D15F8F481E0809306018093070129
:103AA00010930C01F0920E01E0920D0114B817B8BA
:103AB0002696EDE00C94913E90E2E91693E0F9062B
:103AC00028F777B0C4018D5F9F4F0E94F33E782A9C
:103AD00077B8DCCFA89582E390E00E94631693CF7D
:103AE000CF93C82FC09595B160FF11C0982B95B9A1
:103AF00094B1892B84B963FF0CC00E94FF3B84B151
:103B00008C2384B985B18C2385B9CF9108959C23EA
:103B1000EECF0E94FA3BF3CFB0E0A0E0E2E9FDE196
:103B20000C947B3E9C01613009F447C0623009F47B
:103B30004DC090E080E06330D9F5EBE1F0E00EE1BC
:103B400010E0C9E1D0E088EC90E02817390708F4CC
:103B500046C0A901481B590BCA01BE010E94E03DA5
:103B6000DC2ED81A6017110611F008F0B80177277B
:103B7000660F771F8F01060F171FC8010E94FB3EBB
:103B80007C01C80102960E94FB3E9C01E81AF90ADA
:103B9000DE9CA001DF9C500D1124CE0196958795E7
:103BA000840F951FBE010E94E03DC901860F971F3B
:103BB000CDB7DEB7E7E00C94973EEBE6F0E007E028
:103BC00010E0C2E3D0E088EE93E0BFCFEDE7F0E095
:103BD0000CE210E0C9E1D0E08CE291E0B6CF90E0D9
:103BE00080E0BBCF0F931F93CF93DF93182F062F47
:103BF00080910601813009F478C0A895812F0E9438
:103C0000DE1B15B88091CC0184B98091D10187B9B0
:103C100088B960E18091CD010E94701D8091D5012D
:103C20000E94CC1BEC01813D934050F061E18091FA
:103C3000CD010E94701D8091D5010E94CC1BEC012A
:103C4000C031D10508F056C080910801811141C0F2
:103C50008091CC0184B915B88091D10187B988B918
:103C60000E94FB3B8091CC019091CD01892B84B9BE
:103C7000802F0E94CC1B8F359D4020F0BE0182E03A
:103C80000E94472C80910801811123C08091D201AC
:103C900087B918B88091CB019091CD01892B84B957
:103CA00085B9812F0E94CC1B8034964060F40E941D
:103CB0000230811108C080910601813221F0BE01DD
:103CC00081E00E94472C80910801811102C00E946E
:103CD000F23080910601882311F08A3001F50E94AC
:103CE0007B2117B818B814B815B8DF91CF911F9180
:103CF0000F91089580910801811103C0CE010E94A7
:103D00002C2E80910801C13D93E0D90708F49CCF87
:103D1000811102C00E94A1300E94D029DACF8F31D8
:103D200001F78091070184FFDCCF0E94D12AD9CF0F
:103D3000809109018823E1F09091080190FD18C05D
:103D400091FD04C0909106019E3190F4809306018C
:103D500080913A018093AD0180913B018093AE0147
:103D600080913C018093AF018091100180930F01FD
:103D70000895CF936091280180912A01861319C07C
:103D8000C0912601C0FD0E945014C1FF0EC0C09119
:103D90002A01C23028F462E081E00E94243A07C080
:103DA0008C2F0E944F3AC150F4CF0E94B43ACF9169
:103DB00008956F5FF1CFCF93DF93EC01CE010E94A6
:103DC000F33E811103C0DF91CF9108950E940D3B16
:103DD0002196F4CF0F931F93CF93DF93C6E2D1E0E8
:103DE0000E811F81E82FF0E0EE0FFF1FE050FF4F24
:103DF000208131813F832E838F5C0E940D3B1F8386
:103E00000E83DF91CF911F910F91089580E20E9460
:103E10000D3B08950E94DB1E0E94061F0895CF935C
:103E2000DF93D82FC92F0E94B91E8D2F9C2F0E947F
:103E3000DB1EDF91CF910895CF93DF93D82FC92F49
:103E40000E94B91E8D2F9C2F0E94DB1E0E94061F10
:103E5000DF91CF91089582E00E944F3A62E081E0C5
:103E60000E94243A0895CF92DF92FF920F931F93FE
:103E7000CF93DF93C42F122F2AE041E451E00E9438
:103E8000A73E81E491E0FC0101900020E9F7CF0119
:103E900082549140F82ED4E6CC2339F08C17C8F028
:103EA000D82FDC1BC817B9F0C0E081E4C82E81E030
:103EB000D82E00E00F1115C0112319F0812F0E9498
:103EC0000D3BDF91CF911F910F91FF90DF90CF902D
:103ED0000895DC2FD81B80E30E940D3BCD2FD0E04E
:103EE000E4CF0D1305C08EE20E940D3BC11107C047
:103EF000F60181916F010E940D3B0F5FDBCF80E3E4
:103F00000E940D3BC150F2CFA5E0B0E0EAE8FFE12E
:103F10000C94763E6B017C014D83022F9AE0892E32
:103F2000912CA12CB12CA0E1CA16A7E2DA06E1047B
:103F3000F10408F05EC0BD81B13F0CF46FC08B2F5F
:103F4000815F23E0622F0E94D23D9D83992319F067
:103F50008F5F291B2D83883008F061C090E0875265
:103F60009F4F0E94F33E182F4AE061E471E0C601C2
:103F70000E94C93E41E451E0FA0101900020E9F7B6
:103F8000AF0142545140B42EF42F8D81F81BF983B8
:103F90001F1664F080E30E940D3B8EE20E940D3BF1
:103FA0009981992319F080E30E940D3BAD81A11105
:103FB00002C0BFEFB983E981E15081E4C82E81E0FE
:103FC000D82EF12CE12C8E2F082E000C990B9A8301
:103FD0008983EB1430F1112319F0812F0E940D3BDE
:103FE000002319F0802F0E940D3B2596ECE00C94E5
:103FF000923ED701C6010596A11DB11D89839A8302
:10400000AB83BC83BC01CD01A50194010E94083E95
:1040100069017A019D819F5F9D8385CF1D8210E09C
:10402000A3CFD6018D916D010E940D3BE981FA81EC
:10403000EE15FF0519F48EE20E940D3BFFEFEF1A1B
:10404000FF0AC7CFCF92DF92EF92FF92CF93DF9319
:104050006B017C01C42FD22FF7FE0BC08DE20E94B2
:104060000D3BF094E094D094C094C11CD11CE11C91
:10407000F11C2D2F4C2FC701B6010E94841FDF9128
:10408000CF91FF90EF90DF90CF900895CF93C82FFE
:1040900080910F01E82FEE0FE80FE60FFF27FF1FBB
:1040A000E859FF4FE491EE23B1F080913101815046
:1040B00060913201E1FF04C090912F019F5F890F51
:1040C000E2FF04C090913001690F61500E94243AD0
:1040D0008C2F0E94EA1ECF910895CF93DF932091F9
:1040E000300130912A012317C0F5909129019031B8
:1040F00018F0280F2317A0F1309328010E94B91E51
:1041000093E082E0909331018093320160E08091EE
:10411000AD010E94462061E08091AE010E944620E0
:1041200062E08091AF010E944620C0912C01D091A5
:104130002D0180EE9FEF90932D0180932C016091D3
:104140003201809131010E94243A80910F010E9436
:10415000883BD0932D01C0932C01DF91CF9108951E
:1041600020912F01921BCECFA8E0B0E0EAEBF0E265
:104170000C94763E182F0E94E11C8091060181303C
:1041800009F4B6C018B88091D20187B98091CB01EB
:1041900085B984B90E94FA3B82E090E09E838D83CA
:1041A000C12CD12C76018091D401A895806C80938C
:1041B0007C000E94043C80917A00806480937A00A5
:1041C00080917A0086FDFCCF04E6812C912C54016D
:1041D00080917A00806480937A0080917A0086FDD5
:1041E000FCCF8091780090917900880E991EA11CD7
:1041F000B11C0E94013C015059F7A091A401B0915B
:10420000A501A50194010E94653E69837A838B8391
:104210009C834B015C018AE0B694A79497948794A1
:104220008A95D1F78D819E81019779F415B8809197
:10423000D2019091D101892B87B98C149D04AE04D1
:10424000BF0460F090E080E04CC081E090E09E838D
:104250008D83750164018091D501A7CF2091A601BE
:104260003091A701A4E6B0E00E944F3E9B01AC0153
:104270002C193D094E095F090E94653E69837A83C6
:104280008B839C83A7019601281939094A095B0988
:10429000A8EEB3E00E94653E6D837E838F8398878E
:1042A0002091D9013091DA012057354E50E040E09D
:1042B00069817A818B819C810E94083E6D817E811B
:1042C0008F8198850E94083EC901113051F4609198
:1042D000DB017091DC016217730708F0B3CF861B16
:1042E000970B20EC2093A3012896ECE00C94923ECF
:1042F00090E080E0F9CFA7E0B0E0E1E8F1E20C94D3
:10430000703EA89518B88091D20187B98091CB01F1
:1043100084B985B98091D5010E94CC1B4C01809154
:10432000D4010E94591B8D839E8315B88091CE01C4
:1043300084B98091D4010E94CC1B459758F5809197
:10434000CE0185B98091D4010E94CC1B6C01809173
:10435000D10187B988B915B88091CC0184B9809111
:10436000D4010E94CC1B2C018091D5010E94591BC5
:104370005C018091CF0184B98091D5010E94CC1B52
:104380003C012D813E812033314140F452E6C51677
:10439000D10448F02796E2E10C948C3E6CE6C616F8
:1043A00063E1D606B8F789EAA816B10408F07BC025
:1043B00096E26916710470F3D60120EF3BE247E004
:1043C00050E00E94653EA091A601B091A701BE8376
:1043D000AD839D012C193D0950E040E00E94083E4C
:1043E00049015A01AD81BE81A619B70920EF3BE210
:1043F00047E050E00E94653E69837A838B839C830B
:10440000930150E040E00E94083EBEEDCB16B3E0C1
:10441000DB0668F592E0880C991CAA1CBB1C9A95D7
:10442000D1F7DA01C901880D991DAA1DBB1D898329
:104430009A83AB83BC83BC01CD0125E030E040E032
:1044400050E00E94083E225A3E4F4F4F5F4FAAE075
:10445000B0E00E94653E4B015C0144E68416910485
:10446000A104B10408F4C4C04FEF4D83F8C09EED21
:10447000691693E0790670F482E0220F331F441F1F
:10448000551F8A95D1F7D501C401820F931FA41F30
:10449000B51FCDCF280D391D4A1D5B1D569547957B
:1044A00037952795D0CFAD81BE81A815B90508F401
:1044B00094C04A145B0408F490C04091A601509146
:1044C000A7014A175B0719F41197BE83AD832091AA
:1044D000D9013091DA012057354EAD81BE81A8193E
:1044E000B9090E944F3EED81FE814E1B5F0B9A0180
:1044F00050E040E00E94083E69017A012091D70116
:104500003091D8012057354ED201AA19BB090E941B
:104510004F3E69837A838B839C83950150E040E012
:104520000E94083E8D819E818E3D9340E0F4A2E082
:10453000CC0CDD1CEE1CFF1CAA95D1F7DA01C901D9
:104540008C0D9D1DAE1DBF1D89839A83AB83BC83DB
:10455000BC01CD0125E030E040E050E00E94083E83
:1045600049015A017ACF9EEDA91693E0B90650F59C
:10457000283FA4E23A07A1E04A07510570F4F2E0AF
:10458000220F331F441F551FFA95D1F7D701C601DB
:10459000820F931FA41FB51FD7CFA9E0B0E00E94E0
:1045A000653E9B01AC012C0D3D1D4E1D5F1D2983F9
:1045B0003A834B835C83CA01B9012AE030E040E0D2
:1045C00050E0CCCF46015701820E931EA41EB51EAB
:1045D000B694A7949794879440CF3FE8A31632E10E
:1045E000B30608F45FC07AE0872E912CA12CB12C81
:1045F00081E00E94B4206C01F12CE12CA501940112
:10460000220F331F441F551F65E086169104A10435
:10461000B10420F4280D391D4A1D5B1DAAE0B0E04D
:104620000E94653E69837A838B839C83672B682B0A
:10463000692B41F484E690E0A0E0B0E089839A839E
:10464000AB83BC8329813A814B815C81C216D3063E
:10465000E406F50658F5460157013EEF3D8380E03C
:1046600097E0F92E90910A01891718F1843609F420
:1046700091CE933008F08ECE27E0929FF001112466
:10468000EF5EFE4F8091C60180838091C5018183DA
:1046900083829482A582B6823D8132839F5F90930C
:1046A0000A0178CE812C912C5401A2CF5FEF5D835B
:1046B000D6CF282E312CF89E90011124D901AF5E5F
:1046C000BE4F6D012C919091C5012913B6C0119672
:1046D0002C919091C6012913B0C0E12C02E010E0AA
:1046E00020E030E04D81C501B4010E9428128F3FC7
:1046F00009F098C0D60113962D913D914D915C9192
:10470000169729833A834B835C8302E010E020E014
:1047100030E012964C9169817A818B819C810E9454
:1047200028128F838F3F59F5F6014281FD814F1387
:1047300002C021E02F83F29CC001F39C900D112454
:10474000DC01AF5EBE4F6D0113968D919D910D9072
:10475000BC91A02D89839A83AB83BC83ED809501A6
:104760008401BC01CD010E942812BF818B134FC070
:10477000F60183809480A580B680F281FD832401B8
:1047800035017694679457944794F29CC001F39C4A
:10479000900D11249C012F5E3E4F6901D9011396A3
:1047A0008D919D910D90BC91A02D89839A83AB83AF
:1047B000BC83ED8095018401041915092609370988
:1047C000F6014281BC01CD010E94281287FD37C04D
:1047D00095018401040D151D261D371DD601139664
:1047E0008D919D910D90BC91A02D89839A83AB836F
:1047F000BC83ED80F6014281BC01CD010E942812EC
:104800001816ECF0FAE0F093060184E62BCFD601FF
:1048100013968D929D92AD92BC921697ED81129651
:10482000EC93ADCFC501B40124E130E040E050E0AD
:104830000E94083E29013A01A8CF8F5F13CF88EC70
:1048400011CFEF920F931F93CF93DF9300D000D03F
:104850000F92CDB7DEB7498310920A0140E00E9463
:10486000DE1B0E947B2180910A018D838130C1F47F
:1048700099819923B1F000911401109115012091B3
:10488000160130911701892F90E0B0E0A0E0E09090
:10489000130143E0BC01CD010E942812813009F0D0
:1048A0001D828D810F900F900F900F900F90DF91D0
:1048B000CF911F910F91EF900895813138F0815180
:1048C00015BC92E094BD87BD81E0089580E0089515
:1048D00016BC81E085BDA99BFECF15BC82E085BBDF
:1048E0000895A7E0B0E0E7E7F4E20C94703E8E8311
:1048F0009F832E813F81232B51F46FEF7FEF7A83CB
:10490000698389819A812796E2E10C948C3EAE817D
:10491000BF8113968D919D910D90BC91A02D89839F
:104920009A83AB83BC8367EFE62E0AE010E020E0B9
:1049300030E0EE81FF814281BC01CD010E9428124E
:1049400087FDDBCF0E94E11C809106018130A9F236
:10495000AE81BF8111966C9111978C910E94971C2A
:1049600040E0EE81FF81618180810E94DE1B009129
:10497000D4018091D501006C806C8D8315BC82E0E0
:1049800084BD85E687BD18B800937C000E94FA3B81
:10499000FFEFF983812C912C54018394412C512CED
:1049A0003201439490E080E052E3C52ED12C17ED04
:1049B000A895C29758F48091D20187B98091CB0114
:1049C00085B984B90E940D3C14B815B822E3C2160B
:1049D000D10458F48091D10187B98091CC0185B977
:1049E00084B90E940D3C14B815B88091D10187B9E3
:1049F0008091CB0185B984B900937C0010937A0033
:104A000080917A0086FDFCCF10937A0080917A0025
:104A100086FDFCCF20907800309079003D81309366
:104A20007C0010937A0080917A0086FDFCCF109371
:104A30007A000E94093C0E9468248091CC0185B9CB
:104A400084B90E940D3C14B880917A0086FDFCCF99
:104A5000C0907800D09079008091D20187B9809180
:104A6000CC0185B984B96D8160937C0010937A0084
:104A700080917A0086FDFCCF10937A0080917A00B5
:104A800086FDFCCFE0907800F090790000937C00E8
:104A900010937A0080917A0086FDFCCF10937A0003
:104AA0000E94093C0E9468248091CB0185B984B999
:104AB0000E940D3C14B880917A0086FDFCCF809155
:104AC000780090917900A70170E060E0420D531DDD
:104AD000611D711D440E551E661E771EAC0170E0EF
:104AE00060E04C0D5D1D611D711D840E951EA61E9E
:104AF000B71E79817150798371115ACF17B815B8E3
:104B0000481459046A047B0408F052C08091D7010C
:104B10009091D8012AE0289FD001299FB00D11243F
:104B2000A501940124193509460957090E94653EDB
:104B300069837A838B839C83A30192010E94083E40
:104B40008091DB019091DC018217930758F4D90121
:104B5000A81BB90BBA83A98380EC8093A3010E94A0
:104B6000E11CCFCEAE81BF8113966D917D918D9169
:104B70009C91169769837A838B839C832AEFE22E1C
:104B800008EE13E020E030E012964C910E942812CB
:104B9000E1E0F0E0FA83E983181614F41A8219822E
:104BA00029813A813195219531093A832983D4CFDE
:104BB0006FEF7FEF7A836983CFCFA9E0B0E0E3EEB8
:104BC000F5E20C94733E7C0152E0A52EB12C61E11C
:104BD000662E0E94E11C80910601813009F41CC1FF
:104BE00018B88091D20187B915B814B88091D40152
:104BF0000E94591B6C0110E000E00F5F1F4F662DF3
:104C00008091CB010E94701D8091D4010E94591B9C
:104C100089839A8329813A81C216D30608F001C19B
:104C20002C193D093A8329830E37110509F0FFC07D
:104C30002B34310530F480E00AC0AA24A394B12CAF
:104C4000C8CF81E049815A814C325140A0F7A895E4
:104C50008111D3CFF2C0480130E020E08091D4012F
:104C60008114910409F0BBC049815A81241735078A
:104C700008F0BFC05A01A21AB30A712C55E6A51656
:104C8000B10410F493E0792E0E94591B6C01862D1B
:104C90008071582E09F4B0C00E94EF3B8091D4017E
:104CA0000E94591B8C159D0518F44601881A990A13
:104CB00093E07912D9C062E089819A818A0D9B1DA7
:104CC0000E948C1D9801DC010E944F3E69837A830B
:104CD0008B839C83552051F0AAE0B0E09B01AC018E
:104CE0000E94653E69837A838B839C8329813A8104
:104CF0004B815C81283389E8380781E448075105F6
:104D000008F47DC0CA01B90128EE33E040E050E06C
:104D10000E94083E29833A834B835C839AEF9987EC
:104D2000A8EEB3E029813A814B815C810E94653E07
:104D30006D837E838F83988722E434E040E050E0E7
:104D4000511008C06D817E818F81988520E134E00B
:104D500040E050E00E94083E8091C601F701808348
:104D60008091C50181838985828389819A81AB8104
:104D7000BC8187839087A187B2872383348345834F
:104D800056838AE0A82EB12CC12CD12C2130E5E32A
:104D90003E07ECE04E075105A8F5D4010E94653EA0
:104DA00028EE33E040E050E00E94083E29833A8339
:104DB0004B835C8363FE03C0F985FF5FF98728EFAF
:104DC000498569817A818B819C810E94CA12D701B1
:104DD0001B966D937D938D939C931E9745C031E0F8
:104DE000831A91080E94591B9C012C193D09A89512
:104DF00035CFB12CA12C46CF0E94F43B4FCFA7EF6B
:104E0000A9878ECFCA01B901A60195010E94083E6B
:104E1000B985BF5FB987BACF712C26C07724739448
:104E200023C01A8219820E37110509F404CF043FFA
:104E300031E0130709F005CFA895A981BA81AC32FA
:104E4000E1E0BE0758F30130110509F004CFA531A8
:104E5000B54008F400CF39E0632E21E0A216B1047A
:104E600009F0EBCE22E0722E872D2996EFE00C940C
:104E70008F3EA6E0B0E0EFE3F7E20C94783E8D833E
:104E80009E830E94E11C80910601813009F446C195
:104E900015B897E097B918B88091CE0184B980E42D
:104EA00080937B0084E480BF8091D40180648093F0
:104EB0007C0090937A000E94033C10928000109234
:104EC0008100109285001092840087E286BB809159
:104ED000CE0185B9809106018F3109F0C4C080915F
:104EE000D1018095877091E09093810087B9F12C72
:104EF000E12C86B385FD0CC080FFFBCF96BBA89547
:104F00002FEFE21AF20AE0E8EE16ECE0FE0689F76F
:104F10001092810090E296BBC0908600D0908700EE
:104F200014B82091840030918500C216D30638F45D
:104F300080FF05C081E086BBFFEFEF1AFF0A87E91B
:104F400080937A0080917B008F7B80937B0080919F
:104F5000D4010E94591B5C0115B88091CE0184B91F
:104F600081E020E8E2162CE0F20608F078C0C601E5
:104F7000B0E0A0E06701F12CE12C7601DD24CC2427
:104F8000C82AD92AEA2AFB2A83E0C816D104E104F8
:104F9000F10408F46BC092E0C91AD108E108F108E5
:104FA000E8E3CE16E9E8DE06E1E4EE06F10408F4F3
:104FB0005DC0C701B60128EE33E040E050E00E943A
:104FC000083E69017A0117EF2091DF018091A40169
:104FD0009091A50161E0820F911D27FD9A950E9495
:104FE0008C1DDC01A70196010E94653E20E436E09D
:104FF00040E050E00E94083E69017A01143F99F4B4
:105000008091DD0190E0B0E0A0E0C12CD12C7601D0
:10501000281739074A075B0730F069017A01C81A77
:10502000D90AEA0AFB0A8091C601ED81FE818083DC
:105030008091C501818312832783308741875287FE
:10504000C382D482E582F682143F91F4F0EACF164F
:10505000F6E8DF06F1E0EF06F10498F483E0269627
:10506000EAE00C94943E8091D2013DCF14EFACCF96
:10507000173FA1F721E2C2162EE4D206E104F104A3
:1050800068F78091D4010E94591B853D9340C8F771
:1050900014B81092A2018091D4010E94591B8983F7
:1050A0009A8381E08093A2018091D4010E94591BD0
:1050B000AC018091CE0184B9A981BA81A41BB50B42
:1050C0008091A4019091A5019E838D83CD010496CA
:1050D0000997B0F02D813E810E945E3E9A0150E01A
:1050E00040E00E942A3E8091DE01820F8093DE0123
:1050F000ED81FE81EC0DF11DC7FCFA95FE83ED8379
:1051000085018D819E81081B190BC801C1968336CC
:10511000910508F0A3CF0093DF01A0CF80E09FCFDF
:10512000A6E0B0E0E6E9F8E20C94773EF82E962E81
:105130004D83C42ED12C2FE0429FF0011124E35B5C
:10514000FE4F1082118284EF8283178210861186AF
:10515000128613821482158216821386148615868F
:10516000168680910601813009F475C08A3009F4F1
:1051700076C0692D8F2D0E94BD29FC01892B09F075
:1051800074C0ED812FE0E29FF0011124E35BFE4F3C
:10519000FA83E98340E0692D8F2D0E94DE1B89810F
:1051A0009A810E94DD25823021F489819A810E94B2
:1051B000392790910601943188F48FE08C9DF0019D
:1051C0008D9DF00D1124E35BFE4F82819A3009F032
:1051D00053C08A3F1CF08BE0809306010E94E11CC3
:1051E00017B818B814B815B836C0D5018C918F11FE
:1051F00004C011969C91991531F089111EC0F501DA
:1052000081818F111AC0D50113968D919D910D90BA
:10521000BC91A02D89839A83AB83BC83E12C0AE0E7
:1052200010E020E030E0F5014281BC01CD010E9498
:1052300028128F3F11F4F3E6FE832E812F5F2E8319
:1052400087E0A80EB11C80910A019E81981768F230
:10525000943609F48ECF2696EBE00C94933E81E1D0
:10526000A82E81E0B82E1E82EECF828193818C3DE4
:10527000954008F086CFEFCF853F0CF0ACCF83810F
:105280009481A581B6810597A105B10508F0A3CF4A
:10529000A5CFCF92DF92EF92FF92CF93DF9300D012
:1052A00000D00F92CDB7DEB7898315B88091CC01BD
:1052B00084B98091D10187B988B98091D5010E94C4
:1052C000CC1BDC01049708F447C0C090D701D090F4
:1052D000D801F12CE12CA93785E0B807B0F189811C
:1052E000813099F514B88091D1019091D201892B28
:1052F00087B98091D5010E94591BDC0189EF8D830C
:1053000017B818B814B815B820EA36E841E050E0EC
:105310000E94653EA70196010E94083E2093BB01B2
:105320003093BC014093BD015093BE018D818093A9
:10533000BF010F900F900F900F900F90DF91CF91C2
:10534000FF90EF90DF90CF90089580E9C80E8AE13A
:10535000D81EE11CF11CD2CF8091CF0184B980917D
:10536000D5010E94CC1BDC0180EFC82E8BE2D82E29
:1053700087E0E82EF12C88EFC2CF90910B01EAE78D
:10538000F1E0911104C0F0E0E0E0CF010895208148
:10539000281303C021812617C1F391503696F1CF0F
:1053A000B0E0A0E0E6EDF9E20C94723EA8950E9410
:1053B000E11C80910601813009F498C018B88091F1
:1053C000D20187B98091D4010E94591B2C01809190
:1053D000CE0184B985B961E18091CD010E94701D33
:1053E0008091D4010E94CC1B3C018091CB0184B9F7
:1053F00085B961E18091CD010E94701D8091D40139
:105400000E94CC1B6C018091D5010E94591B7C012C
:105410000E94E11C80910601813009F467C018B830
:105420008091D20187B98091D4010E94591B8C01CF
:1054300017B88091D10188B987B915B88091CF018B
:1054400084B960E18091CD010E94701D8091D401EA
:105450000E94CC1BEC018091D5010E94591BC817FA
:10546000D90708F448C0C81BD90B46018E189F08FD
:105470008091CC0184B960E18091CD010E94701DC2
:105480008091D4010E94CC1B5C018091D5010E94C7
:10549000591B9C01C501821B930B17B888159905F0
:1054A00068F57401E20EF31EEA18FB088201E301BD
:1054B00029EEE21623E0F206C8F4C630D105B0F0BA
:1054C0000C171D0708F50330110538F0CE01801BBD
:1054D000910B8C010436110548F0C832D105B8F0A3
:1054E000C4018759910989389141E0F1CDB7DEB700
:1054F000E0E10C948E3ED0E0C0E0B7CFEC18FD08A0
:10550000E80EF91E4C01D4CF0C1B1D0BE3CF15B8D0
:105510008091CC0184B98091D10188B987B98091FB
:10552000D5010E94CC1B8C018091CB0184B9809164
:10553000D20188B987B98091D4010E94CC1B9C010B
:10554000C80164E170E00E94E03DC801861B970B32
:105550008217930728F6060F171F2017310708F048
:10556000BFCFC4CF80910601882311F08A3019F48F
:1055700084E18093060180910B0196E0899FF00100
:105580001124E658FE4F9091C50190839091C60179
:10559000918393828282D583C4838F5F80930B0132
:1055A000A5CF6091AE018091AF019091070190FF6E
:1055B00003C0962F682F892F0E94BD29892B49F09F
:1055C0001092060110920701809108018E7F80934E
:1055D00008010895A5E0B0E0E0EFFAE20C94773E10
:1055E000282F2170922E80FF62C01091CB01309144
:1055F000D101398300E19981977099838091D60117
:10560000806480937C000E94043C2AE02D83C12C9E
:10561000D12C7601AA24AA9483E0B82EA895602FF5
:105620008091CD010E94701D8091D001812B84B9A1
:10563000992009F443C086B139818323E1F714B975
:1056400080917A00806480937A0080917A0086FD50
:10565000FCCF80917800909179009920A1F1C80E3B
:10566000D91EE11CF11C3D8131503D833111D6CF53
:10567000C701B6012AE030E040E050E00E942A3E37
:10568000A091A601B091A7010E94653E20E034E000
:1056900040E050E00E942A3E3093B4012093B301D1
:1056A00080E48093A3012596EBE00C94933E109147
:1056B000CC018091D201898301E19DCF86B199818E
:1056C0008923E1F3BCCF9501281B390BC21AD30AF9
:1056D000E108F108C8CFAAE0B0E0E1E7FBE20C94F2
:1056E0007D3EF82E9091CD0121E082139CC08091E7
:1056F000D10187B988B98091CC01892B84B995B93A
:105700008091D5010E94CC1B8C018091A6019091C3
:10571000A7019A8389838091D6010E94591BA98190
:10572000BA81A81BB90BBE83AD836D817E816115E3
:10573000710511F461E070E0C801861B970B0E94AF
:10574000E03DCB01B0E0A0E089839A83AB83BC83CA
:105750002D813E812031310508F05DC09091D0014E
:1057600031E0F3127AC08091CC01892B84B995B9CC
:105770008091D5010E94CC1B8C018091A601909153
:10578000A7019E838D838091D6010E94591BED81D4
:10579000FE81E81BF90BA091D701B091D801BA871F
:1057A000A987D80120EF3BE247E050E00E94653E28
:1057B0006D837E838F839887309711F4E1E0F0E06A
:1057C0009F0150E040E06D817E818F8198850E942D
:1057D000083EAAE0B0E00E94653E6D837E838F8321
:1057E000988789859A858057954E9C0150E040E0C6
:1057F0006D817E818F8198850E94083E89819A8182
:10580000AB81BC8182179307A407B50720F42983D5
:105810003A834B835C8369817A818B819C812A9650
:10582000E5E00C94993E18B88091D20187B9809137
:10583000CB0185B9892B84B90091A6011091A701EC
:105840008091D4010E94CC1B081B190B8091D601BA
:105850000E94591B8D839E8368CF8091CB01982B2A
:1058600094B90091A6011091A7018091D4010E94E2
:10587000CC1B081B190B8091D6010E94591BFC01FF
:105880002091D9013091DA013A8729878ACFAAE09D
:10589000B0E0EDE4FCE20C94723EF82E6B010E9445
:1058A000441C9091D00121E0F212F0C08091CB0114
:1058B000892B84B985B90E94F63B8091A60190910D
:1058C000A7019A8389838091D4010E94591BA981E1
:1058D000BA81A81BB90BBA87A9870091A6011091BC
:1058E000A7018091D6010E94591BF801E81BF90B12
:1058F0000091D9011091DA01B1E0B98388E49DE00B
:105900002DEF39E02E173F0708F0FCC0809106010B
:105910008E3109F0D5C080910701982F9F218460B6
:10592000992361F081E0F8120BC09091AE01809153
:10593000C501981305C0F092060182E0809307012B
:1059400080910801816080930801A985BA85CA16F3
:10595000DB0620F4AC19BD09BA87A987A985BA85E9
:1059600020EF3BE247E050E00E94653E9F0150E09F
:1059700040E00E94083EAAE0B0E00E94653E005769
:10598000154E980150E040E00E94083E49015A013E
:105990008F2D0E946B2B462F572FBC018416950626
:1059A000A606B70608F092C04A015C01B2E0BD83CA
:1059B0004090B7015090B8016090B9017090BA0161
:1059C0008091C70131E040E06091C501F31203C04E
:1059D000682F8091C6010E9490280E943C1C8091F3
:1059E000070182FF76C00091500110915101209172
:1059F0005201309153018091C0019091C101A09159
:105A0000C201B091C301E0904F014091C401BC01BB
:105A1000CD010E942812813009F461C08F2D84606D
:105A20008093070180E00E9449298092B7019092FB
:105A3000B801A092B901B092BA019D819093B001D2
:105A40008091500190915101A0915201B091530168
:105A50008093C0019093C101A093C201B093C30190
:105A600080914F018093C4018091C7018093AD0163
:105A7000A1E0FA1238C08091C5018093AE018091F7
:105A8000C6018093AF0110920F0129C08091CC0113
:105A9000892B84B98091D5010E94CC1B89879A8774
:105AA0008091D6010E94591BFC010091D7011091F1
:105AB000D80180ED97E021ED33E042E0498322CF29
:105AC0008EE180930601F09207013FCF21E02D8304
:105AD0006FCF481459046A047B0408F4A3CF2A96B4
